{
	"contracts/LGG.sol": {
		"LGGToken": {
			"abi": [
				{
					"inputs": [
						{
							"internalType": "address",
							"name": "_marketingWallet",
							"type": "address"
						}
					],
					"stateMutability": "nonpayable",
					"type": "constructor"
				},
				{
					"inputs": [],
					"name": "AccessControlBadConfirmation",
					"type": "error"
				},
				{
					"inputs": [
						{
							"internalType": "address",
							"name": "account",
							"type": "address"
						},
						{
							"internalType": "bytes32",
							"name": "neededRole",
							"type": "bytes32"
						}
					],
					"name": "AccessControlUnauthorizedAccount",
					"type": "error"
				},
				{
					"inputs": [
						{
							"internalType": "address",
							"name": "spender",
							"type": "address"
						},
						{
							"internalType": "uint256",
							"name": "allowance",
							"type": "uint256"
						},
						{
							"internalType": "uint256",
							"name": "needed",
							"type": "uint256"
						}
					],
					"name": "ERC20InsufficientAllowance",
					"type": "error"
				},
				{
					"inputs": [
						{
							"internalType": "address",
							"name": "sender",
							"type": "address"
						},
						{
							"internalType": "uint256",
							"name": "balance",
							"type": "uint256"
						},
						{
							"internalType": "uint256",
							"name": "needed",
							"type": "uint256"
						}
					],
					"name": "ERC20InsufficientBalance",
					"type": "error"
				},
				{
					"inputs": [
						{
							"internalType": "address",
							"name": "approver",
							"type": "address"
						}
					],
					"name": "ERC20InvalidApprover",
					"type": "error"
				},
				{
					"inputs": [
						{
							"internalType": "address",
							"name": "receiver",
							"type": "address"
						}
					],
					"name": "ERC20InvalidReceiver",
					"type": "error"
				},
				{
					"inputs": [
						{
							"internalType": "address",
							"name": "sender",
							"type": "address"
						}
					],
					"name": "ERC20InvalidSender",
					"type": "error"
				},
				{
					"inputs": [
						{
							"internalType": "address",
							"name": "spender",
							"type": "address"
						}
					],
					"name": "ERC20InvalidSpender",
					"type": "error"
				},
				{
					"anonymous": false,
					"inputs": [
						{
							"indexed": true,
							"internalType": "address",
							"name": "owner",
							"type": "address"
						},
						{
							"indexed": true,
							"internalType": "address",
							"name": "spender",
							"type": "address"
						},
						{
							"indexed": false,
							"internalType": "uint256",
							"name": "value",
							"type": "uint256"
						}
					],
					"name": "Approval",
					"type": "event"
				},
				{
					"anonymous": false,
					"inputs": [
						{
							"indexed": true,
							"internalType": "address",
							"name": "account",
							"type": "address"
						},
						{
							"indexed": false,
							"internalType": "bool",
							"name": "isBlacklisted",
							"type": "bool"
						}
					],
					"name": "BlacklistUpdated",
					"type": "event"
				},
				{
					"anonymous": false,
					"inputs": [
						{
							"indexed": false,
							"internalType": "uint256",
							"name": "marketingFee",
							"type": "uint256"
						},
						{
							"indexed": false,
							"internalType": "uint256",
							"name": "liquidityFee",
							"type": "uint256"
						}
					],
					"name": "FeesUpdated",
					"type": "event"
				},
				{
					"anonymous": false,
					"inputs": [
						{
							"indexed": false,
							"internalType": "address",
							"name": "newWallet",
							"type": "address"
						}
					],
					"name": "MarketingWalletUpdated",
					"type": "event"
				},
				{
					"anonymous": false,
					"inputs": [
						{
							"indexed": false,
							"internalType": "uint256",
							"name": "maxTx",
							"type": "uint256"
						},
						{
							"indexed": false,
							"internalType": "uint256",
							"name": "maxWallet",
							"type": "uint256"
						}
					],
					"name": "MaxLimitsUpdated",
					"type": "event"
				},
				{
					"anonymous": false,
					"inputs": [
						{
							"indexed": false,
							"internalType": "address",
							"name": "account",
							"type": "address"
						}
					],
					"name": "Paused",
					"type": "event"
				},
				{
					"anonymous": false,
					"inputs": [
						{
							"indexed": true,
							"internalType": "bytes32",
							"name": "role",
							"type": "bytes32"
						},
						{
							"indexed": true,
							"internalType": "bytes32",
							"name": "previousAdminRole",
							"type": "bytes32"
						},
						{
							"indexed": true,
							"internalType": "bytes32",
							"name": "newAdminRole",
							"type": "bytes32"
						}
					],
					"name": "RoleAdminChanged",
					"type": "event"
				},
				{
					"anonymous": false,
					"inputs": [
						{
							"indexed": true,
							"internalType": "bytes32",
							"name": "role",
							"type": "bytes32"
						},
						{
							"indexed": true,
							"internalType": "address",
							"name": "account",
							"type": "address"
						},
						{
							"indexed": true,
							"internalType": "address",
							"name": "sender",
							"type": "address"
						}
					],
					"name": "RoleGranted",
					"type": "event"
				},
				{
					"anonymous": false,
					"inputs": [
						{
							"indexed": true,
							"internalType": "bytes32",
							"name": "role",
							"type": "bytes32"
						},
						{
							"indexed": true,
							"internalType": "address",
							"name": "account",
							"type": "address"
						},
						{
							"indexed": true,
							"internalType": "address",
							"name": "sender",
							"type": "address"
						}
					],
					"name": "RoleRevoked",
					"type": "event"
				},
				{
					"anonymous": false,
					"inputs": [
						{
							"indexed": true,
							"internalType": "address",
							"name": "from",
							"type": "address"
						},
						{
							"indexed": true,
							"internalType": "address",
							"name": "to",
							"type": "address"
						},
						{
							"indexed": false,
							"internalType": "uint256",
							"name": "value",
							"type": "uint256"
						}
					],
					"name": "Transfer",
					"type": "event"
				},
				{
					"anonymous": false,
					"inputs": [
						{
							"indexed": false,
							"internalType": "address",
							"name": "account",
							"type": "address"
						}
					],
					"name": "Unpaused",
					"type": "event"
				},
				{
					"inputs": [],
					"name": "ADMIN_ROLE",
					"outputs": [
						{
							"internalType": "bytes32",
							"name": "",
							"type": "bytes32"
						}
					],
					"stateMutability": "view",
					"type": "function"
				},
				{
					"inputs": [],
					"name": "DEFAULT_ADMIN_ROLE",
					"outputs": [
						{
							"internalType": "bytes32",
							"name": "",
							"type": "bytes32"
						}
					],
					"stateMutability": "view",
					"type": "function"
				},
				{
					"inputs": [
						{
							"internalType": "address",
							"name": "owner",
							"type": "address"
						},
						{
							"internalType": "address",
							"name": "spender",
							"type": "address"
						}
					],
					"name": "allowance",
					"outputs": [
						{
							"internalType": "uint256",
							"name": "",
							"type": "uint256"
						}
					],
					"stateMutability": "view",
					"type": "function"
				},
				{
					"inputs": [
						{
							"internalType": "address",
							"name": "spender",
							"type": "address"
						},
						{
							"internalType": "uint256",
							"name": "value",
							"type": "uint256"
						}
					],
					"name": "approve",
					"outputs": [
						{
							"internalType": "bool",
							"name": "",
							"type": "bool"
						}
					],
					"stateMutability": "nonpayable",
					"type": "function"
				},
				{
					"inputs": [
						{
							"internalType": "address",
							"name": "account",
							"type": "address"
						}
					],
					"name": "balanceOf",
					"outputs": [
						{
							"internalType": "uint256",
							"name": "",
							"type": "uint256"
						}
					],
					"stateMutability": "view",
					"type": "function"
				},
				{
					"inputs": [
						{
							"internalType": "uint256",
							"name": "value",
							"type": "uint256"
						}
					],
					"name": "burn",
					"outputs": [],
					"stateMutability": "nonpayable",
					"type": "function"
				},
				{
					"inputs": [
						{
							"internalType": "address",
							"name": "account",
							"type": "address"
						},
						{
							"internalType": "uint256",
							"name": "value",
							"type": "uint256"
						}
					],
					"name": "burnFrom",
					"outputs": [],
					"stateMutability": "nonpayable",
					"type": "function"
				},
				{
					"inputs": [],
					"name": "decimals",
					"outputs": [
						{
							"internalType": "uint8",
							"name": "",
							"type": "uint8"
						}
					],
					"stateMutability": "view",
					"type": "function"
				},
				{
					"inputs": [
						{
							"internalType": "bytes32",
							"name": "role",
							"type": "bytes32"
						}
					],
					"name": "getRoleAdmin",
					"outputs": [
						{
							"internalType": "bytes32",
							"name": "",
							"type": "bytes32"
						}
					],
					"stateMutability": "view",
					"type": "function"
				},
				{
					"inputs": [
						{
							"internalType": "bytes32",
							"name": "role",
							"type": "bytes32"
						},
						{
							"internalType": "address",
							"name": "account",
							"type": "address"
						}
					],
					"name": "grantRole",
					"outputs": [],
					"stateMutability": "nonpayable",
					"type": "function"
				},
				{
					"inputs": [
						{
							"internalType": "bytes32",
							"name": "role",
							"type": "bytes32"
						},
						{
							"internalType": "address",
							"name": "account",
							"type": "address"
						}
					],
					"name": "hasRole",
					"outputs": [
						{
							"internalType": "bool",
							"name": "",
							"type": "bool"
						}
					],
					"stateMutability": "view",
					"type": "function"
				},
				{
					"inputs": [
						{
							"internalType": "address",
							"name": "",
							"type": "address"
						}
					],
					"name": "isBlacklisted",
					"outputs": [
						{
							"internalType": "bool",
							"name": "",
							"type": "bool"
						}
					],
					"stateMutability": "view",
					"type": "function"
				},
				{
					"inputs": [
						{
							"internalType": "address",
							"name": "",
							"type": "address"
						}
					],
					"name": "isExcludedFromFee",
					"outputs": [
						{
							"internalType": "bool",
							"name": "",
							"type": "bool"
						}
					],
					"stateMutability": "view",
					"type": "function"
				},
				{
					"inputs": [],
					"name": "liquidityFee",
					"outputs": [
						{
							"internalType": "uint256",
							"name": "",
							"type": "uint256"
						}
					],
					"stateMutability": "view",
					"type": "function"
				},
				{
					"inputs": [],
					"name": "marketingFee",
					"outputs": [
						{
							"internalType": "uint256",
							"name": "",
							"type": "uint256"
						}
					],
					"stateMutability": "view",
					"type": "function"
				},
				{
					"inputs": [],
					"name": "marketingWallet",
					"outputs": [
						{
							"internalType": "address",
							"name": "",
							"type": "address"
						}
					],
					"stateMutability": "view",
					"type": "function"
				},
				{
					"inputs": [],
					"name": "maxTransactionAmount",
					"outputs": [
						{
							"internalType": "uint256",
							"name": "",
							"type": "uint256"
						}
					],
					"stateMutability": "view",
					"type": "function"
				},
				{
					"inputs": [],
					"name": "maxWalletSize",
					"outputs": [
						{
							"internalType": "uint256",
							"name": "",
							"type": "uint256"
						}
					],
					"stateMutability": "view",
					"type": "function"
				},
				{
					"inputs": [],
					"name": "name",
					"outputs": [
						{
							"internalType": "string",
							"name": "",
							"type": "string"
						}
					],
					"stateMutability": "view",
					"type": "function"
				},
				{
					"inputs": [],
					"name": "pause",
					"outputs": [],
					"stateMutability": "nonpayable",
					"type": "function"
				},
				{
					"inputs": [],
					"name": "paused",
					"outputs": [
						{
							"internalType": "bool",
							"name": "",
							"type": "bool"
						}
					],
					"stateMutability": "view",
					"type": "function"
				},
				{
					"inputs": [
						{
							"internalType": "bytes32",
							"name": "role",
							"type": "bytes32"
						},
						{
							"internalType": "address",
							"name": "callerConfirmation",
							"type": "address"
						}
					],
					"name": "renounceRole",
					"outputs": [],
					"stateMutability": "nonpayable",
					"type": "function"
				},
				{
					"inputs": [
						{
							"internalType": "bytes32",
							"name": "role",
							"type": "bytes32"
						},
						{
							"internalType": "address",
							"name": "account",
							"type": "address"
						}
					],
					"name": "revokeRole",
					"outputs": [],
					"stateMutability": "nonpayable",
					"type": "function"
				},
				{
					"inputs": [
						{
							"internalType": "address",
							"name": "account",
							"type": "address"
						},
						{
							"internalType": "bool",
							"name": "blacklisted",
							"type": "bool"
						}
					],
					"name": "setBlacklist",
					"outputs": [],
					"stateMutability": "nonpayable",
					"type": "function"
				},
				{
					"inputs": [
						{
							"internalType": "address",
							"name": "account",
							"type": "address"
						},
						{
							"internalType": "bool",
							"name": "excluded",
							"type": "bool"
						}
					],
					"name": "setFeeExclusion",
					"outputs": [],
					"stateMutability": "nonpayable",
					"type": "function"
				},
				{
					"inputs": [
						{
							"internalType": "uint256",
							"name": "_marketingFee",
							"type": "uint256"
						},
						{
							"internalType": "uint256",
							"name": "_liquidityFee",
							"type": "uint256"
						}
					],
					"name": "setFees",
					"outputs": [],
					"stateMutability": "nonpayable",
					"type": "function"
				},
				{
					"inputs": [
						{
							"internalType": "address",
							"name": "_marketingWallet",
							"type": "address"
						}
					],
					"name": "setMarketingWallet",
					"outputs": [],
					"stateMutability": "nonpayable",
					"type": "function"
				},
				{
					"inputs": [
						{
							"internalType": "uint256",
							"name": "_maxTxAmount",
							"type": "uint256"
						},
						{
							"internalType": "uint256",
							"name": "_maxWalletSize",
							"type": "uint256"
						}
					],
					"name": "setMaxLimits",
					"outputs": [],
					"stateMutability": "nonpayable",
					"type": "function"
				},
				{
					"inputs": [
						{
							"internalType": "bytes4",
							"name": "interfaceId",
							"type": "bytes4"
						}
					],
					"name": "supportsInterface",
					"outputs": [
						{
							"internalType": "bool",
							"name": "",
							"type": "bool"
						}
					],
					"stateMutability": "view",
					"type": "function"
				},
				{
					"inputs": [],
					"name": "symbol",
					"outputs": [
						{
							"internalType": "string",
							"name": "",
							"type": "string"
						}
					],
					"stateMutability": "view",
					"type": "function"
				},
				{
					"inputs": [],
					"name": "totalSupply",
					"outputs": [
						{
							"internalType": "uint256",
							"name": "",
							"type": "uint256"
						}
					],
					"stateMutability": "view",
					"type": "function"
				},
				{
					"inputs": [
						{
							"internalType": "address",
							"name": "to",
							"type": "address"
						},
						{
							"internalType": "uint256",
							"name": "value",
							"type": "uint256"
						}
					],
					"name": "transfer",
					"outputs": [
						{
							"internalType": "bool",
							"name": "",
							"type": "bool"
						}
					],
					"stateMutability": "nonpayable",
					"type": "function"
				},
				{
					"inputs": [
						{
							"internalType": "address",
							"name": "from",
							"type": "address"
						},
						{
							"internalType": "address",
							"name": "to",
							"type": "address"
						},
						{
							"internalType": "uint256",
							"name": "value",
							"type": "uint256"
						}
					],
					"name": "transferFrom",
					"outputs": [
						{
							"internalType": "bool",
							"name": "",
							"type": "bool"
						}
					],
					"stateMutability": "nonpayable",
					"type": "function"
				},
				{
					"inputs": [],
					"name": "unpause",
					"outputs": [],
					"stateMutability": "nonpayable",
					"type": "function"
				}
			],
			"devdoc": {
				"errors": {
					"AccessControlBadConfirmation()": [
						{
							"details": "The caller of a function is not the expected one. NOTE: Don't confuse with {AccessControlUnauthorizedAccount}."
						}
					],
					"AccessControlUnauthorizedAccount(address,bytes32)": [
						{
							"details": "The `account` is missing a role."
						}
					],
					"ERC20InsufficientAllowance(address,uint256,uint256)": [
						{
							"details": "Indicates a failure with the `spender`’s `allowance`. Used in transfers.",
							"params": {
								"allowance": "Amount of tokens a `spender` is allowed to operate with.",
								"needed": "Minimum amount required to perform a transfer.",
								"spender": "Address that may be allowed to operate on tokens without being their owner."
							}
						}
					],
					"ERC20InsufficientBalance(address,uint256,uint256)": [
						{
							"details": "Indicates an error related to the current `balance` of a `sender`. Used in transfers.",
							"params": {
								"balance": "Current balance for the interacting account.",
								"needed": "Minimum amount required to perform a transfer.",
								"sender": "Address whose tokens are being transferred."
							}
						}
					],
					"ERC20InvalidApprover(address)": [
						{
							"details": "Indicates a failure with the `approver` of a token to be approved. Used in approvals.",
							"params": {
								"approver": "Address initiating an approval operation."
							}
						}
					],
					"ERC20InvalidReceiver(address)": [
						{
							"details": "Indicates a failure with the token `receiver`. Used in transfers.",
							"params": {
								"receiver": "Address to which tokens are being transferred."
							}
						}
					],
					"ERC20InvalidSender(address)": [
						{
							"details": "Indicates a failure with the token `sender`. Used in transfers.",
							"params": {
								"sender": "Address whose tokens are being transferred."
							}
						}
					],
					"ERC20InvalidSpender(address)": [
						{
							"details": "Indicates a failure with the `spender` to be approved. Used in approvals.",
							"params": {
								"spender": "Address that may be allowed to operate on tokens without being their owner."
							}
						}
					]
				},
				"events": {
					"Approval(address,address,uint256)": {
						"details": "Emitted when the allowance of a `spender` for an `owner` is set by a call to {approve}. `value` is the new allowance."
					},
					"Paused(address)": {
						"details": "Emitted when the pause is triggered by `account`."
					},
					"RoleAdminChanged(bytes32,bytes32,bytes32)": {
						"details": "Emitted when `newAdminRole` is set as ``role``'s admin role, replacing `previousAdminRole` `DEFAULT_ADMIN_ROLE` is the starting admin for all roles, despite {RoleAdminChanged} not being emitted signaling this."
					},
					"RoleGranted(bytes32,address,address)": {
						"details": "Emitted when `account` is granted `role`. `sender` is the account that originated the contract call. This account bears the admin role (for the granted role). Expected in cases where the role was granted using the internal {AccessControl-_grantRole}."
					},
					"RoleRevoked(bytes32,address,address)": {
						"details": "Emitted when `account` is revoked `role`. `sender` is the account that originated the contract call:   - if using `revokeRole`, it is the admin role bearer   - if using `renounceRole`, it is the role bearer (i.e. `account`)"
					},
					"Transfer(address,address,uint256)": {
						"details": "Emitted when `value` tokens are moved from one account (`from`) to another (`to`). Note that `value` may be zero."
					},
					"Unpaused(address)": {
						"details": "Emitted when the pause is lifted by `account`."
					}
				},
				"kind": "dev",
				"methods": {
					"allowance(address,address)": {
						"details": "See {IERC20-allowance}."
					},
					"approve(address,uint256)": {
						"details": "See {IERC20-approve}. NOTE: If `value` is the maximum `uint256`, the allowance is not updated on `transferFrom`. This is semantically equivalent to an infinite approval. Requirements: - `spender` cannot be the zero address."
					},
					"balanceOf(address)": {
						"details": "See {IERC20-balanceOf}."
					},
					"burn(uint256)": {
						"details": "Destroys a `value` amount of tokens from the caller. See {ERC20-_burn}."
					},
					"burnFrom(address,uint256)": {
						"details": "Destroys a `value` amount of tokens from `account`, deducting from the caller's allowance. See {ERC20-_burn} and {ERC20-allowance}. Requirements: - the caller must have allowance for ``accounts``'s tokens of at least `value`."
					},
					"decimals()": {
						"details": "Returns the number of decimals used to get its user representation. For example, if `decimals` equals `2`, a balance of `505` tokens should be displayed to a user as `5.05` (`505 / 10 ** 2`). Tokens usually opt for a value of 18, imitating the relationship between Ether and Wei. This is the default value returned by this function, unless it's overridden. NOTE: This information is only used for _display_ purposes: it in no way affects any of the arithmetic of the contract, including {IERC20-balanceOf} and {IERC20-transfer}."
					},
					"getRoleAdmin(bytes32)": {
						"details": "Returns the admin role that controls `role`. See {grantRole} and {revokeRole}. To change a role's admin, use {_setRoleAdmin}."
					},
					"grantRole(bytes32,address)": {
						"details": "Grants `role` to `account`. If `account` had not been already granted `role`, emits a {RoleGranted} event. Requirements: - the caller must have ``role``'s admin role. May emit a {RoleGranted} event."
					},
					"hasRole(bytes32,address)": {
						"details": "Returns `true` if `account` has been granted `role`."
					},
					"name()": {
						"details": "Returns the name of the token."
					},
					"paused()": {
						"details": "Returns true if the contract is paused, and false otherwise."
					},
					"renounceRole(bytes32,address)": {
						"details": "Revokes `role` from the calling account. Roles are often managed via {grantRole} and {revokeRole}: this function's purpose is to provide a mechanism for accounts to lose their privileges if they are compromised (such as when a trusted device is misplaced). If the calling account had been revoked `role`, emits a {RoleRevoked} event. Requirements: - the caller must be `callerConfirmation`. May emit a {RoleRevoked} event."
					},
					"revokeRole(bytes32,address)": {
						"details": "Revokes `role` from `account`. If `account` had been granted `role`, emits a {RoleRevoked} event. Requirements: - the caller must have ``role``'s admin role. May emit a {RoleRevoked} event."
					},
					"supportsInterface(bytes4)": {
						"details": "See {IERC165-supportsInterface}."
					},
					"symbol()": {
						"details": "Returns the symbol of the token, usually a shorter version of the name."
					},
					"totalSupply()": {
						"details": "See {IERC20-totalSupply}."
					},
					"transfer(address,uint256)": {
						"details": "See {IERC20-transfer}. Requirements: - `to` cannot be the zero address. - the caller must have a balance of at least `value`."
					},
					"transferFrom(address,address,uint256)": {
						"details": "See {IERC20-transferFrom}. Skips emitting an {Approval} event indicating an allowance update. This is not required by the ERC. See {xref-ERC20-_approve-address-address-uint256-bool-}[_approve]. NOTE: Does not update the allowance if the current allowance is the maximum `uint256`. Requirements: - `from` and `to` cannot be the zero address. - `from` must have a balance of at least `value`. - the caller must have allowance for ``from``'s tokens of at least `value`."
					}
				},
				"version": 1
			},
			"evm": {
				"assembly": "    /* \"contracts/LGG.sol\":377:5311  contract LGGToken is ERC20, ERC20Burnable, AccessControl, Pausable, ReentrancyGuard {... */\n  mstore(0x40, 0x80)\n    /* \"contracts/LGG.sol\":710:711  2 */\n  0x02\n    /* \"contracts/LGG.sol\":680:711  uint256 public marketingFee = 2 */\n  0x08\n  sstore\n    /* \"contracts/LGG.sol\":754:755  3 */\n  0x03\n    /* \"contracts/LGG.sol\":724:755  uint256 public liquidityFee = 3 */\n  0x09\n  sstore\n    /* \"contracts/LGG.sol\":1324:2122  constructor(address _marketingWallet) ERC20(\"LugIt.co\", \"LGG\") {... */\n  callvalue\n  dup1\n  iszero\n  tag_1\n  jumpi\n  revert(0x00, 0x00)\ntag_1:\n  pop\n  mload(0x40)\n  sub(codesize, bytecodeSize)\n  dup1\n  bytecodeSize\n  dup4\n  codecopy\n  dup2\n  add\n  0x40\n  dup2\n  swap1\n  mstore\n  tag_2\n  swap2\n  tag_3\n  jump\t// in\ntag_2:\n    /* \"@openzeppelin/contracts/token/ERC20/ERC20.sol\":1601:1714  constructor(string memory name_, string memory symbol_) {... */\n  mload(0x40)\n  dup1\n  0x40\n  add\n  0x40\n  mstore\n  dup1\n  0x08\n  dup2\n  mstore\n  0x20\n  add\n  shl(0xc0, 0x4c756749742e636f)\n  dup2\n  mstore\n  pop\n  mload(0x40)\n  dup1\n  0x40\n  add\n  0x40\n  mstore\n  dup1\n  0x03\n  dup2\n  mstore\n  0x20\n  add\n  shl(0xe8, 0x4c4747)\n  dup2\n  mstore\n  pop\n    /* \"@openzeppelin/contracts/token/ERC20/ERC20.sol\":1675:1680  name_ */\n  dup2\n    /* \"@openzeppelin/contracts/token/ERC20/ERC20.sol\":1667:1672  _name */\n  0x03\n    /* \"@openzeppelin/contracts/token/ERC20/ERC20.sol\":1667:1680  _name = name_ */\n  swap1\n  dup2\n  tag_9\n  swap2\n  swap1\n  tag_10\n  jump\t// in\ntag_9:\n  pop\n    /* \"@openzeppelin/contracts/token/ERC20/ERC20.sol\":1690:1697  _symbol */\n  0x04\n    /* \"@openzeppelin/contracts/token/ERC20/ERC20.sol\":1690:1707  _symbol = symbol_ */\n  tag_11\n    /* \"@openzeppelin/contracts/token/ERC20/ERC20.sol\":1700:1707  symbol_ */\n  dup3\n    /* \"@openzeppelin/contracts/token/ERC20/ERC20.sol\":1690:1697  _symbol */\n  dup3\n    /* \"@openzeppelin/contracts/token/ERC20/ERC20.sol\":1690:1707  _symbol = symbol_ */\n  tag_10\n  jump\t// in\ntag_11:\n  pop\n  pop\n    /* \"@openzeppelin/contracts/security/Pausable.sol\":996:1003  _paused */\n  0x06\n    /* \"@openzeppelin/contracts/security/Pausable.sol\":996:1011  _paused = false */\n  dup1\n  sload\n  not(0xff)\n  and\n  swap1\n  sstore\n  pop\n  0x01\n    /* \"@openzeppelin/contracts/security/ReentrancyGuard.sol\":1821:1828  _status */\n  0x07\n    /* \"@openzeppelin/contracts/security/ReentrancyGuard.sol\":1821:1843  _status = _NOT_ENTERED */\n  sstore\n  sub(shl(0xa0, 0x01), 0x01)\n    /* \"contracts/LGG.sol\":1406:1436  _marketingWallet != address(0) */\n  dup2\n  and\n    /* \"contracts/LGG.sol\":1398:1472  require(_marketingWallet != address(0), \"Marketing wallet cannot be zero\") */\n  tag_15\n  jumpi\n  mload(0x40)\n  shl(0xe5, 0x461bcd)\n  dup2\n  mstore\n    /* \"#utility.yul\":3152:3154   */\n  0x20\n    /* \"contracts/LGG.sol\":1398:1472  require(_marketingWallet != address(0), \"Marketing wallet cannot be zero\") */\n  0x04\n  dup3\n  add\n    /* \"#utility.yul\":3134:3155   */\n  mstore\n    /* \"#utility.yul\":3191:3193   */\n  0x1f\n    /* \"#utility.yul\":3171:3189   */\n  0x24\n  dup3\n  add\n    /* \"#utility.yul\":3164:3194   */\n  mstore\n    /* \"#utility.yul\":3230:3263   */\n  0x4d61726b6574696e672077616c6c65742063616e6e6f74206265207a65726f00\n    /* \"#utility.yul\":3210:3228   */\n  0x44\n  dup3\n  add\n    /* \"#utility.yul\":3203:3264   */\n  mstore\n    /* \"#utility.yul\":3281:3299   */\n  0x64\n  add\n    /* \"contracts/LGG.sol\":1398:1472  require(_marketingWallet != address(0), \"Marketing wallet cannot be zero\") */\ntag_16:\n  mload(0x40)\n  dup1\n  swap2\n  sub\n  swap1\n  revert\ntag_15:\n    /* \"contracts/LGG.sol\":1524:1566  _grantRole(DEFAULT_ADMIN_ROLE, msg.sender) */\n  tag_18\n    /* \"@openzeppelin/contracts/access/AccessControl.sol\":2232:2236  0x00 */\n  0x00\n    /* \"contracts/LGG.sol\":1555:1565  msg.sender */\n  caller\n    /* \"contracts/LGG.sol\":1524:1534  _grantRole */\n  tag_19\n    /* \"contracts/LGG.sol\":1524:1566  _grantRole(DEFAULT_ADMIN_ROLE, msg.sender) */\n  jump\t// in\ntag_18:\n  pop\n    /* \"contracts/LGG.sol\":1577:1611  _grantRole(ADMIN_ROLE, msg.sender) */\n  tag_20\n    /* \"contracts/LGG.sol\":505:528  keccak256(\"ADMIN_ROLE\") */\n  0xa49807205ce4d355092ef5a8a18f56e8913cf4a201fbe287825b095693c21775\n    /* \"contracts/LGG.sol\":1600:1610  msg.sender */\n  caller\n    /* \"contracts/LGG.sol\":1577:1587  _grantRole */\n  tag_19\n    /* \"contracts/LGG.sol\":1577:1611  _grantRole(ADMIN_ROLE, msg.sender) */\n  jump\t// in\ntag_20:\n  pop\n    /* \"contracts/LGG.sol\":1670:1685  marketingWallet */\n  0x0a\n    /* \"contracts/LGG.sol\":1670:1704  marketingWallet = _marketingWallet */\n  dup1\n  sload\n  not(sub(shl(0xa0, 0x01), 0x01))\n  and\n  sub(shl(0xa0, 0x01), 0x01)\n  dup4\n  and\n  or\n  swap1\n  sstore\n    /* \"contracts/LGG.sol\":1738:1756  TOTAL_SUPPLY / 100 */\n  tag_21\n    /* \"contracts/LGG.sol\":1753:1756  100 */\n  0x64\n    /* \"contracts/LGG.sol\":599:621  1_000_000_000 * 10**18 */\n  0x033b2e3c9fd0803ce8000000\n    /* \"contracts/LGG.sol\":1738:1756  TOTAL_SUPPLY / 100 */\n  tag_22\n  jump\t// in\ntag_21:\n    /* \"contracts/LGG.sol\":1715:1735  maxTransactionAmount */\n  0x0b\n    /* \"contracts/LGG.sol\":1715:1756  maxTransactionAmount = TOTAL_SUPPLY / 100 */\n  sstore\n    /* \"contracts/LGG.sol\":1789:1806  TOTAL_SUPPLY / 50 */\n  tag_23\n    /* \"contracts/LGG.sol\":1804:1806  50 */\n  0x32\n    /* \"contracts/LGG.sol\":599:621  1_000_000_000 * 10**18 */\n  0x033b2e3c9fd0803ce8000000\n    /* \"contracts/LGG.sol\":1789:1806  TOTAL_SUPPLY / 50 */\n  tag_22\n  jump\t// in\ntag_23:\n    /* \"contracts/LGG.sol\":1773:1786  maxWalletSize */\n  0x0c\n    /* \"contracts/LGG.sol\":1773:1806  maxWalletSize = TOTAL_SUPPLY / 50 */\n  sstore\n    /* \"contracts/LGG.sol\":1904:1914  msg.sender */\n  caller\n    /* \"contracts/LGG.sol\":1886:1915  isExcludedFromFee[msg.sender] */\n  0x00\n  dup2\n  dup2\n  mstore\n    /* \"contracts/LGG.sol\":1886:1903  isExcludedFromFee */\n  0x0d\n    /* \"contracts/LGG.sol\":1886:1915  isExcludedFromFee[msg.sender] */\n  0x20\n  mstore\n  0x40\n  dup1\n  dup3\n  keccak256\n    /* \"contracts/LGG.sol\":1886:1922  isExcludedFromFee[msg.sender] = true */\n  dup1\n  sload\n    /* \"contracts/LGG.sol\":1918:1922  true */\n  0x01\n  not(0xff)\n    /* \"contracts/LGG.sol\":1886:1922  isExcludedFromFee[msg.sender] = true */\n  swap2\n  dup3\n  and\n  dup2\n  or\n  swap1\n  swap3\n  sstore\n    /* \"contracts/LGG.sol\":1959:1963  this */\n  address\n    /* \"contracts/LGG.sol\":1933:1965  isExcludedFromFee[address(this)] */\n  dup5\n  mstore\n  dup3\n  dup5\n  keccak256\n    /* \"contracts/LGG.sol\":1933:1972  isExcludedFromFee[address(this)] = true */\n  dup1\n  sload\n  dup3\n  and\n  dup4\n  or\n  swap1\n  sstore\n  sub(shl(0xa0, 0x01), 0x01)\n    /* \"contracts/LGG.sol\":1983:2018  isExcludedFromFee[_marketingWallet] */\n  dup7\n  and\n  dup5\n  mstore\n  swap2\n  swap1\n  swap3\n  keccak256\n    /* \"contracts/LGG.sol\":1983:2025  isExcludedFromFee[_marketingWallet] = true */\n  dup1\n  sload\n  swap1\n  swap2\n  and\n  swap1\n  swap2\n  or\n  swap1\n  sstore\n    /* \"contracts/LGG.sol\":2083:2114  _mint(msg.sender, TOTAL_SUPPLY) */\n  tag_24\n  swap1\n    /* \"contracts/LGG.sol\":599:621  1_000_000_000 * 10**18 */\n  0x033b2e3c9fd0803ce8000000\n    /* \"contracts/LGG.sol\":2083:2088  _mint */\n  tag_25\n    /* \"contracts/LGG.sol\":2083:2114  _mint(msg.sender, TOTAL_SUPPLY) */\n  jump\t// in\ntag_24:\n    /* \"contracts/LGG.sol\":1324:2122  constructor(address _marketingWallet) ERC20(\"LugIt.co\", \"LGG\") {... */\n  pop\n    /* \"contracts/LGG.sol\":377:5311  contract LGGToken is ERC20, ERC20Burnable, AccessControl, Pausable, ReentrancyGuard {... */\n  jump(tag_104)\n    /* \"@openzeppelin/contracts/access/AccessControl.sol\":6179:6495  function _grantRole(bytes32 role, address account) internal virtual returns (bool) {... */\ntag_19:\n    /* \"@openzeppelin/contracts/access/AccessControl.sol\":6256:6260  bool */\n  0x00\n    /* \"@openzeppelin/contracts/access/AccessControl.sol\":2954:2966  _roles[role] */\n  dup3\n  dup2\n  mstore\n    /* \"@openzeppelin/contracts/access/AccessControl.sol\":2954:2960  _roles */\n  0x05\n    /* \"@openzeppelin/contracts/access/AccessControl.sol\":2954:2966  _roles[role] */\n  0x20\n  swap1\n  dup2\n  mstore\n  0x40\n  dup1\n  dup4\n  keccak256\n  sub(shl(0xa0, 0x01), 0x01)\n    /* \"@openzeppelin/contracts/access/AccessControl.sol\":2954:2983  _roles[role].hasRole[account] */\n  dup6\n  and\n  dup5\n  mstore\n  swap1\n  swap2\n  mstore\n  dup2\n  keccak256\n  sload\n  0xff\n  and\n    /* \"@openzeppelin/contracts/access/AccessControl.sol\":6272:6489  if (!hasRole(role, account)) {... */\n  tag_30\n  jumpi\n    /* \"@openzeppelin/contracts/access/AccessControl.sol\":6315:6327  _roles[role] */\n  0x00\n  dup4\n  dup2\n  mstore\n    /* \"@openzeppelin/contracts/access/AccessControl.sol\":6315:6321  _roles */\n  0x05\n    /* \"@openzeppelin/contracts/access/AccessControl.sol\":6315:6327  _roles[role] */\n  0x20\n  swap1\n  dup2\n  mstore\n  0x40\n  dup1\n  dup4\n  keccak256\n  sub(shl(0xa0, 0x01), 0x01)\n    /* \"@openzeppelin/contracts/access/AccessControl.sol\":6315:6344  _roles[role].hasRole[account] */\n  dup7\n  and\n  dup5\n  mstore\n  swap1\n  swap2\n  mstore\n  swap1\n  keccak256\n    /* \"@openzeppelin/contracts/access/AccessControl.sol\":6315:6351  _roles[role].hasRole[account] = true */\n  dup1\n  sload\n  not(0xff)\n  and\n    /* \"@openzeppelin/contracts/access/AccessControl.sol\":6347:6351  true */\n  0x01\n    /* \"@openzeppelin/contracts/access/AccessControl.sol\":6315:6351  _roles[role].hasRole[account] = true */\n  or\n  swap1\n  sstore\n    /* \"@openzeppelin/contracts/access/AccessControl.sol\":6397:6409  _msgSender() */\n  tag_31\n    /* \"@openzeppelin/contracts/utils/Context.sol\":735:745  msg.sender */\n  caller\n  swap1\n    /* \"@openzeppelin/contracts/utils/Context.sol\":656:752  function _msgSender() internal view virtual returns (address) {... */\n  jump\n    /* \"@openzeppelin/contracts/access/AccessControl.sol\":6397:6409  _msgSender() */\ntag_31:\n  sub(shl(0xa0, 0x01), 0x01)\n    /* \"@openzeppelin/contracts/access/AccessControl.sol\":6370:6410  RoleGranted(role, account, _msgSender()) */\n  and\n    /* \"@openzeppelin/contracts/access/AccessControl.sol\":6388:6395  account */\n  dup3\n  sub(shl(0xa0, 0x01), 0x01)\n    /* \"@openzeppelin/contracts/access/AccessControl.sol\":6370:6410  RoleGranted(role, account, _msgSender()) */\n  and\n    /* \"@openzeppelin/contracts/access/AccessControl.sol\":6382:6386  role */\n  dup5\n    /* \"@openzeppelin/contracts/access/AccessControl.sol\":6370:6410  RoleGranted(role, account, _msgSender()) */\n  0x2f8788117e7eff1d82e926ec794901d17c78024a50270940304540a733656f0d\n  mload(0x40)\n  mload(0x40)\n  dup1\n  swap2\n  sub\n  swap1\n  log4\n  pop\n    /* \"@openzeppelin/contracts/access/AccessControl.sol\":6431:6435  true */\n  0x01\n    /* \"@openzeppelin/contracts/access/AccessControl.sol\":6424:6435  return true */\n  jump(tag_33)\n    /* \"@openzeppelin/contracts/access/AccessControl.sol\":6272:6489  if (!hasRole(role, account)) {... */\ntag_30:\n  pop\n    /* \"@openzeppelin/contracts/access/AccessControl.sol\":6473:6478  false */\n  0x00\n    /* \"@openzeppelin/contracts/access/AccessControl.sol\":6272:6489  if (!hasRole(role, account)) {... */\ntag_33:\n    /* \"@openzeppelin/contracts/access/AccessControl.sol\":6179:6495  function _grantRole(bytes32 role, address account) internal virtual returns (bool) {... */\n  swap3\n  swap2\n  pop\n  pop\n  jump\t// out\n    /* \"@openzeppelin/contracts/token/ERC20/ERC20.sol\":7458:7666  function _mint(address account, uint256 value) internal {... */\ntag_25:\n  sub(shl(0xa0, 0x01), 0x01)\n    /* \"@openzeppelin/contracts/token/ERC20/ERC20.sol\":7528:7549  account == address(0) */\n  dup3\n  and\n    /* \"@openzeppelin/contracts/token/ERC20/ERC20.sol\":7524:7615  if (account == address(0)) {... */\n  tag_35\n  jumpi\n    /* \"@openzeppelin/contracts/token/ERC20/ERC20.sol\":7572:7604  ERC20InvalidReceiver(address(0)) */\n  mload(0x40)\n  shl(0xe0, 0xec442f05)\n  dup2\n  mstore\n    /* \"@openzeppelin/contracts/token/ERC20/ERC20.sol\":7601:7602  0 */\n  0x00\n    /* \"@openzeppelin/contracts/token/ERC20/ERC20.sol\":7572:7604  ERC20InvalidReceiver(address(0)) */\n  0x04\n  dup3\n  add\n    /* \"#utility.yul\":3810:3861   */\n  mstore\n    /* \"#utility.yul\":3783:3801   */\n  0x24\n  add\n    /* \"@openzeppelin/contracts/token/ERC20/ERC20.sol\":7572:7604  ERC20InvalidReceiver(address(0)) */\n  tag_16\n    /* \"#utility.yul\":3664:3867   */\n  jump\n    /* \"@openzeppelin/contracts/token/ERC20/ERC20.sol\":7524:7615  if (account == address(0)) {... */\ntag_35:\n    /* \"@openzeppelin/contracts/token/ERC20/ERC20.sol\":7624:7659  _update(address(0), account, value) */\n  tag_38\n    /* \"@openzeppelin/contracts/token/ERC20/ERC20.sol\":7640:7641  0 */\n  0x00\n    /* \"@openzeppelin/contracts/token/ERC20/ERC20.sol\":7644:7651  account */\n  dup4\n    /* \"@openzeppelin/contracts/token/ERC20/ERC20.sol\":7653:7658  value */\n  dup4\n    /* \"@openzeppelin/contracts/token/ERC20/ERC20.sol\":7624:7631  _update */\n  tag_39\n    /* \"@openzeppelin/contracts/token/ERC20/ERC20.sol\":7624:7659  _update(address(0), account, value) */\n  jump\t// in\ntag_38:\n    /* \"@openzeppelin/contracts/token/ERC20/ERC20.sol\":7458:7666  function _mint(address account, uint256 value) internal {... */\n  pop\n  pop\n  jump\t// out\n    /* \"contracts/LGG.sol\":2134:3372  function _update(... */\ntag_39:\n    /* \"@openzeppelin/contracts/security/Pausable.sol\":1239:1258  _requireNotPaused() */\n  tag_43\n    /* \"@openzeppelin/contracts/security/Pausable.sol\":1239:1256  _requireNotPaused */\n  tag_44\n    /* \"@openzeppelin/contracts/security/Pausable.sol\":1239:1258  _requireNotPaused() */\n  jump\t// in\ntag_43:\n  sub(shl(0xa0, 0x01), 0x01)\n    /* \"contracts/LGG.sol\":2319:2337  from == address(0) */\n  dup4\n  and\n  iszero\n  dup1\n    /* \"contracts/LGG.sol\":2319:2357  from == address(0) || to == address(0) */\n  tag_46\n  jumpi\n  pop\n  sub(shl(0xa0, 0x01), 0x01)\n    /* \"contracts/LGG.sol\":2341:2357  to == address(0) */\n  dup3\n  and\n  iszero\n    /* \"contracts/LGG.sol\":2319:2357  from == address(0) || to == address(0) */\ntag_46:\n    /* \"contracts/LGG.sol\":2315:2438  if (from == address(0) || to == address(0)) {... */\n  iszero\n  tag_47\n  jumpi\n    /* \"contracts/LGG.sol\":2374:2405  super._update(from, to, amount) */\n  tag_48\n    /* \"contracts/LGG.sol\":2388:2392  from */\n  dup4\n    /* \"contracts/LGG.sol\":2394:2396  to */\n  dup4\n    /* \"contracts/LGG.sol\":2398:2404  amount */\n  dup4\n    /* \"contracts/LGG.sol\":2374:2387  super._update */\n  tag_49\n    /* \"contracts/LGG.sol\":2374:2405  super._update(from, to, amount) */\n  jump\t// in\ntag_48:\n    /* \"contracts/LGG.sol\":2134:3372  function _update(... */\n  pop\n  pop\n  pop\n  jump\t// out\n    /* \"contracts/LGG.sol\":2315:2438  if (from == address(0) || to == address(0)) {... */\ntag_47:\n  sub(shl(0xa0, 0x01), 0x01)\n    /* \"contracts/LGG.sol\":2467:2486  isBlacklisted[from] */\n  dup4\n  and\n  0x00\n  swap1\n  dup2\n  mstore\n    /* \"contracts/LGG.sol\":2467:2480  isBlacklisted */\n  0x0e\n    /* \"contracts/LGG.sol\":2467:2486  isBlacklisted[from] */\n  0x20\n  mstore\n  0x40\n  swap1\n  keccak256\n  sload\n  0xff\n  and\n    /* \"contracts/LGG.sol\":2466:2486  !isBlacklisted[from] */\n  iszero\n    /* \"contracts/LGG.sol\":2466:2508  !isBlacklisted[from] && !isBlacklisted[to] */\n  dup1\n  iszero\n  tag_50\n  jumpi\n  pop\n  sub(shl(0xa0, 0x01), 0x01)\n    /* \"contracts/LGG.sol\":2491:2508  isBlacklisted[to] */\n  dup3\n  and\n  0x00\n  swap1\n  dup2\n  mstore\n    /* \"contracts/LGG.sol\":2491:2504  isBlacklisted */\n  0x0e\n    /* \"contracts/LGG.sol\":2491:2508  isBlacklisted[to] */\n  0x20\n  mstore\n  0x40\n  swap1\n  keccak256\n  sload\n  0xff\n  and\n    /* \"contracts/LGG.sol\":2490:2508  !isBlacklisted[to] */\n  iszero\n    /* \"contracts/LGG.sol\":2466:2508  !isBlacklisted[from] && !isBlacklisted[to] */\ntag_50:\n    /* \"contracts/LGG.sol\":2458:2535  require(!isBlacklisted[from] && !isBlacklisted[to], \"Address is blacklisted\") */\n  tag_51\n  jumpi\n  mload(0x40)\n  shl(0xe5, 0x461bcd)\n  dup2\n  mstore\n    /* \"#utility.yul\":4074:4076   */\n  0x20\n    /* \"contracts/LGG.sol\":2458:2535  require(!isBlacklisted[from] && !isBlacklisted[to], \"Address is blacklisted\") */\n  0x04\n  dup3\n  add\n    /* \"#utility.yul\":4056:4077   */\n  mstore\n    /* \"#utility.yul\":4113:4115   */\n  0x16\n    /* \"#utility.yul\":4093:4111   */\n  0x24\n  dup3\n  add\n    /* \"#utility.yul\":4086:4116   */\n  mstore\n    /* \"#utility.yul\":4152:4176   */\n  0x4164647265737320697320626c61636b6c697374656400000000000000000000\n    /* \"#utility.yul\":4132:4150   */\n  0x44\n  dup3\n  add\n    /* \"#utility.yul\":4125:4177   */\n  mstore\n    /* \"#utility.yul\":4194:4212   */\n  0x64\n  add\n    /* \"contracts/LGG.sol\":2458:2535  require(!isBlacklisted[from] && !isBlacklisted[to], \"Address is blacklisted\") */\n  tag_16\n    /* \"#utility.yul\":3872:4218   */\n  jump\n    /* \"contracts/LGG.sol\":2458:2535  require(!isBlacklisted[from] && !isBlacklisted[to], \"Address is blacklisted\") */\ntag_51:\n  sub(shl(0xa0, 0x01), 0x01)\n    /* \"contracts/LGG.sol\":2561:2584  isExcludedFromFee[from] */\n  dup4\n  and\n  0x00\n  swap1\n  dup2\n  mstore\n    /* \"contracts/LGG.sol\":2561:2578  isExcludedFromFee */\n  0x0d\n    /* \"contracts/LGG.sol\":2561:2584  isExcludedFromFee[from] */\n  0x20\n  mstore\n  0x40\n  swap1\n  keccak256\n  sload\n  0xff\n  and\n    /* \"contracts/LGG.sol\":2560:2584  !isExcludedFromFee[from] */\n  iszero\n    /* \"contracts/LGG.sol\":2560:2610  !isExcludedFromFee[from] && !isExcludedFromFee[to] */\n  dup1\n  iszero\n  tag_54\n  jumpi\n  pop\n  sub(shl(0xa0, 0x01), 0x01)\n    /* \"contracts/LGG.sol\":2589:2610  isExcludedFromFee[to] */\n  dup3\n  and\n  0x00\n  swap1\n  dup2\n  mstore\n    /* \"contracts/LGG.sol\":2589:2606  isExcludedFromFee */\n  0x0d\n    /* \"contracts/LGG.sol\":2589:2610  isExcludedFromFee[to] */\n  0x20\n  mstore\n  0x40\n  swap1\n  keccak256\n  sload\n  0xff\n  and\n    /* \"contracts/LGG.sol\":2588:2610  !isExcludedFromFee[to] */\n  iszero\n    /* \"contracts/LGG.sol\":2560:2610  !isExcludedFromFee[from] && !isExcludedFromFee[to] */\ntag_54:\n    /* \"contracts/LGG.sol\":2556:3313  if (!isExcludedFromFee[from] && !isExcludedFromFee[to]) {... */\n  iszero\n  tag_55\n  jumpi\n    /* \"contracts/LGG.sol\":2645:2665  maxTransactionAmount */\n  sload(0x0b)\n    /* \"contracts/LGG.sol\":2635:2641  amount */\n  dup2\n    /* \"contracts/LGG.sol\":2635:2665  amount <= maxTransactionAmount */\n  gt\n  iszero\n    /* \"contracts/LGG.sol\":2627:2700  require(amount <= maxTransactionAmount, \"Exceeds max transaction amount\") */\n  tag_56\n  jumpi\n  mload(0x40)\n  shl(0xe5, 0x461bcd)\n  dup2\n  mstore\n    /* \"#utility.yul\":4425:4427   */\n  0x20\n    /* \"contracts/LGG.sol\":2627:2700  require(amount <= maxTransactionAmount, \"Exceeds max transaction amount\") */\n  0x04\n  dup3\n  add\n    /* \"#utility.yul\":4407:4428   */\n  mstore\n    /* \"#utility.yul\":4464:4466   */\n  0x1e\n    /* \"#utility.yul\":4444:4462   */\n  0x24\n  dup3\n  add\n    /* \"#utility.yul\":4437:4467   */\n  mstore\n    /* \"#utility.yul\":4503:4535   */\n  0x45786365656473206d6178207472616e73616374696f6e20616d6f756e740000\n    /* \"#utility.yul\":4483:4501   */\n  0x44\n  dup3\n  add\n    /* \"#utility.yul\":4476:4536   */\n  mstore\n    /* \"#utility.yul\":4553:4571   */\n  0x64\n  add\n    /* \"contracts/LGG.sol\":2627:2700  require(amount <= maxTransactionAmount, \"Exceeds max transaction amount\") */\n  tag_16\n    /* \"#utility.yul\":4223:4577   */\n  jump\n    /* \"contracts/LGG.sol\":2627:2700  require(amount <= maxTransactionAmount, \"Exceeds max transaction amount\") */\ntag_56:\n    /* \"contracts/LGG.sol\":2749:2762  maxWalletSize */\n  sload(0x0c)\n    /* \"contracts/LGG.sol\":2739:2745  amount */\n  dup2\n    /* \"contracts/LGG.sol\":2723:2736  balanceOf(to) */\n  tag_59\n    /* \"contracts/LGG.sol\":2733:2735  to */\n  dup5\n  sub(shl(0xa0, 0x01), 0x01)\n    /* \"@openzeppelin/contracts/token/ERC20/ERC20.sol\":3095:3113  _balances[account] */\n  and\n    /* \"@openzeppelin/contracts/token/ERC20/ERC20.sol\":3069:3076  uint256 */\n  0x00\n    /* \"@openzeppelin/contracts/token/ERC20/ERC20.sol\":3095:3113  _balances[account] */\n  swap1\n  dup2\n  mstore\n  0x20\n  dup2\n  swap1\n  mstore\n  0x40\n  swap1\n  keccak256\n  sload\n  swap1\n    /* \"@openzeppelin/contracts/token/ERC20/ERC20.sol\":3004:3120  function balanceOf(address account) public view virtual returns (uint256) {... */\n  jump\n    /* \"contracts/LGG.sol\":2723:2736  balanceOf(to) */\ntag_59:\n    /* \"contracts/LGG.sol\":2723:2745  balanceOf(to) + amount */\n  tag_61\n  swap2\n  swap1\n  tag_62\n  jump\t// in\ntag_61:\n    /* \"contracts/LGG.sol\":2723:2762  balanceOf(to) + amount <= maxWalletSize */\n  gt\n  iszero\n    /* \"contracts/LGG.sol\":2715:2790  require(balanceOf(to) + amount <= maxWalletSize, \"Exceeds max wallet size\") */\n  tag_63\n  jumpi\n  mload(0x40)\n  shl(0xe5, 0x461bcd)\n  dup2\n  mstore\n    /* \"#utility.yul\":4914:4916   */\n  0x20\n    /* \"contracts/LGG.sol\":2715:2790  require(balanceOf(to) + amount <= maxWalletSize, \"Exceeds max wallet size\") */\n  0x04\n  dup3\n  add\n    /* \"#utility.yul\":4896:4917   */\n  mstore\n    /* \"#utility.yul\":4953:4955   */\n  0x17\n    /* \"#utility.yul\":4933:4951   */\n  0x24\n  dup3\n  add\n    /* \"#utility.yul\":4926:4956   */\n  mstore\n    /* \"#utility.yul\":4992:5017   */\n  0x45786365656473206d61782077616c6c65742073697a65000000000000000000\n    /* \"#utility.yul\":4972:4990   */\n  0x44\n  dup3\n  add\n    /* \"#utility.yul\":4965:5018   */\n  mstore\n    /* \"#utility.yul\":5035:5053   */\n  0x64\n  add\n    /* \"contracts/LGG.sol\":2715:2790  require(balanceOf(to) + amount <= maxWalletSize, \"Exceeds max wallet size\") */\n  tag_16\n    /* \"#utility.yul\":4712:5059   */\n  jump\n    /* \"contracts/LGG.sol\":2715:2790  require(balanceOf(to) + amount <= maxWalletSize, \"Exceeds max wallet size\") */\ntag_63:\n    /* \"contracts/LGG.sol\":2819:2842  uint256 marketingTokens */\n  0x00\n    /* \"contracts/LGG.sol\":2871:2874  100 */\n  0x64\n    /* \"contracts/LGG.sol\":2855:2867  marketingFee */\n  sload(0x08)\n    /* \"contracts/LGG.sol\":2846:2852  amount */\n  dup4\n    /* \"contracts/LGG.sol\":2846:2867  amount * marketingFee */\n  tag_66\n  swap2\n  swap1\n  tag_67\n  jump\t// in\ntag_66:\n    /* \"contracts/LGG.sol\":2845:2874  (amount * marketingFee) / 100 */\n  tag_68\n  swap2\n  swap1\n  tag_22\n  jump\t// in\ntag_68:\n    /* \"contracts/LGG.sol\":2819:2874  uint256 marketingTokens = (amount * marketingFee) / 100 */\n  swap1\n  pop\n    /* \"contracts/LGG.sol\":2889:2912  uint256 liquidityTokens */\n  0x00\n    /* \"contracts/LGG.sol\":2941:2944  100 */\n  0x64\n    /* \"contracts/LGG.sol\":2925:2937  liquidityFee */\n  sload(0x09)\n    /* \"contracts/LGG.sol\":2916:2922  amount */\n  dup5\n    /* \"contracts/LGG.sol\":2916:2937  amount * liquidityFee */\n  tag_69\n  swap2\n  swap1\n  tag_67\n  jump\t// in\ntag_69:\n    /* \"contracts/LGG.sol\":2915:2944  (amount * liquidityFee) / 100 */\n  tag_70\n  swap2\n  swap1\n  tag_22\n  jump\t// in\ntag_70:\n    /* \"contracts/LGG.sol\":2889:2944  uint256 liquidityTokens = (amount * liquidityFee) / 100 */\n  swap1\n  pop\n    /* \"contracts/LGG.sol\":2959:2975  uint256 totalFee */\n  0x00\n    /* \"contracts/LGG.sol\":2978:3011  marketingTokens + liquidityTokens */\n  tag_71\n    /* \"contracts/LGG.sol\":2889:2944  uint256 liquidityTokens = (amount * liquidityFee) / 100 */\n  dup3\n    /* \"contracts/LGG.sol\":2978:2993  marketingTokens */\n  dup5\n    /* \"contracts/LGG.sol\":2978:3011  marketingTokens + liquidityTokens */\n  tag_62\n  jump\t// in\ntag_71:\n    /* \"contracts/LGG.sol\":2959:3011  uint256 totalFee = marketingTokens + liquidityTokens */\n  swap1\n  pop\n    /* \"contracts/LGG.sol\":3044:3056  totalFee > 0 */\n  dup1\n  iszero\n    /* \"contracts/LGG.sol\":3040:3302  if (totalFee > 0) {... */\n  tag_72\n  jumpi\n    /* \"contracts/LGG.sol\":3097:3112  marketingWallet */\n  sload(0x0a)\n    /* \"contracts/LGG.sol\":3077:3130  super._update(from, marketingWallet, marketingTokens) */\n  tag_73\n  swap1\n    /* \"contracts/LGG.sol\":3091:3095  from */\n  dup8\n  swap1\n  sub(shl(0xa0, 0x01), 0x01)\n    /* \"contracts/LGG.sol\":3097:3112  marketingWallet */\n  and\n    /* \"contracts/LGG.sol\":3114:3129  marketingTokens */\n  dup6\n    /* \"contracts/LGG.sol\":3077:3090  super._update */\n  tag_49\n    /* \"contracts/LGG.sol\":3077:3130  super._update(from, marketingWallet, marketingTokens) */\n  jump\t// in\ntag_73:\n    /* \"contracts/LGG.sol\":3149:3200  super._update(from, address(this), liquidityTokens) */\n  tag_74\n    /* \"contracts/LGG.sol\":3163:3167  from */\n  dup7\n    /* \"contracts/LGG.sol\":3177:3181  this */\n  address\n    /* \"contracts/LGG.sol\":3184:3199  liquidityTokens */\n  dup5\n    /* \"contracts/LGG.sol\":3149:3162  super._update */\n  tag_49\n    /* \"contracts/LGG.sol\":3149:3200  super._update(from, address(this), liquidityTokens) */\n  jump\t// in\ntag_74:\n    /* \"contracts/LGG.sol\":3219:3261  super._update(from, to, amount - totalFee) */\n  tag_75\n    /* \"contracts/LGG.sol\":3233:3237  from */\n  dup7\n    /* \"contracts/LGG.sol\":3239:3241  to */\n  dup7\n    /* \"contracts/LGG.sol\":3243:3260  amount - totalFee */\n  tag_76\n    /* \"contracts/LGG.sol\":3252:3260  totalFee */\n  dup5\n    /* \"contracts/LGG.sol\":3243:3249  amount */\n  dup9\n    /* \"contracts/LGG.sol\":3243:3260  amount - totalFee */\n  tag_77\n  jump\t// in\ntag_76:\n    /* \"contracts/LGG.sol\":3219:3232  super._update */\n  tag_49\n    /* \"contracts/LGG.sol\":3219:3261  super._update(from, to, amount - totalFee) */\n  jump\t// in\ntag_75:\n    /* \"contracts/LGG.sol\":3280:3287  return; */\n  pop\n  pop\n  pop\n    /* \"contracts/LGG.sol\":2134:3372  function _update(... */\n  pop\n  pop\n  pop\n  jump\t// out\n    /* \"contracts/LGG.sol\":3040:3302  if (totalFee > 0) {... */\ntag_72:\n    /* \"contracts/LGG.sol\":2612:3313  {... */\n  pop\n  pop\n  pop\n    /* \"contracts/LGG.sol\":2556:3313  if (!isExcludedFromFee[from] && !isExcludedFromFee[to]) {... */\ntag_55:\n    /* \"contracts/LGG.sol\":3333:3364  super._update(from, to, amount) */\n  tag_48\n    /* \"contracts/LGG.sol\":3347:3351  from */\n  dup4\n    /* \"contracts/LGG.sol\":3353:3355  to */\n  dup4\n    /* \"contracts/LGG.sol\":3357:3363  amount */\n  dup4\n    /* \"contracts/LGG.sol\":3333:3346  super._update */\n  tag_49\n    /* \"contracts/LGG.sol\":3333:3364  super._update(from, to, amount) */\n  jump\t// in\n    /* \"@openzeppelin/contracts/security/Pausable.sol\":1767:1873  function _requireNotPaused() internal view virtual {... */\ntag_44:\n    /* \"@openzeppelin/contracts/security/Pausable.sol\":1685:1692  _paused */\n  and(0xff, sload(0x06))\n    /* \"@openzeppelin/contracts/security/Pausable.sol\":1836:1845  !paused() */\n  iszero\n    /* \"@openzeppelin/contracts/security/Pausable.sol\":1828:1866  require(!paused(), \"Pausable: paused\") */\n  tag_82\n  jumpi\n  mload(0x40)\n  shl(0xe5, 0x461bcd)\n  dup2\n  mstore\n    /* \"#utility.yul\":5572:5574   */\n  0x20\n    /* \"@openzeppelin/contracts/security/Pausable.sol\":1828:1866  require(!paused(), \"Pausable: paused\") */\n  0x04\n  dup3\n  add\n    /* \"#utility.yul\":5554:5575   */\n  mstore\n    /* \"#utility.yul\":5611:5613   */\n  0x10\n    /* \"#utility.yul\":5591:5609   */\n  0x24\n  dup3\n  add\n    /* \"#utility.yul\":5584:5614   */\n  mstore\n  shl(0x82, 0x14185d5cd8589b194e881c185d5cd959)\n    /* \"#utility.yul\":5630:5648   */\n  0x44\n  dup3\n  add\n    /* \"#utility.yul\":5623:5669   */\n  mstore\n    /* \"#utility.yul\":5686:5704   */\n  0x64\n  add\n    /* \"@openzeppelin/contracts/security/Pausable.sol\":1828:1866  require(!paused(), \"Pausable: paused\") */\n  tag_16\n    /* \"#utility.yul\":5370:5710   */\n  jump\n    /* \"@openzeppelin/contracts/security/Pausable.sol\":1828:1866  require(!paused(), \"Pausable: paused\") */\ntag_82:\n    /* \"@openzeppelin/contracts/security/Pausable.sol\":1767:1873  function _requireNotPaused() internal view virtual {... */\n  jump\t// out\n    /* \"@openzeppelin/contracts/token/ERC20/ERC20.sol\":6008:7115  function _update(address from, address to, uint256 value) internal virtual {... */\ntag_49:\n  sub(shl(0xa0, 0x01), 0x01)\n    /* \"@openzeppelin/contracts/token/ERC20/ERC20.sol\":6097:6115  from == address(0) */\n  dup4\n  and\n    /* \"@openzeppelin/contracts/token/ERC20/ERC20.sol\":6093:6633  if (from == address(0)) {... */\n  tag_86\n  jumpi\n    /* \"@openzeppelin/contracts/token/ERC20/ERC20.sol\":6249:6254  value */\n  dup1\n    /* \"@openzeppelin/contracts/token/ERC20/ERC20.sol\":6233:6245  _totalSupply */\n  0x02\n  0x00\n    /* \"@openzeppelin/contracts/token/ERC20/ERC20.sol\":6233:6254  _totalSupply += value */\n  dup3\n  dup3\n  sload\n  tag_87\n  swap2\n  swap1\n  tag_62\n  jump\t// in\ntag_87:\n  swap1\n  swap2\n  sstore\n  pop\n    /* \"@openzeppelin/contracts/token/ERC20/ERC20.sol\":6093:6633  if (from == address(0)) {... */\n  tag_88\n  swap1\n  pop\n  jump\ntag_86:\n  sub(shl(0xa0, 0x01), 0x01)\n    /* \"@openzeppelin/contracts/token/ERC20/ERC20.sol\":6307:6322  _balances[from] */\n  dup4\n  and\n    /* \"@openzeppelin/contracts/token/ERC20/ERC20.sol\":6285:6304  uint256 fromBalance */\n  0x00\n    /* \"@openzeppelin/contracts/token/ERC20/ERC20.sol\":6307:6322  _balances[from] */\n  swap1\n  dup2\n  mstore\n  0x20\n  dup2\n  swap1\n  mstore\n  0x40\n  swap1\n  keccak256\n  sload\n    /* \"@openzeppelin/contracts/token/ERC20/ERC20.sol\":6340:6359  fromBalance < value */\n  dup2\n  dup2\n  lt\n    /* \"@openzeppelin/contracts/token/ERC20/ERC20.sol\":6336:6451  if (fromBalance < value) {... */\n  iszero\n  tag_89\n  jumpi\n    /* \"@openzeppelin/contracts/token/ERC20/ERC20.sol\":6386:6436  ERC20InsufficientBalance(from, fromBalance, value) */\n  mload(0x40)\n  shl(0xe2, 0x391434e3)\n  dup2\n  mstore\n  sub(shl(0xa0, 0x01), 0x01)\n    /* \"#utility.yul\":5935:5967   */\n  dup6\n  and\n    /* \"@openzeppelin/contracts/token/ERC20/ERC20.sol\":6386:6436  ERC20InsufficientBalance(from, fromBalance, value) */\n  0x04\n  dup3\n  add\n    /* \"#utility.yul\":5917:5968   */\n  mstore\n    /* \"#utility.yul\":5984:6002   */\n  0x24\n  dup2\n  add\n    /* \"#utility.yul\":5977:6011   */\n  dup3\n  swap1\n  mstore\n    /* \"#utility.yul\":6027:6045   */\n  0x44\n  dup2\n  add\n    /* \"#utility.yul\":6020:6054   */\n  dup4\n  swap1\n  mstore\n    /* \"#utility.yul\":5890:5908   */\n  0x64\n  add\n    /* \"@openzeppelin/contracts/token/ERC20/ERC20.sol\":6386:6436  ERC20InsufficientBalance(from, fromBalance, value) */\n  tag_16\n    /* \"#utility.yul\":5715:6060   */\n  jump\n    /* \"@openzeppelin/contracts/token/ERC20/ERC20.sol\":6336:6451  if (fromBalance < value) {... */\ntag_89:\n  sub(shl(0xa0, 0x01), 0x01)\n    /* \"@openzeppelin/contracts/token/ERC20/ERC20.sol\":6571:6586  _balances[from] */\n  dup5\n  and\n    /* \"@openzeppelin/contracts/token/ERC20/ERC20.sol\":6571:6580  _balances */\n  0x00\n    /* \"@openzeppelin/contracts/token/ERC20/ERC20.sol\":6571:6586  _balances[from] */\n  swap1\n  dup2\n  mstore\n  0x20\n  dup2\n  swap1\n  mstore\n  0x40\n  swap1\n  keccak256\n    /* \"@openzeppelin/contracts/token/ERC20/ERC20.sol\":6589:6608  fromBalance - value */\n  swap1\n  dup3\n  swap1\n  sub\n    /* \"@openzeppelin/contracts/token/ERC20/ERC20.sol\":6571:6608  _balances[from] = fromBalance - value */\n  swap1\n  sstore\n    /* \"@openzeppelin/contracts/token/ERC20/ERC20.sol\":6093:6633  if (from == address(0)) {... */\ntag_88:\n  sub(shl(0xa0, 0x01), 0x01)\n    /* \"@openzeppelin/contracts/token/ERC20/ERC20.sol\":6647:6663  to == address(0) */\n  dup3\n  and\n    /* \"@openzeppelin/contracts/token/ERC20/ERC20.sol\":6643:7068  if (to == address(0)) {... */\n  tag_92\n  jumpi\n    /* \"@openzeppelin/contracts/token/ERC20/ERC20.sol\":6810:6822  _totalSupply */\n  0x02\n    /* \"@openzeppelin/contracts/token/ERC20/ERC20.sol\":6810:6831  _totalSupply -= value */\n  dup1\n  sload\n  dup3\n  swap1\n  sub\n  swap1\n  sstore\n    /* \"@openzeppelin/contracts/token/ERC20/ERC20.sol\":6643:7068  if (to == address(0)) {... */\n  jump(tag_93)\ntag_92:\n  sub(shl(0xa0, 0x01), 0x01)\n    /* \"@openzeppelin/contracts/token/ERC20/ERC20.sol\":7021:7034  _balances[to] */\n  dup3\n  and\n    /* \"@openzeppelin/contracts/token/ERC20/ERC20.sol\":7021:7030  _balances */\n  0x00\n    /* \"@openzeppelin/contracts/token/ERC20/ERC20.sol\":7021:7034  _balances[to] */\n  swap1\n  dup2\n  mstore\n  0x20\n  dup2\n  swap1\n  mstore\n  0x40\n  swap1\n  keccak256\n    /* \"@openzeppelin/contracts/token/ERC20/ERC20.sol\":7021:7043  _balances[to] += value */\n  dup1\n  sload\n  dup3\n  add\n  swap1\n  sstore\n    /* \"@openzeppelin/contracts/token/ERC20/ERC20.sol\":6643:7068  if (to == address(0)) {... */\ntag_93:\n    /* \"@openzeppelin/contracts/token/ERC20/ERC20.sol\":7098:7100  to */\n  dup2\n  sub(shl(0xa0, 0x01), 0x01)\n    /* \"@openzeppelin/contracts/token/ERC20/ERC20.sol\":7083:7108  Transfer(from, to, value) */\n  and\n    /* \"@openzeppelin/contracts/token/ERC20/ERC20.sol\":7092:7096  from */\n  dup4\n  sub(shl(0xa0, 0x01), 0x01)\n    /* \"@openzeppelin/contracts/token/ERC20/ERC20.sol\":7083:7108  Transfer(from, to, value) */\n  and\n  0xddf252ad1be2c89b69c2b068fc378daa952ba7f163c4a11628f55a4df523b3ef\n    /* \"@openzeppelin/contracts/token/ERC20/ERC20.sol\":7102:7107  value */\n  dup4\n    /* \"@openzeppelin/contracts/token/ERC20/ERC20.sol\":7083:7108  Transfer(from, to, value) */\n  mload(0x40)\n  tag_94\n  swap2\n    /* \"#utility.yul\":6211:6236   */\n  dup2\n  mstore\n    /* \"#utility.yul\":6199:6201   */\n  0x20\n    /* \"#utility.yul\":6184:6202   */\n  add\n  swap1\n    /* \"#utility.yul\":6065:6242   */\n  jump\n    /* \"@openzeppelin/contracts/token/ERC20/ERC20.sol\":7083:7108  Transfer(from, to, value) */\ntag_94:\n  mload(0x40)\n  dup1\n  swap2\n  sub\n  swap1\n  log3\n    /* \"@openzeppelin/contracts/token/ERC20/ERC20.sol\":6008:7115  function _update(address from, address to, uint256 value) internal virtual {... */\n  pop\n  pop\n  pop\n  jump\t// out\n    /* \"#utility.yul\":14:304   */\ntag_3:\n    /* \"#utility.yul\":84:90   */\n  0x00\n    /* \"#utility.yul\":137:139   */\n  0x20\n    /* \"#utility.yul\":125:134   */\n  dup3\n    /* \"#utility.yul\":116:123   */\n  dup5\n    /* \"#utility.yul\":112:135   */\n  sub\n    /* \"#utility.yul\":108:140   */\n  slt\n    /* \"#utility.yul\":105:157   */\n  iszero\n  tag_106\n  jumpi\n    /* \"#utility.yul\":153:154   */\n  0x00\n    /* \"#utility.yul\":150:151   */\n  0x00\n    /* \"#utility.yul\":143:155   */\n  revert\n    /* \"#utility.yul\":105:157   */\ntag_106:\n    /* \"#utility.yul\":179:195   */\n  dup2\n  mload\n  sub(shl(0xa0, 0x01), 0x01)\n    /* \"#utility.yul\":224:255   */\n  dup2\n  and\n    /* \"#utility.yul\":214:256   */\n  dup2\n  eq\n    /* \"#utility.yul\":204:274   */\n  tag_107\n  jumpi\n    /* \"#utility.yul\":270:271   */\n  0x00\n    /* \"#utility.yul\":267:268   */\n  0x00\n    /* \"#utility.yul\":260:272   */\n  revert\n    /* \"#utility.yul\":204:274   */\ntag_107:\n    /* \"#utility.yul\":293:298   */\n  swap4\n    /* \"#utility.yul\":14:304   */\n  swap3\n  pop\n  pop\n  pop\n  jump\t// out\n    /* \"#utility.yul\":309:436   */\ntag_98:\n    /* \"#utility.yul\":370:380   */\n  0x4e487b71\n    /* \"#utility.yul\":365:368   */\n  0xe0\n    /* \"#utility.yul\":361:381   */\n  shl\n    /* \"#utility.yul\":358:359   */\n  0x00\n    /* \"#utility.yul\":351:382   */\n  mstore\n    /* \"#utility.yul\":401:405   */\n  0x41\n    /* \"#utility.yul\":398:399   */\n  0x04\n    /* \"#utility.yul\":391:406   */\n  mstore\n    /* \"#utility.yul\":425:429   */\n  0x24\n    /* \"#utility.yul\":422:423   */\n  0x00\n    /* \"#utility.yul\":415:430   */\n  revert\n    /* \"#utility.yul\":441:821   */\ntag_99:\n    /* \"#utility.yul\":520:521   */\n  0x01\n    /* \"#utility.yul\":516:528   */\n  dup2\n  dup2\n  shr\n  swap1\n    /* \"#utility.yul\":563:575   */\n  dup3\n  and\n  dup1\n    /* \"#utility.yul\":584:645   */\n  tag_110\n  jumpi\n    /* \"#utility.yul\":638:642   */\n  0x7f\n    /* \"#utility.yul\":630:636   */\n  dup3\n    /* \"#utility.yul\":626:643   */\n  and\n    /* \"#utility.yul\":616:643   */\n  swap2\n  pop\n    /* \"#utility.yul\":584:645   */\ntag_110:\n    /* \"#utility.yul\":691:693   */\n  0x20\n    /* \"#utility.yul\":683:689   */\n  dup3\n    /* \"#utility.yul\":680:694   */\n  lt\n    /* \"#utility.yul\":660:678   */\n  dup2\n    /* \"#utility.yul\":657:695   */\n  sub\n    /* \"#utility.yul\":654:815   */\n  tag_111\n  jumpi\n    /* \"#utility.yul\":737:747   */\n  0x4e487b71\n    /* \"#utility.yul\":732:735   */\n  0xe0\n    /* \"#utility.yul\":728:748   */\n  shl\n    /* \"#utility.yul\":725:726   */\n  0x00\n    /* \"#utility.yul\":718:749   */\n  mstore\n    /* \"#utility.yul\":772:776   */\n  0x22\n    /* \"#utility.yul\":769:770   */\n  0x04\n    /* \"#utility.yul\":762:777   */\n  mstore\n    /* \"#utility.yul\":800:804   */\n  0x24\n    /* \"#utility.yul\":797:798   */\n  0x00\n    /* \"#utility.yul\":790:805   */\n  revert\n    /* \"#utility.yul\":654:815   */\ntag_111:\n  pop\n    /* \"#utility.yul\":441:821   */\n  swap2\n  swap1\n  pop\n  jump\t// out\n    /* \"#utility.yul\":952:1470   */\ntag_101:\n    /* \"#utility.yul\":1054:1056   */\n  0x1f\n    /* \"#utility.yul\":1049:1052   */\n  dup3\n    /* \"#utility.yul\":1046:1057   */\n  gt\n    /* \"#utility.yul\":1043:1464   */\n  iszero\n  tag_48\n  jumpi\n    /* \"#utility.yul\":1090:1095   */\n  dup1\n    /* \"#utility.yul\":1087:1088   */\n  0x00\n    /* \"#utility.yul\":1080:1096   */\n  mstore\n    /* \"#utility.yul\":1134:1138   */\n  0x20\n    /* \"#utility.yul\":1131:1132   */\n  0x00\n    /* \"#utility.yul\":1121:1139   */\n  keccak256\n    /* \"#utility.yul\":1204:1206   */\n  0x1f\n    /* \"#utility.yul\":1192:1202   */\n  dup5\n    /* \"#utility.yul\":1188:1207   */\n  add\n    /* \"#utility.yul\":1185:1186   */\n  0x05\n    /* \"#utility.yul\":1181:1208   */\n  shr\n    /* \"#utility.yul\":1175:1179   */\n  dup2\n    /* \"#utility.yul\":1171:1209   */\n  add\n    /* \"#utility.yul\":1240:1244   */\n  0x20\n    /* \"#utility.yul\":1228:1238   */\n  dup6\n    /* \"#utility.yul\":1225:1245   */\n  lt\n    /* \"#utility.yul\":1222:1269   */\n  iszero\n  tag_115\n  jumpi\n  pop\n    /* \"#utility.yul\":1263:1267   */\n  dup1\n    /* \"#utility.yul\":1222:1269   */\ntag_115:\n    /* \"#utility.yul\":1318:1320   */\n  0x1f\n    /* \"#utility.yul\":1313:1316   */\n  dup5\n    /* \"#utility.yul\":1309:1321   */\n  add\n    /* \"#utility.yul\":1306:1307   */\n  0x05\n    /* \"#utility.yul\":1302:1322   */\n  shr\n    /* \"#utility.yul\":1296:1300   */\n  dup3\n    /* \"#utility.yul\":1292:1323   */\n  add\n    /* \"#utility.yul\":1282:1323   */\n  swap2\n  pop\n    /* \"#utility.yul\":1373:1454   */\ntag_116:\n    /* \"#utility.yul\":1391:1393   */\n  dup2\n    /* \"#utility.yul\":1384:1389   */\n  dup2\n    /* \"#utility.yul\":1381:1394   */\n  lt\n    /* \"#utility.yul\":1373:1454   */\n  iszero\n  tag_118\n  jumpi\n    /* \"#utility.yul\":1450:1451   */\n  0x00\n    /* \"#utility.yul\":1436:1452   */\n  dup2\n  sstore\n    /* \"#utility.yul\":1417:1418   */\n  0x01\n    /* \"#utility.yul\":1406:1419   */\n  add\n    /* \"#utility.yul\":1373:1454   */\n  jump(tag_116)\ntag_118:\n    /* \"#utility.yul\":1377:1380   */\n  pop\n  pop\n    /* \"#utility.yul\":952:1470   */\n  pop\n  pop\n  pop\n  jump\t// out\n    /* \"#utility.yul\":1646:2945   */\ntag_10:\n    /* \"#utility.yul\":1766:1776   */\n  dup2\n  mload\n  sub(shl(0x40, 0x01), 0x01)\n    /* \"#utility.yul\":1788:1818   */\n  dup2\n  gt\n    /* \"#utility.yul\":1785:1841   */\n  iszero\n  tag_122\n  jumpi\n    /* \"#utility.yul\":1821:1839   */\n  tag_122\n  tag_98\n  jump\t// in\ntag_122:\n    /* \"#utility.yul\":1850:1947   */\n  tag_123\n    /* \"#utility.yul\":1940:1946   */\n  dup2\n    /* \"#utility.yul\":1900:1938   */\n  tag_124\n    /* \"#utility.yul\":1932:1936   */\n  dup5\n    /* \"#utility.yul\":1926:1937   */\n  sload\n    /* \"#utility.yul\":1900:1938   */\n  tag_99\n  jump\t// in\ntag_124:\n    /* \"#utility.yul\":1894:1898   */\n  dup5\n    /* \"#utility.yul\":1850:1947   */\n  tag_101\n  jump\t// in\ntag_123:\n    /* \"#utility.yul\":1996:2000   */\n  0x20\n    /* \"#utility.yul\":2027:2029   */\n  0x1f\n    /* \"#utility.yul\":2016:2030   */\n  dup3\n  gt\n    /* \"#utility.yul\":2044:2045   */\n  0x01\n    /* \"#utility.yul\":2039:2688   */\n  dup2\n  eq\n  tag_126\n  jumpi\n    /* \"#utility.yul\":2732:2733   */\n  0x00\n    /* \"#utility.yul\":2749:2755   */\n  dup4\n    /* \"#utility.yul\":2746:2835   */\n  iszero\n  tag_127\n  jumpi\n  pop\n    /* \"#utility.yul\":2801:2820   */\n  dup5\n  dup3\n  add\n    /* \"#utility.yul\":2795:2821   */\n  mload\n    /* \"#utility.yul\":2746:2835   */\ntag_127:\n  not(0x00)\n    /* \"#utility.yul\":1603:1604   */\n  0x03\n    /* \"#utility.yul\":1599:1610   */\n  dup6\n  swap1\n  shl\n    /* \"#utility.yul\":1595:1619   */\n  shr\n    /* \"#utility.yul\":1591:1620   */\n  not\n    /* \"#utility.yul\":1581:1621   */\n  and\n    /* \"#utility.yul\":1627:1628   */\n  0x01\n    /* \"#utility.yul\":1623:1634   */\n  dup5\n  swap1\n  shl\n    /* \"#utility.yul\":1578:1635   */\n  or\n    /* \"#utility.yul\":2848:2929   */\n  dup5\n  sstore\n    /* \"#utility.yul\":2009:2939   */\n  jump(tag_118)\n    /* \"#utility.yul\":2039:2688   */\ntag_126:\n    /* \"#utility.yul\":899:900   */\n  0x00\n    /* \"#utility.yul\":892:906   */\n  dup5\n  dup2\n  mstore\n    /* \"#utility.yul\":936:940   */\n  0x20\n    /* \"#utility.yul\":923:941   */\n  dup2\n  keccak256\n  not(0x1f)\n    /* \"#utility.yul\":2075:2095   */\n  dup6\n  and\n  swap2\n    /* \"#utility.yul\":2193:2415   */\ntag_130:\n    /* \"#utility.yul\":2207:2214   */\n  dup3\n    /* \"#utility.yul\":2204:2205   */\n  dup2\n    /* \"#utility.yul\":2201:2215   */\n  lt\n    /* \"#utility.yul\":2193:2415   */\n  iszero\n  tag_132\n  jumpi\n    /* \"#utility.yul\":2289:2308   */\n  dup8\n  dup6\n  add\n    /* \"#utility.yul\":2283:2309   */\n  mload\n    /* \"#utility.yul\":2268:2310   */\n  dup3\n  sstore\n    /* \"#utility.yul\":2396:2400   */\n  0x20\n    /* \"#utility.yul\":2381:2401   */\n  swap5\n  dup6\n  add\n  swap5\n    /* \"#utility.yul\":2349:2350   */\n  0x01\n    /* \"#utility.yul\":2337:2351   */\n  swap1\n  swap3\n  add\n  swap2\n    /* \"#utility.yul\":2223:2235   */\n  add\n    /* \"#utility.yul\":2193:2415   */\n  jump(tag_130)\ntag_132:\n    /* \"#utility.yul\":2197:2200   */\n  pop\n    /* \"#utility.yul\":2443:2449   */\n  dup5\n    /* \"#utility.yul\":2434:2441   */\n  dup3\n    /* \"#utility.yul\":2431:2450   */\n  lt\n    /* \"#utility.yul\":2428:2629   */\n  iszero\n  tag_133\n  jumpi\n    /* \"#utility.yul\":2504:2523   */\n  dup7\n  dup5\n  add\n    /* \"#utility.yul\":2498:2524   */\n  mload\n  not(0x00)\n    /* \"#utility.yul\":2587:2588   */\n  0x03\n    /* \"#utility.yul\":2583:2597   */\n  dup8\n  swap1\n  shl\n    /* \"#utility.yul\":2599:2602   */\n  0xf8\n    /* \"#utility.yul\":2579:2603   */\n  and\n    /* \"#utility.yul\":2575:2612   */\n  shr\n    /* \"#utility.yul\":2571:2613   */\n  not\n    /* \"#utility.yul\":2556:2614   */\n  and\n    /* \"#utility.yul\":2541:2615   */\n  dup2\n  sstore\n    /* \"#utility.yul\":2428:2629   */\ntag_133:\n  pop\n  pop\n  pop\n  pop\n    /* \"#utility.yul\":2675:2676   */\n  0x01\n    /* \"#utility.yul\":2659:2673   */\n  swap1\n  dup2\n  shl\n    /* \"#utility.yul\":2655:2677   */\n  add\n    /* \"#utility.yul\":2642:2678   */\n  swap1\n  sstore\n  pop\n    /* \"#utility.yul\":1646:2945   */\n  jump\t// out\n    /* \"#utility.yul\":3310:3437   */\ntag_103:\n    /* \"#utility.yul\":3371:3381   */\n  0x4e487b71\n    /* \"#utility.yul\":3366:3369   */\n  0xe0\n    /* \"#utility.yul\":3362:3382   */\n  shl\n    /* \"#utility.yul\":3359:3360   */\n  0x00\n    /* \"#utility.yul\":3352:3383   */\n  mstore\n    /* \"#utility.yul\":3402:3406   */\n  0x11\n    /* \"#utility.yul\":3399:3400   */\n  0x04\n    /* \"#utility.yul\":3392:3407   */\n  mstore\n    /* \"#utility.yul\":3426:3430   */\n  0x24\n    /* \"#utility.yul\":3423:3424   */\n  0x00\n    /* \"#utility.yul\":3416:3431   */\n  revert\n    /* \"#utility.yul\":3442:3659   */\ntag_22:\n    /* \"#utility.yul\":3482:3483   */\n  0x00\n    /* \"#utility.yul\":3508:3509   */\n  dup3\n    /* \"#utility.yul\":3498:3630   */\n  tag_137\n  jumpi\n    /* \"#utility.yul\":3552:3562   */\n  0x4e487b71\n    /* \"#utility.yul\":3547:3550   */\n  0xe0\n    /* \"#utility.yul\":3543:3563   */\n  shl\n    /* \"#utility.yul\":3540:3541   */\n  0x00\n    /* \"#utility.yul\":3533:3564   */\n  mstore\n    /* \"#utility.yul\":3587:3591   */\n  0x12\n    /* \"#utility.yul\":3584:3585   */\n  0x04\n    /* \"#utility.yul\":3577:3592   */\n  mstore\n    /* \"#utility.yul\":3615:3619   */\n  0x24\n    /* \"#utility.yul\":3612:3613   */\n  0x00\n    /* \"#utility.yul\":3605:3620   */\n  revert\n    /* \"#utility.yul\":3498:3630   */\ntag_137:\n  pop\n    /* \"#utility.yul\":3644:3653   */\n  div\n  swap1\n    /* \"#utility.yul\":3442:3659   */\n  jump\t// out\n    /* \"#utility.yul\":4582:4707   */\ntag_62:\n    /* \"#utility.yul\":4647:4656   */\n  dup1\n  dup3\n  add\n    /* \"#utility.yul\":4668:4678   */\n  dup1\n  dup3\n  gt\n    /* \"#utility.yul\":4665:4701   */\n  iszero\n  tag_33\n  jumpi\n    /* \"#utility.yul\":4681:4699   */\n  tag_33\n  tag_103\n  jump\t// in\n    /* \"#utility.yul\":5064:5232   */\ntag_67:\n    /* \"#utility.yul\":5137:5146   */\n  dup1\n  dup3\n  mul\n    /* \"#utility.yul\":5168:5177   */\n  dup2\n  iszero\n    /* \"#utility.yul\":5185:5200   */\n  dup3\n  dup3\n  div\n    /* \"#utility.yul\":5179:5201   */\n  dup5\n  eq\n    /* \"#utility.yul\":5165:5202   */\n  or\n    /* \"#utility.yul\":5155:5226   */\n  tag_33\n  jumpi\n    /* \"#utility.yul\":5206:5224   */\n  tag_33\n  tag_103\n  jump\t// in\n    /* \"#utility.yul\":5237:5365   */\ntag_77:\n    /* \"#utility.yul\":5304:5313   */\n  dup2\n  dup2\n  sub\n    /* \"#utility.yul\":5325:5336   */\n  dup2\n  dup2\n  gt\n    /* \"#utility.yul\":5322:5359   */\n  iszero\n  tag_33\n  jumpi\n    /* \"#utility.yul\":5339:5357   */\n  tag_33\n  tag_103\n  jump\t// in\n    /* \"#utility.yul\":6065:6242   */\ntag_104:\n    /* \"contracts/LGG.sol\":377:5311  contract LGGToken is ERC20, ERC20Burnable, AccessControl, Pausable, ReentrancyGuard {... */\n  dataSize(sub_0)\n  dup1\n  dataOffset(sub_0)\n  0x00\n  codecopy\n  0x00\n  return\nstop\n\nsub_0: assembly {\n        /* \"contracts/LGG.sol\":377:5311  contract LGGToken is ERC20, ERC20Burnable, AccessControl, Pausable, ReentrancyGuard {... */\n      mstore(0x40, 0x80)\n      callvalue\n      dup1\n      iszero\n      tag_1\n      jumpi\n      revert(0x00, 0x00)\n    tag_1:\n      pop\n      jumpi(tag_2, lt(calldatasize, 0x04))\n      shr(0xe0, calldataload(0x00))\n      dup1\n      0x6b67c4df\n      gt\n      tag_37\n      jumpi\n      dup1\n      0x95d89b41\n      gt\n      tag_38\n      jumpi\n      dup1\n      0xa9059cbb\n      gt\n      tag_39\n      jumpi\n      dup1\n      0xa9059cbb\n      eq\n      tag_32\n      jumpi\n      dup1\n      0xc8c8ebe4\n      eq\n      tag_33\n      jumpi\n      dup1\n      0xd547741f\n      eq\n      tag_34\n      jumpi\n      dup1\n      0xdd62ed3e\n      eq\n      tag_35\n      jumpi\n      dup1\n      0xfe575a87\n      eq\n      tag_36\n      jumpi\n      revert(0x00, 0x00)\n    tag_39:\n      dup1\n      0x95d89b41\n      eq\n      tag_28\n      jumpi\n      dup1\n      0x98118cb4\n      eq\n      tag_29\n      jumpi\n      dup1\n      0x9d913ef5\n      eq\n      tag_30\n      jumpi\n      dup1\n      0xa217fddf\n      eq\n      tag_31\n      jumpi\n      revert(0x00, 0x00)\n    tag_38:\n      dup1\n      0x79cc6790\n      gt\n      tag_40\n      jumpi\n      dup1\n      0x79cc6790\n      eq\n      tag_24\n      jumpi\n      dup1\n      0x8456cb59\n      eq\n      tag_25\n      jumpi\n      dup1\n      0x8f3fa860\n      eq\n      tag_26\n      jumpi\n      dup1\n      0x91d14854\n      eq\n      tag_27\n      jumpi\n      revert(0x00, 0x00)\n    tag_40:\n      dup1\n      0x6b67c4df\n      eq\n      tag_20\n      jumpi\n      dup1\n      0x70a08231\n      eq\n      tag_21\n      jumpi\n      dup1\n      0x75b238fc\n      eq\n      tag_22\n      jumpi\n      dup1\n      0x75f0a874\n      eq\n      tag_23\n      jumpi\n      revert(0x00, 0x00)\n    tag_37:\n      dup1\n      0x2f2ff15d\n      gt\n      tag_41\n      jumpi\n      dup1\n      0x3f4ba83a\n      gt\n      tag_42\n      jumpi\n      dup1\n      0x3f4ba83a\n      eq\n      tag_15\n      jumpi\n      dup1\n      0x42966c68\n      eq\n      tag_16\n      jumpi\n      dup1\n      0x5342acb4\n      eq\n      tag_17\n      jumpi\n      dup1\n      0x5c975abb\n      eq\n      tag_18\n      jumpi\n      dup1\n      0x5d098b38\n      eq\n      tag_19\n      jumpi\n      revert(0x00, 0x00)\n    tag_42:\n      dup1\n      0x2f2ff15d\n      eq\n      tag_11\n      jumpi\n      dup1\n      0x30b94cd5\n      eq\n      tag_12\n      jumpi\n      dup1\n      0x313ce567\n      eq\n      tag_13\n      jumpi\n      dup1\n      0x36568abe\n      eq\n      tag_14\n      jumpi\n      revert(0x00, 0x00)\n    tag_41:\n      dup1\n      0x153b0d1e\n      gt\n      tag_43\n      jumpi\n      dup1\n      0x153b0d1e\n      eq\n      tag_7\n      jumpi\n      dup1\n      0x18160ddd\n      eq\n      tag_8\n      jumpi\n      dup1\n      0x23b872dd\n      eq\n      tag_9\n      jumpi\n      dup1\n      0x248a9ca3\n      eq\n      tag_10\n      jumpi\n      revert(0x00, 0x00)\n    tag_43:\n      dup1\n      0x01ffc9a7\n      eq\n      tag_3\n      jumpi\n      dup1\n      0x06fdde03\n      eq\n      tag_4\n      jumpi\n      dup1\n      0x095ea7b3\n      eq\n      tag_5\n      jumpi\n      dup1\n      0x0b78f9c0\n      eq\n      tag_6\n      jumpi\n    tag_2:\n      revert(0x00, 0x00)\n        /* \"contracts/LGG.sol\":5107:5308  function supportsInterface(bytes4 interfaceId)... */\n    tag_3:\n      tag_44\n      tag_45\n      calldatasize\n      0x04\n      tag_46\n      jump\t// in\n    tag_45:\n      tag_47\n      jump\t// in\n    tag_44:\n      mload(0x40)\n        /* \"#utility.yul\":470:484   */\n      swap1\n      iszero\n        /* \"#utility.yul\":463:485   */\n      iszero\n        /* \"#utility.yul\":445:486   */\n      dup2\n      mstore\n        /* \"#utility.yul\":433:435   */\n      0x20\n        /* \"#utility.yul\":418:436   */\n      add\n        /* \"contracts/LGG.sol\":5107:5308  function supportsInterface(bytes4 interfaceId)... */\n    tag_48:\n      mload(0x40)\n      dup1\n      swap2\n      sub\n      swap1\n      return\n        /* \"@openzeppelin/contracts/token/ERC20/ERC20.sol\":1779:1868  function name() public view virtual returns (string memory) {... */\n    tag_4:\n      tag_50\n      tag_51\n      jump\t// in\n    tag_50:\n      mload(0x40)\n      tag_48\n      swap2\n      swap1\n      tag_53\n      jump\t// in\n        /* \"@openzeppelin/contracts/token/ERC20/ERC20.sol\":3998:4184  function approve(address spender, uint256 value) public virtual returns (bool) {... */\n    tag_5:\n      tag_44\n      tag_55\n      calldatasize\n      0x04\n      tag_56\n      jump\t// in\n    tag_55:\n      tag_57\n      jump\t// in\n        /* \"contracts/LGG.sol\":3698:4021  function setFees(uint256 _marketingFee, uint256 _liquidityFee) external onlyRole(ADMIN_ROLE) {... */\n    tag_6:\n      tag_59\n      tag_60\n      calldatasize\n      0x04\n      tag_61\n      jump\t// in\n    tag_60:\n      tag_62\n      jump\t// in\n    tag_59:\n      stop\n        /* \"contracts/LGG.sol\":4481:4677  function setBlacklist(address account, bool blacklisted) external onlyRole(ADMIN_ROLE) {... */\n    tag_7:\n      tag_59\n      tag_64\n      calldatasize\n      0x04\n      tag_65\n      jump\t// in\n    tag_64:\n      tag_66\n      jump\t// in\n        /* \"@openzeppelin/contracts/token/ERC20/ERC20.sol\":2849:2946  function totalSupply() public view virtual returns (uint256) {... */\n    tag_8:\n        /* \"@openzeppelin/contracts/token/ERC20/ERC20.sol\":2927:2939  _totalSupply */\n      sload(0x02)\n        /* \"@openzeppelin/contracts/token/ERC20/ERC20.sol\":2849:2946  function totalSupply() public view virtual returns (uint256) {... */\n    tag_67:\n      mload(0x40)\n        /* \"#utility.yul\":2252:2277   */\n      swap1\n      dup2\n      mstore\n        /* \"#utility.yul\":2240:2242   */\n      0x20\n        /* \"#utility.yul\":2225:2243   */\n      add\n        /* \"@openzeppelin/contracts/token/ERC20/ERC20.sol\":2849:2946  function totalSupply() public view virtual returns (uint256) {... */\n      tag_48\n        /* \"#utility.yul\":2106:2283   */\n      jump\n        /* \"@openzeppelin/contracts/token/ERC20/ERC20.sol\":4776:5020  function transferFrom(address from, address to, uint256 value) public virtual returns (bool) {... */\n    tag_9:\n      tag_44\n      tag_72\n      calldatasize\n      0x04\n      tag_73\n      jump\t// in\n    tag_72:\n      tag_74\n      jump\t// in\n        /* \"@openzeppelin/contracts/access/AccessControl.sol\":3810:3930  function getRoleAdmin(bytes32 role) public view virtual returns (bytes32) {... */\n    tag_10:\n      tag_67\n      tag_77\n      calldatasize\n      0x04\n      tag_78\n      jump\t// in\n    tag_77:\n        /* \"@openzeppelin/contracts/access/AccessControl.sol\":3875:3882  bytes32 */\n      0x00\n        /* \"@openzeppelin/contracts/access/AccessControl.sol\":3901:3913  _roles[role] */\n      swap1\n      dup2\n      mstore\n        /* \"@openzeppelin/contracts/access/AccessControl.sol\":3901:3907  _roles */\n      0x05\n        /* \"@openzeppelin/contracts/access/AccessControl.sol\":3901:3913  _roles[role] */\n      0x20\n      mstore\n      0x40\n      swap1\n      keccak256\n        /* \"@openzeppelin/contracts/access/AccessControl.sol\":3901:3923  _roles[role].adminRole */\n      0x01\n      add\n      sload\n      swap1\n        /* \"@openzeppelin/contracts/access/AccessControl.sol\":3810:3930  function getRoleAdmin(bytes32 role) public view virtual returns (bytes32) {... */\n      jump\n        /* \"@openzeppelin/contracts/access/AccessControl.sol\":4226:4362  function grantRole(bytes32 role, address account) public virtual onlyRole(getRoleAdmin(role)) {... */\n    tag_11:\n      tag_59\n      tag_83\n      calldatasize\n      0x04\n      tag_84\n      jump\t// in\n    tag_83:\n      tag_85\n      jump\t// in\n        /* \"contracts/LGG.sol\":4722:4865  function setFeeExclusion(address account, bool excluded) external onlyRole(ADMIN_ROLE) {... */\n    tag_12:\n      tag_59\n      tag_87\n      calldatasize\n      0x04\n      tag_65\n      jump\t// in\n    tag_87:\n      tag_88\n      jump\t// in\n        /* \"@openzeppelin/contracts/token/ERC20/ERC20.sol\":2707:2789  function decimals() public view virtual returns (uint8) {... */\n    tag_13:\n      mload(0x40)\n        /* \"@openzeppelin/contracts/token/ERC20/ERC20.sol\":2780:2782  18 */\n      0x12\n        /* \"#utility.yul\":3527:3563   */\n      dup2\n      mstore\n        /* \"#utility.yul\":3515:3517   */\n      0x20\n        /* \"#utility.yul\":3500:3518   */\n      add\n        /* \"@openzeppelin/contracts/token/ERC20/ERC20.sol\":2707:2789  function decimals() public view virtual returns (uint8) {... */\n      tag_48\n        /* \"#utility.yul\":3385:3569   */\n      jump\n        /* \"@openzeppelin/contracts/access/AccessControl.sol\":5328:5573  function renounceRole(bytes32 role, address callerConfirmation) public virtual {... */\n    tag_14:\n      tag_59\n      tag_94\n      calldatasize\n      0x04\n      tag_84\n      jump\t// in\n    tag_94:\n      tag_95\n      jump\t// in\n        /* \"contracts/LGG.sol\":4991:5069  function unpause() external onlyRole(ADMIN_ROLE) {... */\n    tag_15:\n      tag_59\n      tag_97\n      jump\t// in\n        /* \"@openzeppelin/contracts/token/ERC20/extensions/ERC20Burnable.sol\":618:705  function burn(uint256 value) public virtual {... */\n    tag_16:\n      tag_59\n      tag_99\n      calldatasize\n      0x04\n      tag_78\n      jump\t// in\n    tag_99:\n      tag_101\n      jump\t// in\n        /* \"contracts/LGG.sol\":934:983  mapping(address => bool) public isExcludedFromFee */\n    tag_17:\n      tag_44\n      tag_103\n      calldatasize\n      0x04\n      tag_104\n      jump\t// in\n    tag_103:\n      mstore(0x20, 0x0d)\n      0x00\n      swap1\n      dup2\n      mstore\n      0x40\n      swap1\n      keccak256\n      sload\n      0xff\n      and\n      dup2\n      jump\n        /* \"@openzeppelin/contracts/security/Pausable.sol\":1615:1699  function paused() public view virtual returns (bool) {... */\n    tag_18:\n        /* \"@openzeppelin/contracts/security/Pausable.sol\":1685:1692  _paused */\n      and(0xff, sload(0x06))\n        /* \"@openzeppelin/contracts/security/Pausable.sol\":1615:1699  function paused() public view virtual returns (bool) {... */\n      jump(tag_44)\n        /* \"contracts/LGG.sol\":3408:3686  function setMarketingWallet(address _marketingWallet) external onlyRole(ADMIN_ROLE) {... */\n    tag_19:\n      tag_59\n      tag_111\n      calldatasize\n      0x04\n      tag_104\n      jump\t// in\n    tag_111:\n      tag_112\n      jump\t// in\n        /* \"contracts/LGG.sol\":680:711  uint256 public marketingFee = 2 */\n    tag_20:\n      tag_67\n      sload(0x08)\n      dup2\n      jump\n        /* \"@openzeppelin/contracts/token/ERC20/ERC20.sol\":3004:3120  function balanceOf(address account) public view virtual returns (uint256) {... */\n    tag_21:\n      tag_67\n      tag_117\n      calldatasize\n      0x04\n      tag_104\n      jump\t// in\n    tag_117:\n      sub(shl(0xa0, 0x01), 0x01)\n        /* \"@openzeppelin/contracts/token/ERC20/ERC20.sol\":3095:3113  _balances[account] */\n      and\n        /* \"@openzeppelin/contracts/token/ERC20/ERC20.sol\":3069:3076  uint256 */\n      0x00\n        /* \"@openzeppelin/contracts/token/ERC20/ERC20.sol\":3095:3113  _balances[account] */\n      swap1\n      dup2\n      mstore\n      0x20\n      dup2\n      swap1\n      mstore\n      0x40\n      swap1\n      keccak256\n      sload\n      swap1\n        /* \"@openzeppelin/contracts/token/ERC20/ERC20.sol\":3004:3120  function balanceOf(address account) public view virtual returns (uint256) {... */\n      jump\n        /* \"contracts/LGG.sol\":468:528  bytes32 public constant ADMIN_ROLE = keccak256(\"ADMIN_ROLE\") */\n    tag_22:\n      tag_67\n      mload(0x00)\n      codecopy(0x00, data_cb864c43dd5d441bb6271f424f11befa622c032dfd374d226e26fbbdb782b8f8, 0x20)\n      mload(0x00)\n      swap1\n      0x00\n      mstore\n      dup2\n      jump\n        /* \"contracts/LGG.sol\":768:798  address public marketingWallet */\n    tag_23:\n      sload(0x0a)\n      tag_123\n      swap1\n      sub(shl(0xa0, 0x01), 0x01)\n      and\n      dup2\n      jump\n    tag_123:\n      mload(0x40)\n      sub(shl(0xa0, 0x01), 0x01)\n        /* \"#utility.yul\":4160:4192   */\n      swap1\n      swap2\n      and\n        /* \"#utility.yul\":4142:4193   */\n      dup2\n      mstore\n        /* \"#utility.yul\":4130:4132   */\n      0x20\n        /* \"#utility.yul\":4115:4133   */\n      add\n        /* \"contracts/LGG.sol\":768:798  address public marketingWallet */\n      tag_48\n        /* \"#utility.yul\":3996:4199   */\n      jump\n        /* \"@openzeppelin/contracts/token/ERC20/extensions/ERC20Burnable.sol\":1021:1179  function burnFrom(address account, uint256 value) public virtual {... */\n    tag_24:\n      tag_59\n      tag_128\n      calldatasize\n      0x04\n      tag_56\n      jump\t// in\n    tag_128:\n      tag_129\n      jump\t// in\n        /* \"contracts/LGG.sol\":4905:4979  function pause() external onlyRole(ADMIN_ROLE) {... */\n    tag_25:\n      tag_59\n      tag_131\n      jump\t// in\n        /* \"contracts/LGG.sol\":876:904  uint256 public maxWalletSize */\n    tag_26:\n      tag_67\n      sload(0x0c)\n      dup2\n      jump\n        /* \"@openzeppelin/contracts/access/AccessControl.sol\":2854:2990  function hasRole(bytes32 role, address account) public view virtual returns (bool) {... */\n    tag_27:\n      tag_44\n      tag_136\n      calldatasize\n      0x04\n      tag_84\n      jump\t// in\n    tag_136:\n      tag_137\n      jump\t// in\n        /* \"@openzeppelin/contracts/token/ERC20/ERC20.sol\":1981:2074  function symbol() public view virtual returns (string memory) {... */\n    tag_28:\n      tag_50\n      tag_140\n      jump\t// in\n        /* \"contracts/LGG.sol\":724:755  uint256 public liquidityFee = 3 */\n    tag_29:\n      tag_67\n      sload(0x09)\n      dup2\n      jump\n        /* \"contracts/LGG.sol\":4033:4440  function setMaxLimits(uint256 _maxTxAmount, uint256 _maxWalletSize) external onlyRole(ADMIN_ROLE) {... */\n    tag_30:\n      tag_59\n      tag_146\n      calldatasize\n      0x04\n      tag_61\n      jump\t// in\n    tag_146:\n      tag_147\n      jump\t// in\n        /* \"@openzeppelin/contracts/access/AccessControl.sol\":2187:2236  bytes32 public constant DEFAULT_ADMIN_ROLE = 0x00 */\n    tag_31:\n      tag_67\n        /* \"@openzeppelin/contracts/access/AccessControl.sol\":2232:2236  0x00 */\n      0x00\n        /* \"@openzeppelin/contracts/access/AccessControl.sol\":2187:2236  bytes32 public constant DEFAULT_ADMIN_ROLE = 0x00 */\n      dup2\n      jump\n        /* \"@openzeppelin/contracts/token/ERC20/ERC20.sol\":3315:3493  function transfer(address to, uint256 value) public virtual returns (bool) {... */\n    tag_32:\n      tag_44\n      tag_152\n      calldatasize\n      0x04\n      tag_56\n      jump\t// in\n    tag_152:\n      tag_153\n      jump\t// in\n        /* \"contracts/LGG.sol\":834:869  uint256 public maxTransactionAmount */\n    tag_33:\n      tag_67\n      sload(0x0b)\n      dup2\n      jump\n        /* \"@openzeppelin/contracts/access/AccessControl.sol\":4642:4780  function revokeRole(bytes32 role, address account) public virtual onlyRole(getRoleAdmin(role)) {... */\n    tag_34:\n      tag_59\n      tag_159\n      calldatasize\n      0x04\n      tag_84\n      jump\t// in\n    tag_159:\n      tag_160\n      jump\t// in\n        /* \"@openzeppelin/contracts/token/ERC20/ERC20.sol\":3551:3691  function allowance(address owner, address spender) public view virtual returns (uint256) {... */\n    tag_35:\n      tag_67\n      tag_162\n      calldatasize\n      0x04\n      tag_163\n      jump\t// in\n    tag_162:\n      sub(shl(0xa0, 0x01), 0x01)\n        /* \"@openzeppelin/contracts/token/ERC20/ERC20.sol\":3657:3675  _allowances[owner] */\n      swap2\n      dup3\n      and\n        /* \"@openzeppelin/contracts/token/ERC20/ERC20.sol\":3631:3638  uint256 */\n      0x00\n        /* \"@openzeppelin/contracts/token/ERC20/ERC20.sol\":3657:3675  _allowances[owner] */\n      swap1\n      dup2\n      mstore\n        /* \"@openzeppelin/contracts/token/ERC20/ERC20.sol\":3657:3668  _allowances */\n      0x01\n        /* \"@openzeppelin/contracts/token/ERC20/ERC20.sol\":3657:3675  _allowances[owner] */\n      0x20\n      swap1\n      dup2\n      mstore\n      0x40\n      dup1\n      dup4\n      keccak256\n        /* \"@openzeppelin/contracts/token/ERC20/ERC20.sol\":3657:3684  _allowances[owner][spender] */\n      swap4\n      swap1\n      swap5\n      and\n      dup3\n      mstore\n      swap2\n      swap1\n      swap2\n      mstore\n      keccak256\n      sload\n      swap1\n        /* \"@openzeppelin/contracts/token/ERC20/ERC20.sol\":3551:3691  function allowance(address owner, address spender) public view virtual returns (uint256) {... */\n      jump\n        /* \"contracts/LGG.sol\":990:1035  mapping(address => bool) public isBlacklisted */\n    tag_36:\n      tag_44\n      tag_167\n      calldatasize\n      0x04\n      tag_104\n      jump\t// in\n    tag_167:\n      mstore(0x20, 0x0e)\n      0x00\n      swap1\n      dup2\n      mstore\n      0x40\n      swap1\n      keccak256\n      sload\n      0xff\n      and\n      dup2\n      jump\n        /* \"contracts/LGG.sol\":5107:5308  function supportsInterface(bytes4 interfaceId)... */\n    tag_47:\n        /* \"contracts/LGG.sol\":5235:5239  bool */\n      0x00\n        /* \"contracts/LGG.sol\":5264:5300  super.supportsInterface(interfaceId) */\n      tag_171\n        /* \"contracts/LGG.sol\":5288:5299  interfaceId */\n      dup3\n        /* \"contracts/LGG.sol\":5264:5287  super.supportsInterface */\n      tag_172\n        /* \"contracts/LGG.sol\":5264:5300  super.supportsInterface(interfaceId) */\n      jump\t// in\n    tag_171:\n        /* \"contracts/LGG.sol\":5257:5300  return super.supportsInterface(interfaceId) */\n      swap3\n        /* \"contracts/LGG.sol\":5107:5308  function supportsInterface(bytes4 interfaceId)... */\n      swap2\n      pop\n      pop\n      jump\t// out\n        /* \"@openzeppelin/contracts/token/ERC20/ERC20.sol\":1779:1868  function name() public view virtual returns (string memory) {... */\n    tag_51:\n        /* \"@openzeppelin/contracts/token/ERC20/ERC20.sol\":1824:1837  string memory */\n      0x60\n        /* \"@openzeppelin/contracts/token/ERC20/ERC20.sol\":1856:1861  _name */\n      0x03\n        /* \"@openzeppelin/contracts/token/ERC20/ERC20.sol\":1849:1861  return _name */\n      dup1\n      sload\n      tag_174\n      swap1\n      tag_175\n      jump\t// in\n    tag_174:\n      dup1\n      0x1f\n      add\n      0x20\n      dup1\n      swap2\n      div\n      mul\n      0x20\n      add\n      mload(0x40)\n      swap1\n      dup2\n      add\n      0x40\n      mstore\n      dup1\n      swap3\n      swap2\n      swap1\n      dup2\n      dup2\n      mstore\n      0x20\n      add\n      dup3\n      dup1\n      sload\n      tag_176\n      swap1\n      tag_175\n      jump\t// in\n    tag_176:\n      dup1\n      iszero\n      tag_177\n      jumpi\n      dup1\n      0x1f\n      lt\n      tag_178\n      jumpi\n      0x0100\n      dup1\n      dup4\n      sload\n      div\n      mul\n      dup4\n      mstore\n      swap2\n      0x20\n      add\n      swap2\n      jump(tag_177)\n    tag_178:\n      dup3\n      add\n      swap2\n      swap1\n      0x00\n      mstore\n      keccak256(0x00, 0x20)\n      swap1\n    tag_179:\n      dup2\n      sload\n      dup2\n      mstore\n      swap1\n      0x01\n      add\n      swap1\n      0x20\n      add\n      dup1\n      dup4\n      gt\n      tag_179\n      jumpi\n      dup3\n      swap1\n      sub\n      0x1f\n      and\n      dup3\n      add\n      swap2\n    tag_177:\n      pop\n      pop\n      pop\n      pop\n      pop\n      swap1\n      pop\n        /* \"@openzeppelin/contracts/token/ERC20/ERC20.sol\":1779:1868  function name() public view virtual returns (string memory) {... */\n      swap1\n      jump\t// out\n        /* \"@openzeppelin/contracts/token/ERC20/ERC20.sol\":3998:4184  function approve(address spender, uint256 value) public virtual returns (bool) {... */\n    tag_57:\n        /* \"@openzeppelin/contracts/token/ERC20/ERC20.sol\":4071:4075  bool */\n      0x00\n        /* \"@openzeppelin/contracts/utils/Context.sol\":735:745  msg.sender */\n      caller\n        /* \"@openzeppelin/contracts/token/ERC20/ERC20.sol\":4125:4156  _approve(owner, spender, value) */\n      tag_183\n        /* \"@openzeppelin/contracts/utils/Context.sol\":735:745  msg.sender */\n      dup2\n        /* \"@openzeppelin/contracts/token/ERC20/ERC20.sol\":4141:4148  spender */\n      dup6\n        /* \"@openzeppelin/contracts/token/ERC20/ERC20.sol\":4150:4155  value */\n      dup6\n        /* \"@openzeppelin/contracts/token/ERC20/ERC20.sol\":4125:4133  _approve */\n      tag_184\n        /* \"@openzeppelin/contracts/token/ERC20/ERC20.sol\":4125:4156  _approve(owner, spender, value) */\n      jump\t// in\n    tag_183:\n      pop\n        /* \"@openzeppelin/contracts/token/ERC20/ERC20.sol\":4173:4177  true */\n      0x01\n      swap4\n        /* \"@openzeppelin/contracts/token/ERC20/ERC20.sol\":3998:4184  function approve(address spender, uint256 value) public virtual returns (bool) {... */\n      swap3\n      pop\n      pop\n      pop\n      jump\t// out\n        /* \"contracts/LGG.sol\":3698:4021  function setFees(uint256 _marketingFee, uint256 _liquidityFee) external onlyRole(ADMIN_ROLE) {... */\n    tag_62:\n      mload(0x00)\n      codecopy(0x00, data_cb864c43dd5d441bb6271f424f11befa622c032dfd374d226e26fbbdb782b8f8, 0x20)\n      mload(0x00)\n      swap1\n      0x00\n      mstore\n        /* \"@openzeppelin/contracts/access/AccessControl.sol\":2464:2480  _checkRole(role) */\n      tag_186\n        /* \"@openzeppelin/contracts/access/AccessControl.sol\":2475:2479  role */\n      dup2\n        /* \"@openzeppelin/contracts/access/AccessControl.sol\":2464:2474  _checkRole */\n      tag_187\n        /* \"@openzeppelin/contracts/access/AccessControl.sol\":2464:2480  _checkRole(role) */\n      jump\t// in\n    tag_186:\n        /* \"contracts/LGG.sol\":3843:3845  10 */\n      0x0a\n        /* \"contracts/LGG.sol\":3810:3839  _marketingFee + _liquidityFee */\n      tag_189\n        /* \"contracts/LGG.sol\":3826:3839  _liquidityFee */\n      dup4\n        /* \"contracts/LGG.sol\":3810:3823  _marketingFee */\n      dup6\n        /* \"contracts/LGG.sol\":3810:3839  _marketingFee + _liquidityFee */\n      tag_190\n      jump\t// in\n    tag_189:\n        /* \"contracts/LGG.sol\":3810:3845  _marketingFee + _liquidityFee <= 10 */\n      gt\n      iszero\n        /* \"contracts/LGG.sol\":3802:3878  require(_marketingFee + _liquidityFee <= 10, \"Total fees cannot exceed 10%\") */\n      tag_191\n      jumpi\n      mload(0x40)\n      shl(0xe5, 0x461bcd)\n      dup2\n      mstore\n        /* \"#utility.yul\":5318:5320   */\n      0x20\n        /* \"contracts/LGG.sol\":3802:3878  require(_marketingFee + _liquidityFee <= 10, \"Total fees cannot exceed 10%\") */\n      0x04\n      dup3\n      add\n        /* \"#utility.yul\":5300:5321   */\n      mstore\n        /* \"#utility.yul\":5357:5359   */\n      0x1c\n        /* \"#utility.yul\":5337:5355   */\n      0x24\n      dup3\n      add\n        /* \"#utility.yul\":5330:5360   */\n      mstore\n        /* \"#utility.yul\":5396:5426   */\n      0x546f74616c20666565732063616e6e6f74206578636565642031302500000000\n        /* \"#utility.yul\":5376:5394   */\n      0x44\n      dup3\n      add\n        /* \"#utility.yul\":5369:5427   */\n      mstore\n        /* \"#utility.yul\":5444:5462   */\n      0x64\n      add\n        /* \"contracts/LGG.sol\":3802:3878  require(_marketingFee + _liquidityFee <= 10, \"Total fees cannot exceed 10%\") */\n    tag_192:\n      mload(0x40)\n      dup1\n      swap2\n      sub\n      swap1\n      revert\n    tag_191:\n        /* \"contracts/LGG.sol\":3889:3901  marketingFee */\n      0x08\n        /* \"contracts/LGG.sol\":3889:3917  marketingFee = _marketingFee */\n      dup4\n      swap1\n      sstore\n        /* \"contracts/LGG.sol\":3928:3940  liquidityFee */\n      0x09\n        /* \"contracts/LGG.sol\":3928:3956  liquidityFee = _liquidityFee */\n      dup3\n      swap1\n      sstore\n        /* \"contracts/LGG.sol\":3972:4013  FeesUpdated(_marketingFee, _liquidityFee) */\n      0x40\n      dup1\n      mload\n        /* \"#utility.yul\":5647:5672   */\n      dup5\n      dup2\n      mstore\n        /* \"#utility.yul\":5703:5705   */\n      0x20\n        /* \"#utility.yul\":5688:5706   */\n      dup2\n      add\n        /* \"#utility.yul\":5681:5715   */\n      dup5\n      swap1\n      mstore\n        /* \"contracts/LGG.sol\":3972:4013  FeesUpdated(_marketingFee, _liquidityFee) */\n      0x5c6323bf1c2d7aaea2c091a4751c1c87af7f2864650c336507a77d0557af37a1\n      swap2\n        /* \"#utility.yul\":5620:5638   */\n      add\n        /* \"contracts/LGG.sol\":3972:4013  FeesUpdated(_marketingFee, _liquidityFee) */\n    tag_194:\n      mload(0x40)\n      dup1\n      swap2\n      sub\n      swap1\n      log1\n        /* \"contracts/LGG.sol\":3698:4021  function setFees(uint256 _marketingFee, uint256 _liquidityFee) external onlyRole(ADMIN_ROLE) {... */\n      pop\n      pop\n      pop\n      jump\t// out\n        /* \"contracts/LGG.sol\":4481:4677  function setBlacklist(address account, bool blacklisted) external onlyRole(ADMIN_ROLE) {... */\n    tag_66:\n      mload(0x00)\n      codecopy(0x00, data_cb864c43dd5d441bb6271f424f11befa622c032dfd374d226e26fbbdb782b8f8, 0x20)\n      mload(0x00)\n      swap1\n      0x00\n      mstore\n        /* \"@openzeppelin/contracts/access/AccessControl.sol\":2464:2480  _checkRole(role) */\n      tag_197\n        /* \"@openzeppelin/contracts/access/AccessControl.sol\":2475:2479  role */\n      dup2\n        /* \"@openzeppelin/contracts/access/AccessControl.sol\":2464:2474  _checkRole */\n      tag_187\n        /* \"@openzeppelin/contracts/access/AccessControl.sol\":2464:2480  _checkRole(role) */\n      jump\t// in\n    tag_197:\n      sub(shl(0xa0, 0x01), 0x01)\n        /* \"contracts/LGG.sol\":4579:4601  isBlacklisted[account] */\n      dup4\n      and\n      0x00\n      dup2\n      dup2\n      mstore\n        /* \"contracts/LGG.sol\":4579:4592  isBlacklisted */\n      0x0e\n        /* \"contracts/LGG.sol\":4579:4601  isBlacklisted[account] */\n      0x20\n      swap1\n      dup2\n      mstore\n      0x40\n      swap2\n      dup3\n      swap1\n      keccak256\n        /* \"contracts/LGG.sol\":4579:4615  isBlacklisted[account] = blacklisted */\n      dup1\n      sload\n      not(0xff)\n      and\n      dup7\n      iszero\n      iszero\n      swap1\n      dup2\n      or\n      swap1\n      swap2\n      sstore\n        /* \"contracts/LGG.sol\":4631:4669  BlacklistUpdated(account, blacklisted) */\n      swap2\n      mload\n        /* \"#utility.yul\":445:486   */\n      swap2\n      dup3\n      mstore\n        /* \"contracts/LGG.sol\":4631:4669  BlacklistUpdated(account, blacklisted) */\n      0x6a12b3df6cba4203bd7fd06b816789f87de8c594299aed5717ae070fac781bac\n      swap2\n        /* \"#utility.yul\":418:436   */\n      add\n        /* \"contracts/LGG.sol\":4631:4669  BlacklistUpdated(account, blacklisted) */\n      mload(0x40)\n      dup1\n      swap2\n      sub\n      swap1\n      log2\n        /* \"contracts/LGG.sol\":4481:4677  function setBlacklist(address account, bool blacklisted) external onlyRole(ADMIN_ROLE) {... */\n      pop\n      pop\n      pop\n      jump\t// out\n        /* \"@openzeppelin/contracts/token/ERC20/ERC20.sol\":4776:5020  function transferFrom(address from, address to, uint256 value) public virtual returns (bool) {... */\n    tag_74:\n        /* \"@openzeppelin/contracts/token/ERC20/ERC20.sol\":4863:4867  bool */\n      0x00\n        /* \"@openzeppelin/contracts/utils/Context.sol\":735:745  msg.sender */\n      caller\n        /* \"@openzeppelin/contracts/token/ERC20/ERC20.sol\":4919:4956  _spendAllowance(from, spender, value) */\n      tag_203\n        /* \"@openzeppelin/contracts/token/ERC20/ERC20.sol\":4935:4939  from */\n      dup6\n        /* \"@openzeppelin/contracts/utils/Context.sol\":735:745  msg.sender */\n      dup3\n        /* \"@openzeppelin/contracts/token/ERC20/ERC20.sol\":4950:4955  value */\n      dup6\n        /* \"@openzeppelin/contracts/token/ERC20/ERC20.sol\":4919:4934  _spendAllowance */\n      tag_204\n        /* \"@openzeppelin/contracts/token/ERC20/ERC20.sol\":4919:4956  _spendAllowance(from, spender, value) */\n      jump\t// in\n    tag_203:\n        /* \"@openzeppelin/contracts/token/ERC20/ERC20.sol\":4966:4992  _transfer(from, to, value) */\n      tag_205\n        /* \"@openzeppelin/contracts/token/ERC20/ERC20.sol\":4976:4980  from */\n      dup6\n        /* \"@openzeppelin/contracts/token/ERC20/ERC20.sol\":4982:4984  to */\n      dup6\n        /* \"@openzeppelin/contracts/token/ERC20/ERC20.sol\":4986:4991  value */\n      dup6\n        /* \"@openzeppelin/contracts/token/ERC20/ERC20.sol\":4966:4975  _transfer */\n      tag_206\n        /* \"@openzeppelin/contracts/token/ERC20/ERC20.sol\":4966:4992  _transfer(from, to, value) */\n      jump\t// in\n    tag_205:\n      pop\n        /* \"@openzeppelin/contracts/token/ERC20/ERC20.sol\":5009:5013  true */\n      0x01\n      swap5\n        /* \"@openzeppelin/contracts/token/ERC20/ERC20.sol\":4776:5020  function transferFrom(address from, address to, uint256 value) public virtual returns (bool) {... */\n      swap4\n      pop\n      pop\n      pop\n      pop\n      jump\t// out\n        /* \"@openzeppelin/contracts/access/AccessControl.sol\":4226:4362  function grantRole(bytes32 role, address account) public virtual onlyRole(getRoleAdmin(role)) {... */\n    tag_85:\n        /* \"@openzeppelin/contracts/access/AccessControl.sol\":3875:3882  bytes32 */\n      0x00\n        /* \"@openzeppelin/contracts/access/AccessControl.sol\":3901:3913  _roles[role] */\n      dup3\n      dup2\n      mstore\n        /* \"@openzeppelin/contracts/access/AccessControl.sol\":3901:3907  _roles */\n      0x05\n        /* \"@openzeppelin/contracts/access/AccessControl.sol\":3901:3913  _roles[role] */\n      0x20\n      mstore\n      0x40\n      swap1\n      keccak256\n        /* \"@openzeppelin/contracts/access/AccessControl.sol\":3901:3923  _roles[role].adminRole */\n      0x01\n      add\n      sload\n        /* \"@openzeppelin/contracts/access/AccessControl.sol\":2464:2480  _checkRole(role) */\n      tag_210\n        /* \"@openzeppelin/contracts/access/AccessControl.sol\":2475:2479  role */\n      dup2\n        /* \"@openzeppelin/contracts/access/AccessControl.sol\":2464:2474  _checkRole */\n      tag_187\n        /* \"@openzeppelin/contracts/access/AccessControl.sol\":2464:2480  _checkRole(role) */\n      jump\t// in\n    tag_210:\n        /* \"@openzeppelin/contracts/access/AccessControl.sol\":4330:4355  _grantRole(role, account) */\n      tag_212\n        /* \"@openzeppelin/contracts/access/AccessControl.sol\":4341:4345  role */\n      dup4\n        /* \"@openzeppelin/contracts/access/AccessControl.sol\":4347:4354  account */\n      dup4\n        /* \"@openzeppelin/contracts/access/AccessControl.sol\":4330:4340  _grantRole */\n      tag_213\n        /* \"@openzeppelin/contracts/access/AccessControl.sol\":4330:4355  _grantRole(role, account) */\n      jump\t// in\n    tag_212:\n      pop\n        /* \"@openzeppelin/contracts/access/AccessControl.sol\":4226:4362  function grantRole(bytes32 role, address account) public virtual onlyRole(getRoleAdmin(role)) {... */\n      pop\n      pop\n      pop\n      jump\t// out\n        /* \"contracts/LGG.sol\":4722:4865  function setFeeExclusion(address account, bool excluded) external onlyRole(ADMIN_ROLE) {... */\n    tag_88:\n      mload(0x00)\n      codecopy(0x00, data_cb864c43dd5d441bb6271f424f11befa622c032dfd374d226e26fbbdb782b8f8, 0x20)\n      mload(0x00)\n      swap1\n      0x00\n      mstore\n        /* \"@openzeppelin/contracts/access/AccessControl.sol\":2464:2480  _checkRole(role) */\n      tag_215\n        /* \"@openzeppelin/contracts/access/AccessControl.sol\":2475:2479  role */\n      dup2\n        /* \"@openzeppelin/contracts/access/AccessControl.sol\":2464:2474  _checkRole */\n      tag_187\n        /* \"@openzeppelin/contracts/access/AccessControl.sol\":2464:2480  _checkRole(role) */\n      jump\t// in\n    tag_215:\n      pop\n      sub(shl(0xa0, 0x01), 0x01)\n        /* \"contracts/LGG.sol\":4820:4846  isExcludedFromFee[account] */\n      swap2\n      swap1\n      swap2\n      and\n      0x00\n      swap1\n      dup2\n      mstore\n        /* \"contracts/LGG.sol\":4820:4837  isExcludedFromFee */\n      0x0d\n        /* \"contracts/LGG.sol\":4820:4846  isExcludedFromFee[account] */\n      0x20\n      mstore\n      0x40\n      swap1\n      keccak256\n        /* \"contracts/LGG.sol\":4820:4857  isExcludedFromFee[account] = excluded */\n      dup1\n      sload\n      not(0xff)\n      and\n      swap2\n      iszero\n      iszero\n      swap2\n      swap1\n      swap2\n      or\n      swap1\n      sstore\n        /* \"contracts/LGG.sol\":4722:4865  function setFeeExclusion(address account, bool excluded) external onlyRole(ADMIN_ROLE) {... */\n      jump\t// out\n        /* \"@openzeppelin/contracts/access/AccessControl.sol\":5328:5573  function renounceRole(bytes32 role, address callerConfirmation) public virtual {... */\n    tag_95:\n      sub(shl(0xa0, 0x01), 0x01)\n        /* \"@openzeppelin/contracts/access/AccessControl.sol\":5421:5455  callerConfirmation != _msgSender() */\n      dup2\n      and\n        /* \"@openzeppelin/contracts/utils/Context.sol\":735:745  msg.sender */\n      caller\n        /* \"@openzeppelin/contracts/access/AccessControl.sol\":5421:5455  callerConfirmation != _msgSender() */\n      eq\n        /* \"@openzeppelin/contracts/access/AccessControl.sol\":5417:5519  if (callerConfirmation != _msgSender()) {... */\n      tag_220\n      jumpi\n        /* \"@openzeppelin/contracts/access/AccessControl.sol\":5478:5508  AccessControlBadConfirmation() */\n      mload(0x40)\n      shl(0xe1, 0x334bd919)\n      dup2\n      mstore\n      0x04\n      add\n      mload(0x40)\n      dup1\n      swap2\n      sub\n      swap1\n      revert\n        /* \"@openzeppelin/contracts/access/AccessControl.sol\":5417:5519  if (callerConfirmation != _msgSender()) {... */\n    tag_220:\n        /* \"@openzeppelin/contracts/access/AccessControl.sol\":5529:5566  _revokeRole(role, callerConfirmation) */\n      tag_221\n        /* \"@openzeppelin/contracts/access/AccessControl.sol\":5541:5545  role */\n      dup3\n        /* \"@openzeppelin/contracts/access/AccessControl.sol\":5547:5565  callerConfirmation */\n      dup3\n        /* \"@openzeppelin/contracts/access/AccessControl.sol\":5529:5540  _revokeRole */\n      tag_222\n        /* \"@openzeppelin/contracts/access/AccessControl.sol\":5529:5566  _revokeRole(role, callerConfirmation) */\n      jump\t// in\n    tag_221:\n      pop\n        /* \"@openzeppelin/contracts/access/AccessControl.sol\":5328:5573  function renounceRole(bytes32 role, address callerConfirmation) public virtual {... */\n      pop\n      pop\n      jump\t// out\n        /* \"contracts/LGG.sol\":4991:5069  function unpause() external onlyRole(ADMIN_ROLE) {... */\n    tag_97:\n      mload(0x00)\n      codecopy(0x00, data_cb864c43dd5d441bb6271f424f11befa622c032dfd374d226e26fbbdb782b8f8, 0x20)\n      mload(0x00)\n      swap1\n      0x00\n      mstore\n        /* \"@openzeppelin/contracts/access/AccessControl.sol\":2464:2480  _checkRole(role) */\n      tag_224\n        /* \"@openzeppelin/contracts/access/AccessControl.sol\":2475:2479  role */\n      dup2\n        /* \"@openzeppelin/contracts/access/AccessControl.sol\":2464:2474  _checkRole */\n      tag_187\n        /* \"@openzeppelin/contracts/access/AccessControl.sol\":2464:2480  _checkRole(role) */\n      jump\t// in\n    tag_224:\n        /* \"contracts/LGG.sol\":5051:5061  _unpause() */\n      tag_226\n        /* \"contracts/LGG.sol\":5051:5059  _unpause */\n      tag_227\n        /* \"contracts/LGG.sol\":5051:5061  _unpause() */\n      jump\t// in\n    tag_226:\n        /* \"contracts/LGG.sol\":4991:5069  function unpause() external onlyRole(ADMIN_ROLE) {... */\n      pop\n      jump\t// out\n        /* \"@openzeppelin/contracts/token/ERC20/extensions/ERC20Burnable.sol\":618:705  function burn(uint256 value) public virtual {... */\n    tag_101:\n        /* \"@openzeppelin/contracts/token/ERC20/extensions/ERC20Burnable.sol\":672:698  _burn(_msgSender(), value) */\n      tag_226\n        /* \"@openzeppelin/contracts/utils/Context.sol\":735:745  msg.sender */\n      caller\n        /* \"@openzeppelin/contracts/token/ERC20/extensions/ERC20Burnable.sol\":692:697  value */\n      dup3\n        /* \"@openzeppelin/contracts/token/ERC20/extensions/ERC20Burnable.sol\":672:677  _burn */\n      tag_231\n        /* \"@openzeppelin/contracts/token/ERC20/extensions/ERC20Burnable.sol\":672:698  _burn(_msgSender(), value) */\n      jump\t// in\n        /* \"contracts/LGG.sol\":3408:3686  function setMarketingWallet(address _marketingWallet) external onlyRole(ADMIN_ROLE) {... */\n    tag_112:\n      mload(0x00)\n      codecopy(0x00, data_cb864c43dd5d441bb6271f424f11befa622c032dfd374d226e26fbbdb782b8f8, 0x20)\n      mload(0x00)\n      swap1\n      0x00\n      mstore\n        /* \"@openzeppelin/contracts/access/AccessControl.sol\":2464:2480  _checkRole(role) */\n      tag_234\n        /* \"@openzeppelin/contracts/access/AccessControl.sol\":2475:2479  role */\n      dup2\n        /* \"@openzeppelin/contracts/access/AccessControl.sol\":2464:2474  _checkRole */\n      tag_187\n        /* \"@openzeppelin/contracts/access/AccessControl.sol\":2464:2480  _checkRole(role) */\n      jump\t// in\n    tag_234:\n      sub(shl(0xa0, 0x01), 0x01)\n        /* \"contracts/LGG.sol\":3511:3541  _marketingWallet != address(0) */\n      dup3\n      and\n        /* \"contracts/LGG.sol\":3503:3577  require(_marketingWallet != address(0), \"Marketing wallet cannot be zero\") */\n      tag_236\n      jumpi\n      mload(0x40)\n      shl(0xe5, 0x461bcd)\n      dup2\n      mstore\n        /* \"#utility.yul\":5928:5930   */\n      0x20\n        /* \"contracts/LGG.sol\":3503:3577  require(_marketingWallet != address(0), \"Marketing wallet cannot be zero\") */\n      0x04\n      dup3\n      add\n        /* \"#utility.yul\":5910:5931   */\n      mstore\n        /* \"#utility.yul\":5967:5969   */\n      0x1f\n        /* \"#utility.yul\":5947:5965   */\n      0x24\n      dup3\n      add\n        /* \"#utility.yul\":5940:5970   */\n      mstore\n        /* \"#utility.yul\":6006:6039   */\n      0x4d61726b6574696e672077616c6c65742063616e6e6f74206265207a65726f00\n        /* \"#utility.yul\":5986:6004   */\n      0x44\n      dup3\n      add\n        /* \"#utility.yul\":5979:6040   */\n      mstore\n        /* \"#utility.yul\":6057:6075   */\n      0x64\n      add\n        /* \"contracts/LGG.sol\":3503:3577  require(_marketingWallet != address(0), \"Marketing wallet cannot be zero\") */\n      tag_192\n        /* \"#utility.yul\":5726:6081   */\n      jump\n        /* \"contracts/LGG.sol\":3503:3577  require(_marketingWallet != address(0), \"Marketing wallet cannot be zero\") */\n    tag_236:\n        /* \"contracts/LGG.sol\":3588:3603  marketingWallet */\n      0x0a\n        /* \"contracts/LGG.sol\":3588:3622  marketingWallet = _marketingWallet */\n      dup1\n      sload\n      not(sub(shl(0xa0, 0x01), 0x01))\n      and\n      sub(shl(0xa0, 0x01), 0x01)\n      dup5\n      and\n      swap1\n      dup2\n      or\n      swap1\n      swap2\n      sstore\n        /* \"contracts/LGG.sol\":3638:3678  MarketingWalletUpdated(_marketingWallet) */\n      mload(0x40)\n        /* \"#utility.yul\":4142:4193   */\n      swap1\n      dup2\n      mstore\n        /* \"contracts/LGG.sol\":3638:3678  MarketingWalletUpdated(_marketingWallet) */\n      0xbf86feedee5b30c30a8243bd21deebb704d141478d39b1be04fe5ee739f214e7\n      swap1\n        /* \"#utility.yul\":4130:4132   */\n      0x20\n        /* \"#utility.yul\":4115:4133   */\n      add\n        /* \"contracts/LGG.sol\":3638:3678  MarketingWalletUpdated(_marketingWallet) */\n      mload(0x40)\n      dup1\n      swap2\n      sub\n      swap1\n      log1\n        /* \"contracts/LGG.sol\":3408:3686  function setMarketingWallet(address _marketingWallet) external onlyRole(ADMIN_ROLE) {... */\n      pop\n      pop\n      jump\t// out\n        /* \"@openzeppelin/contracts/token/ERC20/extensions/ERC20Burnable.sol\":1021:1179  function burnFrom(address account, uint256 value) public virtual {... */\n    tag_129:\n        /* \"@openzeppelin/contracts/token/ERC20/extensions/ERC20Burnable.sol\":1096:1141  _spendAllowance(account, _msgSender(), value) */\n      tag_242\n        /* \"@openzeppelin/contracts/token/ERC20/extensions/ERC20Burnable.sol\":1112:1119  account */\n      dup3\n        /* \"@openzeppelin/contracts/utils/Context.sol\":735:745  msg.sender */\n      caller\n        /* \"@openzeppelin/contracts/token/ERC20/extensions/ERC20Burnable.sol\":1135:1140  value */\n      dup4\n        /* \"@openzeppelin/contracts/token/ERC20/extensions/ERC20Burnable.sol\":1096:1111  _spendAllowance */\n      tag_204\n        /* \"@openzeppelin/contracts/token/ERC20/extensions/ERC20Burnable.sol\":1096:1141  _spendAllowance(account, _msgSender(), value) */\n      jump\t// in\n    tag_242:\n        /* \"@openzeppelin/contracts/token/ERC20/extensions/ERC20Burnable.sol\":1151:1172  _burn(account, value) */\n      tag_244\n        /* \"@openzeppelin/contracts/token/ERC20/extensions/ERC20Burnable.sol\":1157:1164  account */\n      dup3\n        /* \"@openzeppelin/contracts/token/ERC20/extensions/ERC20Burnable.sol\":1166:1171  value */\n      dup3\n        /* \"@openzeppelin/contracts/token/ERC20/extensions/ERC20Burnable.sol\":1151:1156  _burn */\n      tag_231\n        /* \"@openzeppelin/contracts/token/ERC20/extensions/ERC20Burnable.sol\":1151:1172  _burn(account, value) */\n      jump\t// in\n    tag_244:\n        /* \"@openzeppelin/contracts/token/ERC20/extensions/ERC20Burnable.sol\":1021:1179  function burnFrom(address account, uint256 value) public virtual {... */\n      pop\n      pop\n      jump\t// out\n        /* \"contracts/LGG.sol\":4905:4979  function pause() external onlyRole(ADMIN_ROLE) {... */\n    tag_131:\n      mload(0x00)\n      codecopy(0x00, data_cb864c43dd5d441bb6271f424f11befa622c032dfd374d226e26fbbdb782b8f8, 0x20)\n      mload(0x00)\n      swap1\n      0x00\n      mstore\n        /* \"@openzeppelin/contracts/access/AccessControl.sol\":2464:2480  _checkRole(role) */\n      tag_246\n        /* \"@openzeppelin/contracts/access/AccessControl.sol\":2475:2479  role */\n      dup2\n        /* \"@openzeppelin/contracts/access/AccessControl.sol\":2464:2474  _checkRole */\n      tag_187\n        /* \"@openzeppelin/contracts/access/AccessControl.sol\":2464:2480  _checkRole(role) */\n      jump\t// in\n    tag_246:\n        /* \"contracts/LGG.sol\":4963:4971  _pause() */\n      tag_226\n        /* \"contracts/LGG.sol\":4963:4969  _pause */\n      tag_249\n        /* \"contracts/LGG.sol\":4963:4971  _pause() */\n      jump\t// in\n        /* \"@openzeppelin/contracts/access/AccessControl.sol\":2854:2990  function hasRole(bytes32 role, address account) public view virtual returns (bool) {... */\n    tag_137:\n        /* \"@openzeppelin/contracts/access/AccessControl.sol\":2931:2935  bool */\n      0x00\n        /* \"@openzeppelin/contracts/access/AccessControl.sol\":2954:2966  _roles[role] */\n      swap2\n      dup3\n      mstore\n        /* \"@openzeppelin/contracts/access/AccessControl.sol\":2954:2960  _roles */\n      0x05\n        /* \"@openzeppelin/contracts/access/AccessControl.sol\":2954:2966  _roles[role] */\n      0x20\n      swap1\n      dup2\n      mstore\n      0x40\n      dup1\n      dup5\n      keccak256\n      sub(shl(0xa0, 0x01), 0x01)\n        /* \"@openzeppelin/contracts/access/AccessControl.sol\":2954:2983  _roles[role].hasRole[account] */\n      swap4\n      swap1\n      swap4\n      and\n      dup5\n      mstore\n      swap2\n      swap1\n      mstore\n      swap1\n      keccak256\n      sload\n      0xff\n      and\n      swap1\n        /* \"@openzeppelin/contracts/access/AccessControl.sol\":2854:2990  function hasRole(bytes32 role, address account) public view virtual returns (bool) {... */\n      jump\t// out\n        /* \"@openzeppelin/contracts/token/ERC20/ERC20.sol\":1981:2074  function symbol() public view virtual returns (string memory) {... */\n    tag_140:\n        /* \"@openzeppelin/contracts/token/ERC20/ERC20.sol\":2028:2041  string memory */\n      0x60\n        /* \"@openzeppelin/contracts/token/ERC20/ERC20.sol\":2060:2067  _symbol */\n      0x04\n        /* \"@openzeppelin/contracts/token/ERC20/ERC20.sol\":2053:2067  return _symbol */\n      dup1\n      sload\n      tag_174\n      swap1\n      tag_175\n      jump\t// in\n        /* \"contracts/LGG.sol\":4033:4440  function setMaxLimits(uint256 _maxTxAmount, uint256 _maxWalletSize) external onlyRole(ADMIN_ROLE) {... */\n    tag_147:\n      mload(0x00)\n      codecopy(0x00, data_cb864c43dd5d441bb6271f424f11befa622c032dfd374d226e26fbbdb782b8f8, 0x20)\n      mload(0x00)\n      swap1\n      0x00\n      mstore\n        /* \"@openzeppelin/contracts/access/AccessControl.sol\":2464:2480  _checkRole(role) */\n      tag_258\n        /* \"@openzeppelin/contracts/access/AccessControl.sol\":2475:2479  role */\n      dup2\n        /* \"@openzeppelin/contracts/access/AccessControl.sol\":2464:2474  _checkRole */\n      tag_187\n        /* \"@openzeppelin/contracts/access/AccessControl.sol\":2464:2480  _checkRole(role) */\n      jump\t// in\n    tag_258:\n        /* \"contracts/LGG.sol\":4166:4185  TOTAL_SUPPLY / 1000 */\n      tag_260\n        /* \"contracts/LGG.sol\":4181:4185  1000 */\n      0x03e8\n        /* \"contracts/LGG.sol\":599:621  1_000_000_000 * 10**18 */\n      0x033b2e3c9fd0803ce8000000\n        /* \"contracts/LGG.sol\":4166:4185  TOTAL_SUPPLY / 1000 */\n      tag_261\n      jump\t// in\n    tag_260:\n        /* \"contracts/LGG.sol\":4150:4162  _maxTxAmount */\n      dup4\n        /* \"contracts/LGG.sol\":4150:4185  _maxTxAmount >= TOTAL_SUPPLY / 1000 */\n      lt\n      iszero\n        /* \"contracts/LGG.sol\":4142:4204  require(_maxTxAmount >= TOTAL_SUPPLY / 1000, \"Max TX too low\") */\n      tag_262\n      jumpi\n      mload(0x40)\n      shl(0xe5, 0x461bcd)\n      dup2\n      mstore\n        /* \"#utility.yul\":6510:6512   */\n      0x20\n        /* \"contracts/LGG.sol\":4142:4204  require(_maxTxAmount >= TOTAL_SUPPLY / 1000, \"Max TX too low\") */\n      0x04\n      dup3\n      add\n        /* \"#utility.yul\":6492:6513   */\n      mstore\n        /* \"#utility.yul\":6549:6551   */\n      0x0e\n        /* \"#utility.yul\":6529:6547   */\n      0x24\n      dup3\n      add\n        /* \"#utility.yul\":6522:6552   */\n      mstore\n      shl(0x90, 0x4d617820545820746f6f206c6f77)\n        /* \"#utility.yul\":6568:6586   */\n      0x44\n      dup3\n      add\n        /* \"#utility.yul\":6561:6605   */\n      mstore\n        /* \"#utility.yul\":6622:6640   */\n      0x64\n      add\n        /* \"contracts/LGG.sol\":4142:4204  require(_maxTxAmount >= TOTAL_SUPPLY / 1000, \"Max TX too low\") */\n      tag_192\n        /* \"#utility.yul\":6308:6646   */\n      jump\n        /* \"contracts/LGG.sol\":4142:4204  require(_maxTxAmount >= TOTAL_SUPPLY / 1000, \"Max TX too low\") */\n    tag_262:\n        /* \"contracts/LGG.sol\":4241:4260  TOTAL_SUPPLY / 1000 */\n      tag_265\n        /* \"contracts/LGG.sol\":4256:4260  1000 */\n      0x03e8\n        /* \"contracts/LGG.sol\":599:621  1_000_000_000 * 10**18 */\n      0x033b2e3c9fd0803ce8000000\n        /* \"contracts/LGG.sol\":4241:4260  TOTAL_SUPPLY / 1000 */\n      tag_261\n      jump\t// in\n    tag_265:\n        /* \"contracts/LGG.sol\":4223:4237  _maxWalletSize */\n      dup3\n        /* \"contracts/LGG.sol\":4223:4260  _maxWalletSize >= TOTAL_SUPPLY / 1000 */\n      lt\n      iszero\n        /* \"contracts/LGG.sol\":4215:4283  require(_maxWalletSize >= TOTAL_SUPPLY / 1000, \"Max wallet too low\") */\n      tag_266\n      jumpi\n      mload(0x40)\n      shl(0xe5, 0x461bcd)\n      dup2\n      mstore\n        /* \"#utility.yul\":6853:6855   */\n      0x20\n        /* \"contracts/LGG.sol\":4215:4283  require(_maxWalletSize >= TOTAL_SUPPLY / 1000, \"Max wallet too low\") */\n      0x04\n      dup3\n      add\n        /* \"#utility.yul\":6835:6856   */\n      mstore\n        /* \"#utility.yul\":6892:6894   */\n      0x12\n        /* \"#utility.yul\":6872:6890   */\n      0x24\n      dup3\n      add\n        /* \"#utility.yul\":6865:6895   */\n      mstore\n      shl(0x70, 0x4d61782077616c6c657420746f6f206c6f77)\n        /* \"#utility.yul\":6911:6929   */\n      0x44\n      dup3\n      add\n        /* \"#utility.yul\":6904:6952   */\n      mstore\n        /* \"#utility.yul\":6969:6987   */\n      0x64\n      add\n        /* \"contracts/LGG.sol\":4215:4283  require(_maxWalletSize >= TOTAL_SUPPLY / 1000, \"Max wallet too low\") */\n      tag_192\n        /* \"#utility.yul\":6651:6993   */\n      jump\n        /* \"contracts/LGG.sol\":4215:4283  require(_maxWalletSize >= TOTAL_SUPPLY / 1000, \"Max wallet too low\") */\n    tag_266:\n        /* \"contracts/LGG.sol\":4294:4314  maxTransactionAmount */\n      0x0b\n        /* \"contracts/LGG.sol\":4294:4329  maxTransactionAmount = _maxTxAmount */\n      dup4\n      swap1\n      sstore\n        /* \"contracts/LGG.sol\":4340:4353  maxWalletSize */\n      0x0c\n        /* \"contracts/LGG.sol\":4340:4370  maxWalletSize = _maxWalletSize */\n      dup3\n      swap1\n      sstore\n        /* \"contracts/LGG.sol\":4386:4432  MaxLimitsUpdated(_maxTxAmount, _maxWalletSize) */\n      0x40\n      dup1\n      mload\n        /* \"#utility.yul\":5647:5672   */\n      dup5\n      dup2\n      mstore\n        /* \"#utility.yul\":5703:5705   */\n      0x20\n        /* \"#utility.yul\":5688:5706   */\n      dup2\n      add\n        /* \"#utility.yul\":5681:5715   */\n      dup5\n      swap1\n      mstore\n        /* \"contracts/LGG.sol\":4386:4432  MaxLimitsUpdated(_maxTxAmount, _maxWalletSize) */\n      0xb6cf947475d47632612a3265c7bc83f5cfed7429546220bfb088c3634f91c229\n      swap2\n        /* \"#utility.yul\":5620:5638   */\n      add\n        /* \"contracts/LGG.sol\":4386:4432  MaxLimitsUpdated(_maxTxAmount, _maxWalletSize) */\n      tag_194\n        /* \"#utility.yul\":5473:5721   */\n      jump\n        /* \"@openzeppelin/contracts/token/ERC20/ERC20.sol\":3315:3493  function transfer(address to, uint256 value) public virtual returns (bool) {... */\n    tag_153:\n        /* \"@openzeppelin/contracts/token/ERC20/ERC20.sol\":3384:3388  bool */\n      0x00\n        /* \"@openzeppelin/contracts/utils/Context.sol\":735:745  msg.sender */\n      caller\n        /* \"@openzeppelin/contracts/token/ERC20/ERC20.sol\":3438:3465  _transfer(owner, to, value) */\n      tag_183\n        /* \"@openzeppelin/contracts/utils/Context.sol\":735:745  msg.sender */\n      dup2\n        /* \"@openzeppelin/contracts/token/ERC20/ERC20.sol\":3455:3457  to */\n      dup6\n        /* \"@openzeppelin/contracts/token/ERC20/ERC20.sol\":3459:3464  value */\n      dup6\n        /* \"@openzeppelin/contracts/token/ERC20/ERC20.sol\":3438:3447  _transfer */\n      tag_206\n        /* \"@openzeppelin/contracts/token/ERC20/ERC20.sol\":3438:3465  _transfer(owner, to, value) */\n      jump\t// in\n        /* \"@openzeppelin/contracts/access/AccessControl.sol\":4642:4780  function revokeRole(bytes32 role, address account) public virtual onlyRole(getRoleAdmin(role)) {... */\n    tag_160:\n        /* \"@openzeppelin/contracts/access/AccessControl.sol\":3875:3882  bytes32 */\n      0x00\n        /* \"@openzeppelin/contracts/access/AccessControl.sol\":3901:3913  _roles[role] */\n      dup3\n      dup2\n      mstore\n        /* \"@openzeppelin/contracts/access/AccessControl.sol\":3901:3907  _roles */\n      0x05\n        /* \"@openzeppelin/contracts/access/AccessControl.sol\":3901:3913  _roles[role] */\n      0x20\n      mstore\n      0x40\n      swap1\n      keccak256\n        /* \"@openzeppelin/contracts/access/AccessControl.sol\":3901:3923  _roles[role].adminRole */\n      0x01\n      add\n      sload\n        /* \"@openzeppelin/contracts/access/AccessControl.sol\":2464:2480  _checkRole(role) */\n      tag_275\n        /* \"@openzeppelin/contracts/access/AccessControl.sol\":2475:2479  role */\n      dup2\n        /* \"@openzeppelin/contracts/access/AccessControl.sol\":2464:2474  _checkRole */\n      tag_187\n        /* \"@openzeppelin/contracts/access/AccessControl.sol\":2464:2480  _checkRole(role) */\n      jump\t// in\n    tag_275:\n        /* \"@openzeppelin/contracts/access/AccessControl.sol\":4747:4773  _revokeRole(role, account) */\n      tag_212\n        /* \"@openzeppelin/contracts/access/AccessControl.sol\":4759:4763  role */\n      dup4\n        /* \"@openzeppelin/contracts/access/AccessControl.sol\":4765:4772  account */\n      dup4\n        /* \"@openzeppelin/contracts/access/AccessControl.sol\":4747:4758  _revokeRole */\n      tag_222\n        /* \"@openzeppelin/contracts/access/AccessControl.sol\":4747:4773  _revokeRole(role, account) */\n      jump\t// in\n        /* \"@openzeppelin/contracts/access/AccessControl.sol\":2565:2767  function supportsInterface(bytes4 interfaceId) public view virtual override returns (bool) {... */\n    tag_172:\n        /* \"@openzeppelin/contracts/access/AccessControl.sol\":2650:2654  bool */\n      0x00\n      not(sub(shl(0xe0, 0x01), 0x01))\n        /* \"@openzeppelin/contracts/access/AccessControl.sol\":2673:2720  interfaceId == type(IAccessControl).interfaceId */\n      dup3\n      and\n      shl(0xe0, 0x7965db0b)\n      eq\n      dup1\n        /* \"@openzeppelin/contracts/access/AccessControl.sol\":2673:2760  interfaceId == type(IAccessControl).interfaceId || super.supportsInterface(interfaceId) */\n      tag_171\n      jumpi\n      pop\n      shl(0xe0, 0x01ffc9a7)\n      not(sub(shl(0xe0, 0x01), 0x01))\n        /* \"@openzeppelin/contracts/utils/introspection/ERC165.sol\":862:902  interfaceId == type(IERC165).interfaceId */\n      dup4\n      and\n      eq\n        /* \"@openzeppelin/contracts/access/AccessControl.sol\":2724:2760  super.supportsInterface(interfaceId) */\n      tag_171\n        /* \"@openzeppelin/contracts/utils/introspection/ERC165.sol\":763:909  function supportsInterface(bytes4 interfaceId) public view virtual returns (bool) {... */\n      jump\n        /* \"@openzeppelin/contracts/token/ERC20/ERC20.sol\":8726:8854  function _approve(address owner, address spender, uint256 value) internal {... */\n    tag_184:\n        /* \"@openzeppelin/contracts/token/ERC20/ERC20.sol\":8810:8847  _approve(owner, spender, value, true) */\n      tag_221\n        /* \"@openzeppelin/contracts/token/ERC20/ERC20.sol\":8819:8824  owner */\n      dup4\n        /* \"@openzeppelin/contracts/token/ERC20/ERC20.sol\":8826:8833  spender */\n      dup4\n        /* \"@openzeppelin/contracts/token/ERC20/ERC20.sol\":8835:8840  value */\n      dup4\n        /* \"@openzeppelin/contracts/token/ERC20/ERC20.sol\":8842:8846  true */\n      0x01\n        /* \"@openzeppelin/contracts/token/ERC20/ERC20.sol\":8810:8818  _approve */\n      tag_286\n        /* \"@openzeppelin/contracts/token/ERC20/ERC20.sol\":8810:8847  _approve(owner, spender, value, true) */\n      jump\t// in\n        /* \"@openzeppelin/contracts/access/AccessControl.sol\":3199:3302  function _checkRole(bytes32 role) internal view virtual {... */\n    tag_187:\n        /* \"@openzeppelin/contracts/access/AccessControl.sol\":3265:3295  _checkRole(role, _msgSender()) */\n      tag_226\n        /* \"@openzeppelin/contracts/access/AccessControl.sol\":3276:3280  role */\n      dup2\n        /* \"@openzeppelin/contracts/utils/Context.sol\":735:745  msg.sender */\n      caller\n        /* \"@openzeppelin/contracts/access/AccessControl.sol\":3265:3275  _checkRole */\n      tag_290\n        /* \"@openzeppelin/contracts/access/AccessControl.sol\":3265:3295  _checkRole(role, _msgSender()) */\n      jump\t// in\n        /* \"@openzeppelin/contracts/token/ERC20/ERC20.sol\":10415:10892  function _spendAllowance(address owner, address spender, uint256 value) internal virtual {... */\n    tag_204:\n      sub(shl(0xa0, 0x01), 0x01)\n        /* \"@openzeppelin/contracts/token/ERC20/ERC20.sol\":3657:3675  _allowances[owner] */\n      dup4\n      dup2\n      and\n        /* \"@openzeppelin/contracts/token/ERC20/ERC20.sol\":10514:10538  uint256 currentAllowance */\n      0x00\n        /* \"@openzeppelin/contracts/token/ERC20/ERC20.sol\":3657:3675  _allowances[owner] */\n      swap1\n      dup2\n      mstore\n        /* \"@openzeppelin/contracts/token/ERC20/ERC20.sol\":3657:3668  _allowances */\n      0x01\n        /* \"@openzeppelin/contracts/token/ERC20/ERC20.sol\":3657:3675  _allowances[owner] */\n      0x20\n      swap1\n      dup2\n      mstore\n      0x40\n      dup1\n      dup4\n      keccak256\n        /* \"@openzeppelin/contracts/token/ERC20/ERC20.sol\":3657:3684  _allowances[owner][spender] */\n      swap4\n      dup7\n      and\n      dup4\n      mstore\n      swap3\n      swap1\n      mstore\n      keccak256\n      sload\n      not(0x00)\n        /* \"@openzeppelin/contracts/token/ERC20/ERC20.sol\":10580:10617  currentAllowance != type(uint256).max */\n      dup2\n      eq\n        /* \"@openzeppelin/contracts/token/ERC20/ERC20.sol\":10576:10886  if (currentAllowance != type(uint256).max) {... */\n      tag_212\n      jumpi\n        /* \"@openzeppelin/contracts/token/ERC20/ERC20.sol\":10656:10661  value */\n      dup2\n        /* \"@openzeppelin/contracts/token/ERC20/ERC20.sol\":10637:10653  currentAllowance */\n      dup2\n        /* \"@openzeppelin/contracts/token/ERC20/ERC20.sol\":10637:10661  currentAllowance < value */\n      lt\n        /* \"@openzeppelin/contracts/token/ERC20/ERC20.sol\":10633:10763  if (currentAllowance < value) {... */\n      iszero\n      tag_294\n      jumpi\n        /* \"@openzeppelin/contracts/token/ERC20/ERC20.sol\":10688:10748  ERC20InsufficientAllowance(spender, currentAllowance, value) */\n      mload(0x40)\n      shl(0xe1, 0x7dc7a0d9)\n      dup2\n      mstore\n      sub(shl(0xa0, 0x01), 0x01)\n        /* \"#utility.yul\":7218:7250   */\n      dup5\n      and\n        /* \"@openzeppelin/contracts/token/ERC20/ERC20.sol\":10688:10748  ERC20InsufficientAllowance(spender, currentAllowance, value) */\n      0x04\n      dup3\n      add\n        /* \"#utility.yul\":7200:7251   */\n      mstore\n        /* \"#utility.yul\":7267:7285   */\n      0x24\n      dup2\n      add\n        /* \"#utility.yul\":7260:7294   */\n      dup3\n      swap1\n      mstore\n        /* \"#utility.yul\":7310:7328   */\n      0x44\n      dup2\n      add\n        /* \"#utility.yul\":7303:7337   */\n      dup4\n      swap1\n      mstore\n        /* \"#utility.yul\":7173:7191   */\n      0x64\n      add\n        /* \"@openzeppelin/contracts/token/ERC20/ERC20.sol\":10688:10748  ERC20InsufficientAllowance(spender, currentAllowance, value) */\n      tag_192\n        /* \"#utility.yul\":6998:7343   */\n      jump\n        /* \"@openzeppelin/contracts/token/ERC20/ERC20.sol\":10633:10763  if (currentAllowance < value) {... */\n    tag_294:\n        /* \"@openzeppelin/contracts/token/ERC20/ERC20.sol\":10804:10861  _approve(owner, spender, currentAllowance - value, false) */\n      tag_212\n        /* \"@openzeppelin/contracts/token/ERC20/ERC20.sol\":10813:10818  owner */\n      dup5\n        /* \"@openzeppelin/contracts/token/ERC20/ERC20.sol\":10820:10827  spender */\n      dup5\n        /* \"@openzeppelin/contracts/token/ERC20/ERC20.sol\":10848:10853  value */\n      dup5\n        /* \"@openzeppelin/contracts/token/ERC20/ERC20.sol\":10829:10845  currentAllowance */\n      dup5\n        /* \"@openzeppelin/contracts/token/ERC20/ERC20.sol\":10829:10853  currentAllowance - value */\n      sub\n        /* \"@openzeppelin/contracts/token/ERC20/ERC20.sol\":10855:10860  false */\n      0x00\n        /* \"@openzeppelin/contracts/token/ERC20/ERC20.sol\":10804:10812  _approve */\n      tag_286\n        /* \"@openzeppelin/contracts/token/ERC20/ERC20.sol\":10804:10861  _approve(owner, spender, currentAllowance - value, false) */\n      jump\t// in\n        /* \"@openzeppelin/contracts/token/ERC20/ERC20.sol\":5393:5693  function _transfer(address from, address to, uint256 value) internal {... */\n    tag_206:\n      sub(shl(0xa0, 0x01), 0x01)\n        /* \"@openzeppelin/contracts/token/ERC20/ERC20.sol\":5476:5494  from == address(0) */\n      dup4\n      and\n        /* \"@openzeppelin/contracts/token/ERC20/ERC20.sol\":5472:5558  if (from == address(0)) {... */\n      tag_299\n      jumpi\n        /* \"@openzeppelin/contracts/token/ERC20/ERC20.sol\":5517:5547  ERC20InvalidSender(address(0)) */\n      mload(0x40)\n      shl(0xe1, 0x4b637e8f)\n      dup2\n      mstore\n        /* \"@openzeppelin/contracts/token/ERC20/ERC20.sol\":5544:5545  0 */\n      0x00\n        /* \"@openzeppelin/contracts/token/ERC20/ERC20.sol\":5517:5547  ERC20InvalidSender(address(0)) */\n      0x04\n      dup3\n      add\n        /* \"#utility.yul\":4142:4193   */\n      mstore\n        /* \"#utility.yul\":4115:4133   */\n      0x24\n      add\n        /* \"@openzeppelin/contracts/token/ERC20/ERC20.sol\":5517:5547  ERC20InvalidSender(address(0)) */\n      tag_192\n        /* \"#utility.yul\":3996:4199   */\n      jump\n        /* \"@openzeppelin/contracts/token/ERC20/ERC20.sol\":5472:5558  if (from == address(0)) {... */\n    tag_299:\n      sub(shl(0xa0, 0x01), 0x01)\n        /* \"@openzeppelin/contracts/token/ERC20/ERC20.sol\":5571:5587  to == address(0) */\n      dup3\n      and\n        /* \"@openzeppelin/contracts/token/ERC20/ERC20.sol\":5567:5653  if (to == address(0)) {... */\n      tag_301\n      jumpi\n        /* \"@openzeppelin/contracts/token/ERC20/ERC20.sol\":5610:5642  ERC20InvalidReceiver(address(0)) */\n      mload(0x40)\n      shl(0xe0, 0xec442f05)\n      dup2\n      mstore\n        /* \"@openzeppelin/contracts/token/ERC20/ERC20.sol\":5639:5640  0 */\n      0x00\n        /* \"@openzeppelin/contracts/token/ERC20/ERC20.sol\":5610:5642  ERC20InvalidReceiver(address(0)) */\n      0x04\n      dup3\n      add\n        /* \"#utility.yul\":4142:4193   */\n      mstore\n        /* \"#utility.yul\":4115:4133   */\n      0x24\n      add\n        /* \"@openzeppelin/contracts/token/ERC20/ERC20.sol\":5610:5642  ERC20InvalidReceiver(address(0)) */\n      tag_192\n        /* \"#utility.yul\":3996:4199   */\n      jump\n        /* \"@openzeppelin/contracts/token/ERC20/ERC20.sol\":5567:5653  if (to == address(0)) {... */\n    tag_301:\n        /* \"@openzeppelin/contracts/token/ERC20/ERC20.sol\":5662:5686  _update(from, to, value) */\n      tag_221\n        /* \"@openzeppelin/contracts/token/ERC20/ERC20.sol\":5670:5674  from */\n      dup4\n        /* \"@openzeppelin/contracts/token/ERC20/ERC20.sol\":5676:5678  to */\n      dup4\n        /* \"@openzeppelin/contracts/token/ERC20/ERC20.sol\":5680:5685  value */\n      dup4\n        /* \"@openzeppelin/contracts/token/ERC20/ERC20.sol\":5662:5669  _update */\n      tag_304\n        /* \"@openzeppelin/contracts/token/ERC20/ERC20.sol\":5662:5686  _update(from, to, value) */\n      jump\t// in\n        /* \"@openzeppelin/contracts/access/AccessControl.sol\":6179:6495  function _grantRole(bytes32 role, address account) internal virtual returns (bool) {... */\n    tag_213:\n        /* \"@openzeppelin/contracts/access/AccessControl.sol\":6256:6260  bool */\n      0x00\n        /* \"@openzeppelin/contracts/access/AccessControl.sol\":6277:6299  hasRole(role, account) */\n      tag_306\n        /* \"@openzeppelin/contracts/access/AccessControl.sol\":6285:6289  role */\n      dup4\n        /* \"@openzeppelin/contracts/access/AccessControl.sol\":6291:6298  account */\n      dup4\n        /* \"@openzeppelin/contracts/access/AccessControl.sol\":6277:6284  hasRole */\n      tag_137\n        /* \"@openzeppelin/contracts/access/AccessControl.sol\":6277:6299  hasRole(role, account) */\n      jump\t// in\n    tag_306:\n        /* \"@openzeppelin/contracts/access/AccessControl.sol\":6272:6489  if (!hasRole(role, account)) {... */\n      tag_307\n      jumpi\n        /* \"@openzeppelin/contracts/access/AccessControl.sol\":6315:6327  _roles[role] */\n      0x00\n      dup4\n      dup2\n      mstore\n        /* \"@openzeppelin/contracts/access/AccessControl.sol\":6315:6321  _roles */\n      0x05\n        /* \"@openzeppelin/contracts/access/AccessControl.sol\":6315:6327  _roles[role] */\n      0x20\n      swap1\n      dup2\n      mstore\n      0x40\n      dup1\n      dup4\n      keccak256\n      sub(shl(0xa0, 0x01), 0x01)\n        /* \"@openzeppelin/contracts/access/AccessControl.sol\":6315:6344  _roles[role].hasRole[account] */\n      dup7\n      and\n      dup5\n      mstore\n      swap1\n      swap2\n      mstore\n      swap1\n      keccak256\n        /* \"@openzeppelin/contracts/access/AccessControl.sol\":6315:6351  _roles[role].hasRole[account] = true */\n      dup1\n      sload\n      not(0xff)\n      and\n        /* \"@openzeppelin/contracts/access/AccessControl.sol\":6347:6351  true */\n      0x01\n        /* \"@openzeppelin/contracts/access/AccessControl.sol\":6315:6351  _roles[role].hasRole[account] = true */\n      or\n      swap1\n      sstore\n        /* \"@openzeppelin/contracts/access/AccessControl.sol\":6397:6409  _msgSender() */\n      tag_308\n        /* \"@openzeppelin/contracts/utils/Context.sol\":735:745  msg.sender */\n      caller\n      swap1\n        /* \"@openzeppelin/contracts/utils/Context.sol\":656:752  function _msgSender() internal view virtual returns (address) {... */\n      jump\n        /* \"@openzeppelin/contracts/access/AccessControl.sol\":6397:6409  _msgSender() */\n    tag_308:\n      sub(shl(0xa0, 0x01), 0x01)\n        /* \"@openzeppelin/contracts/access/AccessControl.sol\":6370:6410  RoleGranted(role, account, _msgSender()) */\n      and\n        /* \"@openzeppelin/contracts/access/AccessControl.sol\":6388:6395  account */\n      dup3\n      sub(shl(0xa0, 0x01), 0x01)\n        /* \"@openzeppelin/contracts/access/AccessControl.sol\":6370:6410  RoleGranted(role, account, _msgSender()) */\n      and\n        /* \"@openzeppelin/contracts/access/AccessControl.sol\":6382:6386  role */\n      dup5\n        /* \"@openzeppelin/contracts/access/AccessControl.sol\":6370:6410  RoleGranted(role, account, _msgSender()) */\n      0x2f8788117e7eff1d82e926ec794901d17c78024a50270940304540a733656f0d\n      mload(0x40)\n      mload(0x40)\n      dup1\n      swap2\n      sub\n      swap1\n      log4\n      pop\n        /* \"@openzeppelin/contracts/access/AccessControl.sol\":6431:6435  true */\n      0x01\n        /* \"@openzeppelin/contracts/access/AccessControl.sol\":6424:6435  return true */\n      jump(tag_171)\n        /* \"@openzeppelin/contracts/access/AccessControl.sol\":6272:6489  if (!hasRole(role, account)) {... */\n    tag_307:\n      pop\n        /* \"@openzeppelin/contracts/access/AccessControl.sol\":6473:6478  false */\n      0x00\n        /* \"@openzeppelin/contracts/access/AccessControl.sol\":6466:6478  return false */\n      jump(tag_171)\n        /* \"@openzeppelin/contracts/access/AccessControl.sol\":6730:7047  function _revokeRole(bytes32 role, address account) internal virtual returns (bool) {... */\n    tag_222:\n        /* \"@openzeppelin/contracts/access/AccessControl.sol\":6808:6812  bool */\n      0x00\n        /* \"@openzeppelin/contracts/access/AccessControl.sol\":6828:6850  hasRole(role, account) */\n      tag_311\n        /* \"@openzeppelin/contracts/access/AccessControl.sol\":6836:6840  role */\n      dup4\n        /* \"@openzeppelin/contracts/access/AccessControl.sol\":6842:6849  account */\n      dup4\n        /* \"@openzeppelin/contracts/access/AccessControl.sol\":6828:6835  hasRole */\n      tag_137\n        /* \"@openzeppelin/contracts/access/AccessControl.sol\":6828:6850  hasRole(role, account) */\n      jump\t// in\n    tag_311:\n        /* \"@openzeppelin/contracts/access/AccessControl.sol\":6824:7041  if (hasRole(role, account)) {... */\n      iszero\n      tag_307\n      jumpi\n        /* \"@openzeppelin/contracts/access/AccessControl.sol\":6898:6903  false */\n      0x00\n        /* \"@openzeppelin/contracts/access/AccessControl.sol\":6866:6878  _roles[role] */\n      dup4\n      dup2\n      mstore\n        /* \"@openzeppelin/contracts/access/AccessControl.sol\":6866:6872  _roles */\n      0x05\n        /* \"@openzeppelin/contracts/access/AccessControl.sol\":6866:6878  _roles[role] */\n      0x20\n      swap1\n      dup2\n      mstore\n      0x40\n      dup1\n      dup4\n      keccak256\n      sub(shl(0xa0, 0x01), 0x01)\n        /* \"@openzeppelin/contracts/access/AccessControl.sol\":6866:6895  _roles[role].hasRole[account] */\n      dup7\n      and\n      dup1\n      dup6\n      mstore\n      swap3\n      mstore\n      dup1\n      dup4\n      keccak256\n        /* \"@openzeppelin/contracts/access/AccessControl.sol\":6866:6903  _roles[role].hasRole[account] = false */\n      dup1\n      sload\n      not(0xff)\n      and\n      swap1\n      sstore\n        /* \"@openzeppelin/contracts/access/AccessControl.sol\":6922:6962  RoleRevoked(role, account, _msgSender()) */\n      mload\n        /* \"@openzeppelin/contracts/utils/Context.sol\":735:745  msg.sender */\n      caller\n      swap3\n        /* \"@openzeppelin/contracts/access/AccessControl.sol\":6866:6878  _roles[role] */\n      dup7\n      swap2\n        /* \"@openzeppelin/contracts/access/AccessControl.sol\":6922:6962  RoleRevoked(role, account, _msgSender()) */\n      0xf6391f5c32d9c69d2a47ea670b442974b53935d1edc7fd64eb21e047a839171b\n      swap2\n        /* \"@openzeppelin/contracts/access/AccessControl.sol\":6898:6903  false */\n      swap1\n        /* \"@openzeppelin/contracts/access/AccessControl.sol\":6922:6962  RoleRevoked(role, account, _msgSender()) */\n      log4\n      pop\n        /* \"@openzeppelin/contracts/access/AccessControl.sol\":6983:6987  true */\n      0x01\n        /* \"@openzeppelin/contracts/access/AccessControl.sol\":6976:6987  return true */\n      jump(tag_171)\n        /* \"@openzeppelin/contracts/security/Pausable.sol\":2433:2550  function _unpause() internal virtual whenPaused {... */\n    tag_227:\n        /* \"@openzeppelin/contracts/security/Pausable.sol\":1486:1502  _requirePaused() */\n      tag_316\n        /* \"@openzeppelin/contracts/security/Pausable.sol\":1486:1500  _requirePaused */\n      tag_317\n        /* \"@openzeppelin/contracts/security/Pausable.sol\":1486:1502  _requirePaused() */\n      jump\t// in\n    tag_316:\n        /* \"@openzeppelin/contracts/security/Pausable.sol\":2491:2498  _paused */\n      0x06\n        /* \"@openzeppelin/contracts/security/Pausable.sol\":2491:2506  _paused = false */\n      dup1\n      sload\n      not(0xff)\n      and\n      swap1\n      sstore\n        /* \"@openzeppelin/contracts/security/Pausable.sol\":2521:2543  Unpaused(_msgSender()) */\n      0x5db9ee0a495bf2e6ff9c91a7834c1ba4fdd244a5e8aa4e537bd38aeae4b073aa\n        /* \"@openzeppelin/contracts/utils/Context.sol\":735:745  msg.sender */\n      caller\n        /* \"@openzeppelin/contracts/security/Pausable.sol\":2530:2542  _msgSender() */\n    tag_319:\n        /* \"@openzeppelin/contracts/security/Pausable.sol\":2521:2543  Unpaused(_msgSender()) */\n      mload(0x40)\n      sub(shl(0xa0, 0x01), 0x01)\n        /* \"#utility.yul\":4160:4192   */\n      swap1\n      swap2\n      and\n        /* \"#utility.yul\":4142:4193   */\n      dup2\n      mstore\n        /* \"#utility.yul\":4130:4132   */\n      0x20\n        /* \"#utility.yul\":4115:4133   */\n      add\n        /* \"@openzeppelin/contracts/security/Pausable.sol\":2521:2543  Unpaused(_msgSender()) */\n      mload(0x40)\n      dup1\n      swap2\n      sub\n      swap1\n      log1\n        /* \"@openzeppelin/contracts/security/Pausable.sol\":2433:2550  function _unpause() internal virtual whenPaused {... */\n      jump\t// out\n        /* \"@openzeppelin/contracts/token/ERC20/ERC20.sol\":7984:8190  function _burn(address account, uint256 value) internal {... */\n    tag_231:\n      sub(shl(0xa0, 0x01), 0x01)\n        /* \"@openzeppelin/contracts/token/ERC20/ERC20.sol\":8054:8075  account == address(0) */\n      dup3\n      and\n        /* \"@openzeppelin/contracts/token/ERC20/ERC20.sol\":8050:8139  if (account == address(0)) {... */\n      tag_322\n      jumpi\n        /* \"@openzeppelin/contracts/token/ERC20/ERC20.sol\":8098:8128  ERC20InvalidSender(address(0)) */\n      mload(0x40)\n      shl(0xe1, 0x4b637e8f)\n      dup2\n      mstore\n        /* \"@openzeppelin/contracts/token/ERC20/ERC20.sol\":8125:8126  0 */\n      0x00\n        /* \"@openzeppelin/contracts/token/ERC20/ERC20.sol\":8098:8128  ERC20InvalidSender(address(0)) */\n      0x04\n      dup3\n      add\n        /* \"#utility.yul\":4142:4193   */\n      mstore\n        /* \"#utility.yul\":4115:4133   */\n      0x24\n      add\n        /* \"@openzeppelin/contracts/token/ERC20/ERC20.sol\":8098:8128  ERC20InvalidSender(address(0)) */\n      tag_192\n        /* \"#utility.yul\":3996:4199   */\n      jump\n        /* \"@openzeppelin/contracts/token/ERC20/ERC20.sol\":8050:8139  if (account == address(0)) {... */\n    tag_322:\n        /* \"@openzeppelin/contracts/token/ERC20/ERC20.sol\":8148:8183  _update(account, address(0), value) */\n      tag_244\n        /* \"@openzeppelin/contracts/token/ERC20/ERC20.sol\":8156:8163  account */\n      dup3\n        /* \"@openzeppelin/contracts/token/ERC20/ERC20.sol\":8173:8174  0 */\n      0x00\n        /* \"@openzeppelin/contracts/token/ERC20/ERC20.sol\":8177:8182  value */\n      dup4\n        /* \"@openzeppelin/contracts/token/ERC20/ERC20.sol\":8148:8155  _update */\n      tag_304\n        /* \"@openzeppelin/contracts/token/ERC20/ERC20.sol\":8148:8183  _update(account, address(0), value) */\n      jump\t// in\n        /* \"@openzeppelin/contracts/security/Pausable.sol\":2186:2301  function _pause() internal virtual whenNotPaused {... */\n    tag_249:\n        /* \"@openzeppelin/contracts/security/Pausable.sol\":1239:1258  _requireNotPaused() */\n      tag_326\n        /* \"@openzeppelin/contracts/security/Pausable.sol\":1239:1256  _requireNotPaused */\n      tag_327\n        /* \"@openzeppelin/contracts/security/Pausable.sol\":1239:1258  _requireNotPaused() */\n      jump\t// in\n    tag_326:\n        /* \"@openzeppelin/contracts/security/Pausable.sol\":2245:2252  _paused */\n      0x06\n        /* \"@openzeppelin/contracts/security/Pausable.sol\":2245:2259  _paused = true */\n      dup1\n      sload\n      not(0xff)\n      and\n        /* \"@openzeppelin/contracts/security/Pausable.sol\":2255:2259  true */\n      0x01\n        /* \"@openzeppelin/contracts/security/Pausable.sol\":2245:2259  _paused = true */\n      or\n      swap1\n      sstore\n        /* \"@openzeppelin/contracts/security/Pausable.sol\":2274:2294  Paused(_msgSender()) */\n      0x62e78cea01bee320cd4e420270b5ea74000d11b0c9f74754ebdbfc544b05a258\n        /* \"@openzeppelin/contracts/security/Pausable.sol\":2281:2293  _msgSender() */\n      tag_319\n        /* \"@openzeppelin/contracts/utils/Context.sol\":735:745  msg.sender */\n      caller\n      swap1\n        /* \"@openzeppelin/contracts/utils/Context.sol\":656:752  function _msgSender() internal view virtual returns (address) {... */\n      jump\n        /* \"@openzeppelin/contracts/token/ERC20/ERC20.sol\":9701:10133  function _approve(address owner, address spender, uint256 value, bool emitEvent) internal virtual {... */\n    tag_286:\n      sub(shl(0xa0, 0x01), 0x01)\n        /* \"@openzeppelin/contracts/token/ERC20/ERC20.sol\":9813:9832  owner == address(0) */\n      dup5\n      and\n        /* \"@openzeppelin/contracts/token/ERC20/ERC20.sol\":9809:9898  if (owner == address(0)) {... */\n      tag_333\n      jumpi\n        /* \"@openzeppelin/contracts/token/ERC20/ERC20.sol\":9855:9887  ERC20InvalidApprover(address(0)) */\n      mload(0x40)\n      shl(0xe0, 0xe602df05)\n      dup2\n      mstore\n        /* \"@openzeppelin/contracts/token/ERC20/ERC20.sol\":9884:9885  0 */\n      0x00\n        /* \"@openzeppelin/contracts/token/ERC20/ERC20.sol\":9855:9887  ERC20InvalidApprover(address(0)) */\n      0x04\n      dup3\n      add\n        /* \"#utility.yul\":4142:4193   */\n      mstore\n        /* \"#utility.yul\":4115:4133   */\n      0x24\n      add\n        /* \"@openzeppelin/contracts/token/ERC20/ERC20.sol\":9855:9887  ERC20InvalidApprover(address(0)) */\n      tag_192\n        /* \"#utility.yul\":3996:4199   */\n      jump\n        /* \"@openzeppelin/contracts/token/ERC20/ERC20.sol\":9809:9898  if (owner == address(0)) {... */\n    tag_333:\n      sub(shl(0xa0, 0x01), 0x01)\n        /* \"@openzeppelin/contracts/token/ERC20/ERC20.sol\":9911:9932  spender == address(0) */\n      dup4\n      and\n        /* \"@openzeppelin/contracts/token/ERC20/ERC20.sol\":9907:9997  if (spender == address(0)) {... */\n      tag_335\n      jumpi\n        /* \"@openzeppelin/contracts/token/ERC20/ERC20.sol\":9955:9986  ERC20InvalidSpender(address(0)) */\n      mload(0x40)\n      shl(0xe1, 0x4a1406b1)\n      dup2\n      mstore\n        /* \"@openzeppelin/contracts/token/ERC20/ERC20.sol\":9983:9984  0 */\n      0x00\n        /* \"@openzeppelin/contracts/token/ERC20/ERC20.sol\":9955:9986  ERC20InvalidSpender(address(0)) */\n      0x04\n      dup3\n      add\n        /* \"#utility.yul\":4142:4193   */\n      mstore\n        /* \"#utility.yul\":4115:4133   */\n      0x24\n      add\n        /* \"@openzeppelin/contracts/token/ERC20/ERC20.sol\":9955:9986  ERC20InvalidSpender(address(0)) */\n      tag_192\n        /* \"#utility.yul\":3996:4199   */\n      jump\n        /* \"@openzeppelin/contracts/token/ERC20/ERC20.sol\":9907:9997  if (spender == address(0)) {... */\n    tag_335:\n      sub(shl(0xa0, 0x01), 0x01)\n        /* \"@openzeppelin/contracts/token/ERC20/ERC20.sol\":10006:10024  _allowances[owner] */\n      dup1\n      dup6\n      and\n      0x00\n      swap1\n      dup2\n      mstore\n        /* \"@openzeppelin/contracts/token/ERC20/ERC20.sol\":10006:10017  _allowances */\n      0x01\n        /* \"@openzeppelin/contracts/token/ERC20/ERC20.sol\":10006:10024  _allowances[owner] */\n      0x20\n      swap1\n      dup2\n      mstore\n      0x40\n      dup1\n      dup4\n      keccak256\n        /* \"@openzeppelin/contracts/token/ERC20/ERC20.sol\":10006:10033  _allowances[owner][spender] */\n      swap4\n      dup8\n      and\n      dup4\n      mstore\n      swap3\n      swap1\n      mstore\n      keccak256\n        /* \"@openzeppelin/contracts/token/ERC20/ERC20.sol\":10006:10041  _allowances[owner][spender] = value */\n      dup3\n      swap1\n      sstore\n        /* \"@openzeppelin/contracts/token/ERC20/ERC20.sol\":10051:10127  if (emitEvent) {... */\n      dup1\n      iszero\n      tag_212\n      jumpi\n        /* \"@openzeppelin/contracts/token/ERC20/ERC20.sol\":10101:10108  spender */\n      dup3\n      sub(shl(0xa0, 0x01), 0x01)\n        /* \"@openzeppelin/contracts/token/ERC20/ERC20.sol\":10085:10116  Approval(owner, spender, value) */\n      and\n        /* \"@openzeppelin/contracts/token/ERC20/ERC20.sol\":10094:10099  owner */\n      dup5\n      sub(shl(0xa0, 0x01), 0x01)\n        /* \"@openzeppelin/contracts/token/ERC20/ERC20.sol\":10085:10116  Approval(owner, spender, value) */\n      and\n      0x8c5be1e5ebec7d5bd14f71427d1e84f3dd0314c0f7b2291e5b200ac8c7c3b925\n        /* \"@openzeppelin/contracts/token/ERC20/ERC20.sol\":10110:10115  value */\n      dup5\n        /* \"@openzeppelin/contracts/token/ERC20/ERC20.sol\":10085:10116  Approval(owner, spender, value) */\n      mload(0x40)\n      tag_338\n      swap2\n        /* \"#utility.yul\":2252:2277   */\n      dup2\n      mstore\n        /* \"#utility.yul\":2240:2242   */\n      0x20\n        /* \"#utility.yul\":2225:2243   */\n      add\n      swap1\n        /* \"#utility.yul\":2106:2283   */\n      jump\n        /* \"@openzeppelin/contracts/token/ERC20/ERC20.sol\":10085:10116  Approval(owner, spender, value) */\n    tag_338:\n      mload(0x40)\n      dup1\n      swap2\n      sub\n      swap1\n      log3\n        /* \"@openzeppelin/contracts/token/ERC20/ERC20.sol\":9701:10133  function _approve(address owner, address spender, uint256 value, bool emitEvent) internal virtual {... */\n      pop\n      pop\n      pop\n      pop\n      jump\t// out\n        /* \"@openzeppelin/contracts/access/AccessControl.sol\":3432:3629  function _checkRole(bytes32 role, address account) internal view virtual {... */\n    tag_290:\n        /* \"@openzeppelin/contracts/access/AccessControl.sol\":3520:3542  hasRole(role, account) */\n      tag_340\n        /* \"@openzeppelin/contracts/access/AccessControl.sol\":3528:3532  role */\n      dup3\n        /* \"@openzeppelin/contracts/access/AccessControl.sol\":3534:3541  account */\n      dup3\n        /* \"@openzeppelin/contracts/access/AccessControl.sol\":3520:3527  hasRole */\n      tag_137\n        /* \"@openzeppelin/contracts/access/AccessControl.sol\":3520:3542  hasRole(role, account) */\n      jump\t// in\n    tag_340:\n        /* \"@openzeppelin/contracts/access/AccessControl.sol\":3515:3623  if (!hasRole(role, account)) {... */\n      tag_244\n      jumpi\n        /* \"@openzeppelin/contracts/access/AccessControl.sol\":3565:3612  AccessControlUnauthorizedAccount(account, role) */\n      mload(0x40)\n      shl(0xe0, 0xe2517d3f)\n      dup2\n      mstore\n      sub(shl(0xa0, 0x01), 0x01)\n        /* \"#utility.yul\":7540:7572   */\n      dup3\n      and\n        /* \"@openzeppelin/contracts/access/AccessControl.sol\":3565:3612  AccessControlUnauthorizedAccount(account, role) */\n      0x04\n      dup3\n      add\n        /* \"#utility.yul\":7522:7573   */\n      mstore\n        /* \"#utility.yul\":7589:7607   */\n      0x24\n      dup2\n      add\n        /* \"#utility.yul\":7582:7616   */\n      dup4\n      swap1\n      mstore\n        /* \"#utility.yul\":7495:7513   */\n      0x44\n      add\n        /* \"@openzeppelin/contracts/access/AccessControl.sol\":3565:3612  AccessControlUnauthorizedAccount(account, role) */\n      tag_192\n        /* \"#utility.yul\":7348:7622   */\n      jump\n        /* \"contracts/LGG.sol\":2134:3372  function _update(... */\n    tag_304:\n        /* \"@openzeppelin/contracts/security/Pausable.sol\":1239:1258  _requireNotPaused() */\n      tag_345\n        /* \"@openzeppelin/contracts/security/Pausable.sol\":1239:1256  _requireNotPaused */\n      tag_327\n        /* \"@openzeppelin/contracts/security/Pausable.sol\":1239:1258  _requireNotPaused() */\n      jump\t// in\n    tag_345:\n      sub(shl(0xa0, 0x01), 0x01)\n        /* \"contracts/LGG.sol\":2319:2337  from == address(0) */\n      dup4\n      and\n      iszero\n      dup1\n        /* \"contracts/LGG.sol\":2319:2357  from == address(0) || to == address(0) */\n      tag_347\n      jumpi\n      pop\n      sub(shl(0xa0, 0x01), 0x01)\n        /* \"contracts/LGG.sol\":2341:2357  to == address(0) */\n      dup3\n      and\n      iszero\n        /* \"contracts/LGG.sol\":2319:2357  from == address(0) || to == address(0) */\n    tag_347:\n        /* \"contracts/LGG.sol\":2315:2438  if (from == address(0) || to == address(0)) {... */\n      iszero\n      tag_348\n      jumpi\n        /* \"contracts/LGG.sol\":2374:2405  super._update(from, to, amount) */\n      tag_221\n        /* \"contracts/LGG.sol\":2388:2392  from */\n      dup4\n        /* \"contracts/LGG.sol\":2394:2396  to */\n      dup4\n        /* \"contracts/LGG.sol\":2398:2404  amount */\n      dup4\n        /* \"contracts/LGG.sol\":2374:2387  super._update */\n      tag_350\n        /* \"contracts/LGG.sol\":2374:2405  super._update(from, to, amount) */\n      jump\t// in\n        /* \"contracts/LGG.sol\":2315:2438  if (from == address(0) || to == address(0)) {... */\n    tag_348:\n      sub(shl(0xa0, 0x01), 0x01)\n        /* \"contracts/LGG.sol\":2467:2486  isBlacklisted[from] */\n      dup4\n      and\n      0x00\n      swap1\n      dup2\n      mstore\n        /* \"contracts/LGG.sol\":2467:2480  isBlacklisted */\n      0x0e\n        /* \"contracts/LGG.sol\":2467:2486  isBlacklisted[from] */\n      0x20\n      mstore\n      0x40\n      swap1\n      keccak256\n      sload\n      0xff\n      and\n        /* \"contracts/LGG.sol\":2466:2486  !isBlacklisted[from] */\n      iszero\n        /* \"contracts/LGG.sol\":2466:2508  !isBlacklisted[from] && !isBlacklisted[to] */\n      dup1\n      iszero\n      tag_351\n      jumpi\n      pop\n      sub(shl(0xa0, 0x01), 0x01)\n        /* \"contracts/LGG.sol\":2491:2508  isBlacklisted[to] */\n      dup3\n      and\n      0x00\n      swap1\n      dup2\n      mstore\n        /* \"contracts/LGG.sol\":2491:2504  isBlacklisted */\n      0x0e\n        /* \"contracts/LGG.sol\":2491:2508  isBlacklisted[to] */\n      0x20\n      mstore\n      0x40\n      swap1\n      keccak256\n      sload\n      0xff\n      and\n        /* \"contracts/LGG.sol\":2490:2508  !isBlacklisted[to] */\n      iszero\n        /* \"contracts/LGG.sol\":2466:2508  !isBlacklisted[from] && !isBlacklisted[to] */\n    tag_351:\n        /* \"contracts/LGG.sol\":2458:2535  require(!isBlacklisted[from] && !isBlacklisted[to], \"Address is blacklisted\") */\n      tag_352\n      jumpi\n      mload(0x40)\n      shl(0xe5, 0x461bcd)\n      dup2\n      mstore\n        /* \"#utility.yul\":7829:7831   */\n      0x20\n        /* \"contracts/LGG.sol\":2458:2535  require(!isBlacklisted[from] && !isBlacklisted[to], \"Address is blacklisted\") */\n      0x04\n      dup3\n      add\n        /* \"#utility.yul\":7811:7832   */\n      mstore\n        /* \"#utility.yul\":7868:7870   */\n      0x16\n        /* \"#utility.yul\":7848:7866   */\n      0x24\n      dup3\n      add\n        /* \"#utility.yul\":7841:7871   */\n      mstore\n      shl(0x52, 0x1059191c995cdcc81a5cc8189b1858dadb1a5cdd1959)\n        /* \"#utility.yul\":7887:7905   */\n      0x44\n      dup3\n      add\n        /* \"#utility.yul\":7880:7932   */\n      mstore\n        /* \"#utility.yul\":7949:7967   */\n      0x64\n      add\n        /* \"contracts/LGG.sol\":2458:2535  require(!isBlacklisted[from] && !isBlacklisted[to], \"Address is blacklisted\") */\n      tag_192\n        /* \"#utility.yul\":7627:7973   */\n      jump\n        /* \"contracts/LGG.sol\":2458:2535  require(!isBlacklisted[from] && !isBlacklisted[to], \"Address is blacklisted\") */\n    tag_352:\n      sub(shl(0xa0, 0x01), 0x01)\n        /* \"contracts/LGG.sol\":2561:2584  isExcludedFromFee[from] */\n      dup4\n      and\n      0x00\n      swap1\n      dup2\n      mstore\n        /* \"contracts/LGG.sol\":2561:2578  isExcludedFromFee */\n      0x0d\n        /* \"contracts/LGG.sol\":2561:2584  isExcludedFromFee[from] */\n      0x20\n      mstore\n      0x40\n      swap1\n      keccak256\n      sload\n      0xff\n      and\n        /* \"contracts/LGG.sol\":2560:2584  !isExcludedFromFee[from] */\n      iszero\n        /* \"contracts/LGG.sol\":2560:2610  !isExcludedFromFee[from] && !isExcludedFromFee[to] */\n      dup1\n      iszero\n      tag_355\n      jumpi\n      pop\n      sub(shl(0xa0, 0x01), 0x01)\n        /* \"contracts/LGG.sol\":2589:2610  isExcludedFromFee[to] */\n      dup3\n      and\n      0x00\n      swap1\n      dup2\n      mstore\n        /* \"contracts/LGG.sol\":2589:2606  isExcludedFromFee */\n      0x0d\n        /* \"contracts/LGG.sol\":2589:2610  isExcludedFromFee[to] */\n      0x20\n      mstore\n      0x40\n      swap1\n      keccak256\n      sload\n      0xff\n      and\n        /* \"contracts/LGG.sol\":2588:2610  !isExcludedFromFee[to] */\n      iszero\n        /* \"contracts/LGG.sol\":2560:2610  !isExcludedFromFee[from] && !isExcludedFromFee[to] */\n    tag_355:\n        /* \"contracts/LGG.sol\":2556:3313  if (!isExcludedFromFee[from] && !isExcludedFromFee[to]) {... */\n      iszero\n      tag_356\n      jumpi\n        /* \"contracts/LGG.sol\":2645:2665  maxTransactionAmount */\n      sload(0x0b)\n        /* \"contracts/LGG.sol\":2635:2641  amount */\n      dup2\n        /* \"contracts/LGG.sol\":2635:2665  amount <= maxTransactionAmount */\n      gt\n      iszero\n        /* \"contracts/LGG.sol\":2627:2700  require(amount <= maxTransactionAmount, \"Exceeds max transaction amount\") */\n      tag_357\n      jumpi\n      mload(0x40)\n      shl(0xe5, 0x461bcd)\n      dup2\n      mstore\n        /* \"#utility.yul\":8180:8182   */\n      0x20\n        /* \"contracts/LGG.sol\":2627:2700  require(amount <= maxTransactionAmount, \"Exceeds max transaction amount\") */\n      0x04\n      dup3\n      add\n        /* \"#utility.yul\":8162:8183   */\n      mstore\n        /* \"#utility.yul\":8219:8221   */\n      0x1e\n        /* \"#utility.yul\":8199:8217   */\n      0x24\n      dup3\n      add\n        /* \"#utility.yul\":8192:8222   */\n      mstore\n        /* \"#utility.yul\":8258:8290   */\n      0x45786365656473206d6178207472616e73616374696f6e20616d6f756e740000\n        /* \"#utility.yul\":8238:8256   */\n      0x44\n      dup3\n      add\n        /* \"#utility.yul\":8231:8291   */\n      mstore\n        /* \"#utility.yul\":8308:8326   */\n      0x64\n      add\n        /* \"contracts/LGG.sol\":2627:2700  require(amount <= maxTransactionAmount, \"Exceeds max transaction amount\") */\n      tag_192\n        /* \"#utility.yul\":7978:8332   */\n      jump\n        /* \"contracts/LGG.sol\":2627:2700  require(amount <= maxTransactionAmount, \"Exceeds max transaction amount\") */\n    tag_357:\n        /* \"contracts/LGG.sol\":2749:2762  maxWalletSize */\n      sload(0x0c)\n        /* \"contracts/LGG.sol\":2739:2745  amount */\n      dup2\n        /* \"contracts/LGG.sol\":2723:2736  balanceOf(to) */\n      tag_360\n        /* \"contracts/LGG.sol\":2733:2735  to */\n      dup5\n      sub(shl(0xa0, 0x01), 0x01)\n        /* \"@openzeppelin/contracts/token/ERC20/ERC20.sol\":3095:3113  _balances[account] */\n      and\n        /* \"@openzeppelin/contracts/token/ERC20/ERC20.sol\":3069:3076  uint256 */\n      0x00\n        /* \"@openzeppelin/contracts/token/ERC20/ERC20.sol\":3095:3113  _balances[account] */\n      swap1\n      dup2\n      mstore\n      0x20\n      dup2\n      swap1\n      mstore\n      0x40\n      swap1\n      keccak256\n      sload\n      swap1\n        /* \"@openzeppelin/contracts/token/ERC20/ERC20.sol\":3004:3120  function balanceOf(address account) public view virtual returns (uint256) {... */\n      jump\n        /* \"contracts/LGG.sol\":2723:2736  balanceOf(to) */\n    tag_360:\n        /* \"contracts/LGG.sol\":2723:2745  balanceOf(to) + amount */\n      tag_361\n      swap2\n      swap1\n      tag_190\n      jump\t// in\n    tag_361:\n        /* \"contracts/LGG.sol\":2723:2762  balanceOf(to) + amount <= maxWalletSize */\n      gt\n      iszero\n        /* \"contracts/LGG.sol\":2715:2790  require(balanceOf(to) + amount <= maxWalletSize, \"Exceeds max wallet size\") */\n      tag_362\n      jumpi\n      mload(0x40)\n      shl(0xe5, 0x461bcd)\n      dup2\n      mstore\n        /* \"#utility.yul\":8539:8541   */\n      0x20\n        /* \"contracts/LGG.sol\":2715:2790  require(balanceOf(to) + amount <= maxWalletSize, \"Exceeds max wallet size\") */\n      0x04\n      dup3\n      add\n        /* \"#utility.yul\":8521:8542   */\n      mstore\n        /* \"#utility.yul\":8578:8580   */\n      0x17\n        /* \"#utility.yul\":8558:8576   */\n      0x24\n      dup3\n      add\n        /* \"#utility.yul\":8551:8581   */\n      mstore\n        /* \"#utility.yul\":8617:8642   */\n      0x45786365656473206d61782077616c6c65742073697a65000000000000000000\n        /* \"#utility.yul\":8597:8615   */\n      0x44\n      dup3\n      add\n        /* \"#utility.yul\":8590:8643   */\n      mstore\n        /* \"#utility.yul\":8660:8678   */\n      0x64\n      add\n        /* \"contracts/LGG.sol\":2715:2790  require(balanceOf(to) + amount <= maxWalletSize, \"Exceeds max wallet size\") */\n      tag_192\n        /* \"#utility.yul\":8337:8684   */\n      jump\n        /* \"contracts/LGG.sol\":2715:2790  require(balanceOf(to) + amount <= maxWalletSize, \"Exceeds max wallet size\") */\n    tag_362:\n        /* \"contracts/LGG.sol\":2819:2842  uint256 marketingTokens */\n      0x00\n        /* \"contracts/LGG.sol\":2871:2874  100 */\n      0x64\n        /* \"contracts/LGG.sol\":2855:2867  marketingFee */\n      sload(0x08)\n        /* \"contracts/LGG.sol\":2846:2852  amount */\n      dup4\n        /* \"contracts/LGG.sol\":2846:2867  amount * marketingFee */\n      tag_365\n      swap2\n      swap1\n      tag_366\n      jump\t// in\n    tag_365:\n        /* \"contracts/LGG.sol\":2845:2874  (amount * marketingFee) / 100 */\n      tag_367\n      swap2\n      swap1\n      tag_261\n      jump\t// in\n    tag_367:\n        /* \"contracts/LGG.sol\":2819:2874  uint256 marketingTokens = (amount * marketingFee) / 100 */\n      swap1\n      pop\n        /* \"contracts/LGG.sol\":2889:2912  uint256 liquidityTokens */\n      0x00\n        /* \"contracts/LGG.sol\":2941:2944  100 */\n      0x64\n        /* \"contracts/LGG.sol\":2925:2937  liquidityFee */\n      sload(0x09)\n        /* \"contracts/LGG.sol\":2916:2922  amount */\n      dup5\n        /* \"contracts/LGG.sol\":2916:2937  amount * liquidityFee */\n      tag_368\n      swap2\n      swap1\n      tag_366\n      jump\t// in\n    tag_368:\n        /* \"contracts/LGG.sol\":2915:2944  (amount * liquidityFee) / 100 */\n      tag_369\n      swap2\n      swap1\n      tag_261\n      jump\t// in\n    tag_369:\n        /* \"contracts/LGG.sol\":2889:2944  uint256 liquidityTokens = (amount * liquidityFee) / 100 */\n      swap1\n      pop\n        /* \"contracts/LGG.sol\":2959:2975  uint256 totalFee */\n      0x00\n        /* \"contracts/LGG.sol\":2978:3011  marketingTokens + liquidityTokens */\n      tag_370\n        /* \"contracts/LGG.sol\":2889:2944  uint256 liquidityTokens = (amount * liquidityFee) / 100 */\n      dup3\n        /* \"contracts/LGG.sol\":2978:2993  marketingTokens */\n      dup5\n        /* \"contracts/LGG.sol\":2978:3011  marketingTokens + liquidityTokens */\n      tag_190\n      jump\t// in\n    tag_370:\n        /* \"contracts/LGG.sol\":2959:3011  uint256 totalFee = marketingTokens + liquidityTokens */\n      swap1\n      pop\n        /* \"contracts/LGG.sol\":3044:3056  totalFee > 0 */\n      dup1\n      iszero\n        /* \"contracts/LGG.sol\":3040:3302  if (totalFee > 0) {... */\n      tag_371\n      jumpi\n        /* \"contracts/LGG.sol\":3097:3112  marketingWallet */\n      sload(0x0a)\n        /* \"contracts/LGG.sol\":3077:3130  super._update(from, marketingWallet, marketingTokens) */\n      tag_372\n      swap1\n        /* \"contracts/LGG.sol\":3091:3095  from */\n      dup8\n      swap1\n      sub(shl(0xa0, 0x01), 0x01)\n        /* \"contracts/LGG.sol\":3097:3112  marketingWallet */\n      and\n        /* \"contracts/LGG.sol\":3114:3129  marketingTokens */\n      dup6\n        /* \"contracts/LGG.sol\":3077:3090  super._update */\n      tag_350\n        /* \"contracts/LGG.sol\":3077:3130  super._update(from, marketingWallet, marketingTokens) */\n      jump\t// in\n    tag_372:\n        /* \"contracts/LGG.sol\":3149:3200  super._update(from, address(this), liquidityTokens) */\n      tag_373\n        /* \"contracts/LGG.sol\":3163:3167  from */\n      dup7\n        /* \"contracts/LGG.sol\":3177:3181  this */\n      address\n        /* \"contracts/LGG.sol\":3184:3199  liquidityTokens */\n      dup5\n        /* \"contracts/LGG.sol\":3149:3162  super._update */\n      tag_350\n        /* \"contracts/LGG.sol\":3149:3200  super._update(from, address(this), liquidityTokens) */\n      jump\t// in\n    tag_373:\n        /* \"contracts/LGG.sol\":3219:3261  super._update(from, to, amount - totalFee) */\n      tag_374\n        /* \"contracts/LGG.sol\":3233:3237  from */\n      dup7\n        /* \"contracts/LGG.sol\":3239:3241  to */\n      dup7\n        /* \"contracts/LGG.sol\":3243:3260  amount - totalFee */\n      tag_375\n        /* \"contracts/LGG.sol\":3252:3260  totalFee */\n      dup5\n        /* \"contracts/LGG.sol\":3243:3249  amount */\n      dup9\n        /* \"contracts/LGG.sol\":3243:3260  amount - totalFee */\n      tag_376\n      jump\t// in\n    tag_375:\n        /* \"contracts/LGG.sol\":3219:3232  super._update */\n      tag_350\n        /* \"contracts/LGG.sol\":3219:3261  super._update(from, to, amount - totalFee) */\n      jump\t// in\n    tag_374:\n        /* \"contracts/LGG.sol\":3280:3287  return; */\n      pop\n      pop\n      pop\n        /* \"@openzeppelin/contracts/access/AccessControl.sol\":5529:5566  _revokeRole(role, callerConfirmation) */\n      pop\n        /* \"@openzeppelin/contracts/access/AccessControl.sol\":5328:5573  function renounceRole(bytes32 role, address callerConfirmation) public virtual {... */\n      pop\n      pop\n      jump\t// out\n        /* \"contracts/LGG.sol\":3040:3302  if (totalFee > 0) {... */\n    tag_371:\n        /* \"contracts/LGG.sol\":2612:3313  {... */\n      pop\n      pop\n      pop\n        /* \"contracts/LGG.sol\":2556:3313  if (!isExcludedFromFee[from] && !isExcludedFromFee[to]) {... */\n    tag_356:\n        /* \"contracts/LGG.sol\":3333:3364  super._update(from, to, amount) */\n      tag_221\n        /* \"contracts/LGG.sol\":3347:3351  from */\n      dup4\n        /* \"contracts/LGG.sol\":3353:3355  to */\n      dup4\n        /* \"contracts/LGG.sol\":3357:3363  amount */\n      dup4\n        /* \"contracts/LGG.sol\":3333:3346  super._update */\n      tag_350\n        /* \"contracts/LGG.sol\":3333:3364  super._update(from, to, amount) */\n      jump\t// in\n        /* \"@openzeppelin/contracts/security/Pausable.sol\":1945:2051  function _requirePaused() internal view virtual {... */\n    tag_317:\n        /* \"@openzeppelin/contracts/security/Pausable.sol\":1685:1692  _paused */\n      and(0xff, sload(0x06))\n        /* \"@openzeppelin/contracts/security/Pausable.sol\":2003:2044  require(paused(), \"Pausable: not paused\") */\n      tag_380\n      jumpi\n      mload(0x40)\n      shl(0xe5, 0x461bcd)\n      dup2\n      mstore\n        /* \"#utility.yul\":9197:9199   */\n      0x20\n        /* \"@openzeppelin/contracts/security/Pausable.sol\":2003:2044  require(paused(), \"Pausable: not paused\") */\n      0x04\n      dup3\n      add\n        /* \"#utility.yul\":9179:9200   */\n      mstore\n        /* \"#utility.yul\":9236:9238   */\n      0x14\n        /* \"#utility.yul\":9216:9234   */\n      0x24\n      dup3\n      add\n        /* \"#utility.yul\":9209:9239   */\n      mstore\n      shl(0x62, 0x14185d5cd8589b194e881b9bdd081c185d5cd959)\n        /* \"#utility.yul\":9255:9273   */\n      0x44\n      dup3\n      add\n        /* \"#utility.yul\":9248:9298   */\n      mstore\n        /* \"#utility.yul\":9315:9333   */\n      0x64\n      add\n        /* \"@openzeppelin/contracts/security/Pausable.sol\":2003:2044  require(paused(), \"Pausable: not paused\") */\n      tag_192\n        /* \"#utility.yul\":8995:9339   */\n      jump\n        /* \"@openzeppelin/contracts/security/Pausable.sol\":2003:2044  require(paused(), \"Pausable: not paused\") */\n    tag_380:\n        /* \"@openzeppelin/contracts/security/Pausable.sol\":1945:2051  function _requirePaused() internal view virtual {... */\n      jump\t// out\n        /* \"@openzeppelin/contracts/security/Pausable.sol\":1767:1873  function _requireNotPaused() internal view virtual {... */\n    tag_327:\n        /* \"@openzeppelin/contracts/security/Pausable.sol\":1685:1692  _paused */\n      and(0xff, sload(0x06))\n        /* \"@openzeppelin/contracts/security/Pausable.sol\":1836:1845  !paused() */\n      iszero\n        /* \"@openzeppelin/contracts/security/Pausable.sol\":1828:1866  require(!paused(), \"Pausable: paused\") */\n      tag_380\n      jumpi\n      mload(0x40)\n      shl(0xe5, 0x461bcd)\n      dup2\n      mstore\n        /* \"#utility.yul\":9546:9548   */\n      0x20\n        /* \"@openzeppelin/contracts/security/Pausable.sol\":1828:1866  require(!paused(), \"Pausable: paused\") */\n      0x04\n      dup3\n      add\n        /* \"#utility.yul\":9528:9549   */\n      mstore\n        /* \"#utility.yul\":9585:9587   */\n      0x10\n        /* \"#utility.yul\":9565:9583   */\n      0x24\n      dup3\n      add\n        /* \"#utility.yul\":9558:9588   */\n      mstore\n      shl(0x82, 0x14185d5cd8589b194e881c185d5cd959)\n        /* \"#utility.yul\":9604:9622   */\n      0x44\n      dup3\n      add\n        /* \"#utility.yul\":9597:9643   */\n      mstore\n        /* \"#utility.yul\":9660:9678   */\n      0x64\n      add\n        /* \"@openzeppelin/contracts/security/Pausable.sol\":1828:1866  require(!paused(), \"Pausable: paused\") */\n      tag_192\n        /* \"#utility.yul\":9344:9684   */\n      jump\n        /* \"@openzeppelin/contracts/token/ERC20/ERC20.sol\":6008:7115  function _update(address from, address to, uint256 value) internal virtual {... */\n    tag_350:\n      sub(shl(0xa0, 0x01), 0x01)\n        /* \"@openzeppelin/contracts/token/ERC20/ERC20.sol\":6097:6115  from == address(0) */\n      dup4\n      and\n        /* \"@openzeppelin/contracts/token/ERC20/ERC20.sol\":6093:6633  if (from == address(0)) {... */\n      tag_389\n      jumpi\n        /* \"@openzeppelin/contracts/token/ERC20/ERC20.sol\":6249:6254  value */\n      dup1\n        /* \"@openzeppelin/contracts/token/ERC20/ERC20.sol\":6233:6245  _totalSupply */\n      0x02\n      0x00\n        /* \"@openzeppelin/contracts/token/ERC20/ERC20.sol\":6233:6254  _totalSupply += value */\n      dup3\n      dup3\n      sload\n      tag_390\n      swap2\n      swap1\n      tag_190\n      jump\t// in\n    tag_390:\n      swap1\n      swap2\n      sstore\n      pop\n        /* \"@openzeppelin/contracts/token/ERC20/ERC20.sol\":6093:6633  if (from == address(0)) {... */\n      tag_391\n      swap1\n      pop\n      jump\n    tag_389:\n      sub(shl(0xa0, 0x01), 0x01)\n        /* \"@openzeppelin/contracts/token/ERC20/ERC20.sol\":6307:6322  _balances[from] */\n      dup4\n      and\n        /* \"@openzeppelin/contracts/token/ERC20/ERC20.sol\":6285:6304  uint256 fromBalance */\n      0x00\n        /* \"@openzeppelin/contracts/token/ERC20/ERC20.sol\":6307:6322  _balances[from] */\n      swap1\n      dup2\n      mstore\n      0x20\n      dup2\n      swap1\n      mstore\n      0x40\n      swap1\n      keccak256\n      sload\n        /* \"@openzeppelin/contracts/token/ERC20/ERC20.sol\":6340:6359  fromBalance < value */\n      dup2\n      dup2\n      lt\n        /* \"@openzeppelin/contracts/token/ERC20/ERC20.sol\":6336:6451  if (fromBalance < value) {... */\n      iszero\n      tag_392\n      jumpi\n        /* \"@openzeppelin/contracts/token/ERC20/ERC20.sol\":6386:6436  ERC20InsufficientBalance(from, fromBalance, value) */\n      mload(0x40)\n      shl(0xe2, 0x391434e3)\n      dup2\n      mstore\n      sub(shl(0xa0, 0x01), 0x01)\n        /* \"#utility.yul\":7218:7250   */\n      dup6\n      and\n        /* \"@openzeppelin/contracts/token/ERC20/ERC20.sol\":6386:6436  ERC20InsufficientBalance(from, fromBalance, value) */\n      0x04\n      dup3\n      add\n        /* \"#utility.yul\":7200:7251   */\n      mstore\n        /* \"#utility.yul\":7267:7285   */\n      0x24\n      dup2\n      add\n        /* \"#utility.yul\":7260:7294   */\n      dup3\n      swap1\n      mstore\n        /* \"#utility.yul\":7310:7328   */\n      0x44\n      dup2\n      add\n        /* \"#utility.yul\":7303:7337   */\n      dup4\n      swap1\n      mstore\n        /* \"#utility.yul\":7173:7191   */\n      0x64\n      add\n        /* \"@openzeppelin/contracts/token/ERC20/ERC20.sol\":6386:6436  ERC20InsufficientBalance(from, fromBalance, value) */\n      tag_192\n        /* \"#utility.yul\":6998:7343   */\n      jump\n        /* \"@openzeppelin/contracts/token/ERC20/ERC20.sol\":6336:6451  if (fromBalance < value) {... */\n    tag_392:\n      sub(shl(0xa0, 0x01), 0x01)\n        /* \"@openzeppelin/contracts/token/ERC20/ERC20.sol\":6571:6586  _balances[from] */\n      dup5\n      and\n        /* \"@openzeppelin/contracts/token/ERC20/ERC20.sol\":6571:6580  _balances */\n      0x00\n        /* \"@openzeppelin/contracts/token/ERC20/ERC20.sol\":6571:6586  _balances[from] */\n      swap1\n      dup2\n      mstore\n      0x20\n      dup2\n      swap1\n      mstore\n      0x40\n      swap1\n      keccak256\n        /* \"@openzeppelin/contracts/token/ERC20/ERC20.sol\":6589:6608  fromBalance - value */\n      swap1\n      dup3\n      swap1\n      sub\n        /* \"@openzeppelin/contracts/token/ERC20/ERC20.sol\":6571:6608  _balances[from] = fromBalance - value */\n      swap1\n      sstore\n        /* \"@openzeppelin/contracts/token/ERC20/ERC20.sol\":6093:6633  if (from == address(0)) {... */\n    tag_391:\n      sub(shl(0xa0, 0x01), 0x01)\n        /* \"@openzeppelin/contracts/token/ERC20/ERC20.sol\":6647:6663  to == address(0) */\n      dup3\n      and\n        /* \"@openzeppelin/contracts/token/ERC20/ERC20.sol\":6643:7068  if (to == address(0)) {... */\n      tag_394\n      jumpi\n        /* \"@openzeppelin/contracts/token/ERC20/ERC20.sol\":6810:6822  _totalSupply */\n      0x02\n        /* \"@openzeppelin/contracts/token/ERC20/ERC20.sol\":6810:6831  _totalSupply -= value */\n      dup1\n      sload\n      dup3\n      swap1\n      sub\n      swap1\n      sstore\n        /* \"@openzeppelin/contracts/token/ERC20/ERC20.sol\":6643:7068  if (to == address(0)) {... */\n      jump(tag_395)\n    tag_394:\n      sub(shl(0xa0, 0x01), 0x01)\n        /* \"@openzeppelin/contracts/token/ERC20/ERC20.sol\":7021:7034  _balances[to] */\n      dup3\n      and\n        /* \"@openzeppelin/contracts/token/ERC20/ERC20.sol\":7021:7030  _balances */\n      0x00\n        /* \"@openzeppelin/contracts/token/ERC20/ERC20.sol\":7021:7034  _balances[to] */\n      swap1\n      dup2\n      mstore\n      0x20\n      dup2\n      swap1\n      mstore\n      0x40\n      swap1\n      keccak256\n        /* \"@openzeppelin/contracts/token/ERC20/ERC20.sol\":7021:7043  _balances[to] += value */\n      dup1\n      sload\n      dup3\n      add\n      swap1\n      sstore\n        /* \"@openzeppelin/contracts/token/ERC20/ERC20.sol\":6643:7068  if (to == address(0)) {... */\n    tag_395:\n        /* \"@openzeppelin/contracts/token/ERC20/ERC20.sol\":7098:7100  to */\n      dup2\n      sub(shl(0xa0, 0x01), 0x01)\n        /* \"@openzeppelin/contracts/token/ERC20/ERC20.sol\":7083:7108  Transfer(from, to, value) */\n      and\n        /* \"@openzeppelin/contracts/token/ERC20/ERC20.sol\":7092:7096  from */\n      dup4\n      sub(shl(0xa0, 0x01), 0x01)\n        /* \"@openzeppelin/contracts/token/ERC20/ERC20.sol\":7083:7108  Transfer(from, to, value) */\n      and\n      0xddf252ad1be2c89b69c2b068fc378daa952ba7f163c4a11628f55a4df523b3ef\n        /* \"@openzeppelin/contracts/token/ERC20/ERC20.sol\":7102:7107  value */\n      dup4\n        /* \"@openzeppelin/contracts/token/ERC20/ERC20.sol\":7083:7108  Transfer(from, to, value) */\n      mload(0x40)\n      tag_396\n      swap2\n        /* \"#utility.yul\":2252:2277   */\n      dup2\n      mstore\n        /* \"#utility.yul\":2240:2242   */\n      0x20\n        /* \"#utility.yul\":2225:2243   */\n      add\n      swap1\n        /* \"#utility.yul\":2106:2283   */\n      jump\n        /* \"@openzeppelin/contracts/token/ERC20/ERC20.sol\":7083:7108  Transfer(from, to, value) */\n    tag_396:\n      mload(0x40)\n      dup1\n      swap2\n      sub\n      swap1\n      log3\n        /* \"@openzeppelin/contracts/token/ERC20/ERC20.sol\":6008:7115  function _update(address from, address to, uint256 value) internal virtual {... */\n      pop\n      pop\n      pop\n      jump\t// out\n        /* \"#utility.yul\":14:300   */\n    tag_46:\n        /* \"#utility.yul\":72:78   */\n      0x00\n        /* \"#utility.yul\":125:127   */\n      0x20\n        /* \"#utility.yul\":113:122   */\n      dup3\n        /* \"#utility.yul\":104:111   */\n      dup5\n        /* \"#utility.yul\":100:123   */\n      sub\n        /* \"#utility.yul\":96:128   */\n      slt\n        /* \"#utility.yul\":93:145   */\n      iszero\n      tag_401\n      jumpi\n        /* \"#utility.yul\":141:142   */\n      0x00\n        /* \"#utility.yul\":138:139   */\n      0x00\n        /* \"#utility.yul\":131:143   */\n      revert\n        /* \"#utility.yul\":93:145   */\n    tag_401:\n        /* \"#utility.yul\":167:190   */\n      dup2\n      calldataload\n      not(sub(shl(0xe0, 0x01), 0x01))\n        /* \"#utility.yul\":219:251   */\n      dup2\n      and\n        /* \"#utility.yul\":209:252   */\n      dup2\n      eq\n        /* \"#utility.yul\":199:270   */\n      tag_402\n      jumpi\n        /* \"#utility.yul\":266:267   */\n      0x00\n        /* \"#utility.yul\":263:264   */\n      0x00\n        /* \"#utility.yul\":256:268   */\n      revert\n        /* \"#utility.yul\":199:270   */\n    tag_402:\n        /* \"#utility.yul\":289:294   */\n      swap4\n        /* \"#utility.yul\":14:300   */\n      swap3\n      pop\n      pop\n      pop\n      jump\t// out\n        /* \"#utility.yul\":497:915   */\n    tag_53:\n        /* \"#utility.yul\":646:648   */\n      0x20\n        /* \"#utility.yul\":635:644   */\n      dup2\n        /* \"#utility.yul\":628:649   */\n      mstore\n        /* \"#utility.yul\":609:613   */\n      0x00\n        /* \"#utility.yul\":678:684   */\n      dup3\n        /* \"#utility.yul\":672:685   */\n      mload\n        /* \"#utility.yul\":721:727   */\n      dup1\n        /* \"#utility.yul\":716:718   */\n      0x20\n        /* \"#utility.yul\":705:714   */\n      dup5\n        /* \"#utility.yul\":701:719   */\n      add\n        /* \"#utility.yul\":694:728   */\n      mstore\n        /* \"#utility.yul\":780:786   */\n      dup1\n        /* \"#utility.yul\":775:777   */\n      0x20\n        /* \"#utility.yul\":767:773   */\n      dup6\n        /* \"#utility.yul\":763:778   */\n      add\n        /* \"#utility.yul\":758:760   */\n      0x40\n        /* \"#utility.yul\":747:756   */\n      dup6\n        /* \"#utility.yul\":743:761   */\n      add\n        /* \"#utility.yul\":737:787   */\n      mcopy\n        /* \"#utility.yul\":836:837   */\n      0x00\n        /* \"#utility.yul\":831:833   */\n      0x40\n        /* \"#utility.yul\":822:828   */\n      dup3\n        /* \"#utility.yul\":811:820   */\n      dup6\n        /* \"#utility.yul\":807:829   */\n      add\n        /* \"#utility.yul\":803:834   */\n      add\n        /* \"#utility.yul\":796:838   */\n      mstore\n        /* \"#utility.yul\":906:908   */\n      0x40\n        /* \"#utility.yul\":899:901   */\n      0x1f\n        /* \"#utility.yul\":895:902   */\n      not\n        /* \"#utility.yul\":890:892   */\n      0x1f\n        /* \"#utility.yul\":882:888   */\n      dup4\n        /* \"#utility.yul\":878:893   */\n      add\n        /* \"#utility.yul\":874:903   */\n      and\n        /* \"#utility.yul\":863:872   */\n      dup5\n        /* \"#utility.yul\":859:904   */\n      add\n        /* \"#utility.yul\":855:909   */\n      add\n        /* \"#utility.yul\":847:909   */\n      swap2\n      pop\n      pop\n        /* \"#utility.yul\":497:915   */\n      swap3\n      swap2\n      pop\n      pop\n      jump\t// out\n        /* \"#utility.yul\":920:1093   */\n    tag_397:\n        /* \"#utility.yul\":988:1008   */\n      dup1\n      calldataload\n      sub(shl(0xa0, 0x01), 0x01)\n        /* \"#utility.yul\":1037:1068   */\n      dup2\n      and\n        /* \"#utility.yul\":1027:1069   */\n      dup2\n      eq\n        /* \"#utility.yul\":1017:1087   */\n      tag_406\n      jumpi\n        /* \"#utility.yul\":1083:1084   */\n      0x00\n        /* \"#utility.yul\":1080:1081   */\n      0x00\n        /* \"#utility.yul\":1073:1085   */\n      revert\n        /* \"#utility.yul\":1017:1087   */\n    tag_406:\n        /* \"#utility.yul\":920:1093   */\n      swap2\n      swap1\n      pop\n      jump\t// out\n        /* \"#utility.yul\":1098:1398   */\n    tag_56:\n        /* \"#utility.yul\":1166:1172   */\n      0x00\n        /* \"#utility.yul\":1174:1180   */\n      0x00\n        /* \"#utility.yul\":1227:1229   */\n      0x40\n        /* \"#utility.yul\":1215:1224   */\n      dup4\n        /* \"#utility.yul\":1206:1213   */\n      dup6\n        /* \"#utility.yul\":1202:1225   */\n      sub\n        /* \"#utility.yul\":1198:1230   */\n      slt\n        /* \"#utility.yul\":1195:1247   */\n      iszero\n      tag_408\n      jumpi\n        /* \"#utility.yul\":1243:1244   */\n      0x00\n        /* \"#utility.yul\":1240:1241   */\n      0x00\n        /* \"#utility.yul\":1233:1245   */\n      revert\n        /* \"#utility.yul\":1195:1247   */\n    tag_408:\n        /* \"#utility.yul\":1266:1295   */\n      tag_409\n        /* \"#utility.yul\":1285:1294   */\n      dup4\n        /* \"#utility.yul\":1266:1295   */\n      tag_397\n      jump\t// in\n    tag_409:\n        /* \"#utility.yul\":1256:1295   */\n      swap5\n        /* \"#utility.yul\":1364:1366   */\n      0x20\n        /* \"#utility.yul\":1349:1367   */\n      swap4\n      swap1\n      swap4\n      add\n        /* \"#utility.yul\":1336:1368   */\n      calldataload\n      swap4\n      pop\n      pop\n      pop\n        /* \"#utility.yul\":1098:1398   */\n      jump\t// out\n        /* \"#utility.yul\":1403:1749   */\n    tag_61:\n        /* \"#utility.yul\":1471:1477   */\n      0x00\n        /* \"#utility.yul\":1479:1485   */\n      0x00\n        /* \"#utility.yul\":1532:1534   */\n      0x40\n        /* \"#utility.yul\":1520:1529   */\n      dup4\n        /* \"#utility.yul\":1511:1518   */\n      dup6\n        /* \"#utility.yul\":1507:1530   */\n      sub\n        /* \"#utility.yul\":1503:1535   */\n      slt\n        /* \"#utility.yul\":1500:1552   */\n      iszero\n      tag_411\n      jumpi\n        /* \"#utility.yul\":1548:1549   */\n      0x00\n        /* \"#utility.yul\":1545:1546   */\n      0x00\n        /* \"#utility.yul\":1538:1550   */\n      revert\n        /* \"#utility.yul\":1500:1552   */\n    tag_411:\n      pop\n      pop\n        /* \"#utility.yul\":1593:1616   */\n      dup1\n      calldataload\n      swap3\n        /* \"#utility.yul\":1713:1715   */\n      0x20\n        /* \"#utility.yul\":1698:1716   */\n      swap1\n      swap2\n      add\n        /* \"#utility.yul\":1685:1717   */\n      calldataload\n      swap2\n      pop\n        /* \"#utility.yul\":1403:1749   */\n      jump\t// out\n        /* \"#utility.yul\":1754:2101   */\n    tag_65:\n        /* \"#utility.yul\":1819:1825   */\n      0x00\n        /* \"#utility.yul\":1827:1833   */\n      0x00\n        /* \"#utility.yul\":1880:1882   */\n      0x40\n        /* \"#utility.yul\":1868:1877   */\n      dup4\n        /* \"#utility.yul\":1859:1866   */\n      dup6\n        /* \"#utility.yul\":1855:1878   */\n      sub\n        /* \"#utility.yul\":1851:1883   */\n      slt\n        /* \"#utility.yul\":1848:1900   */\n      iszero\n      tag_413\n      jumpi\n        /* \"#utility.yul\":1896:1897   */\n      0x00\n        /* \"#utility.yul\":1893:1894   */\n      0x00\n        /* \"#utility.yul\":1886:1898   */\n      revert\n        /* \"#utility.yul\":1848:1900   */\n    tag_413:\n        /* \"#utility.yul\":1919:1948   */\n      tag_414\n        /* \"#utility.yul\":1938:1947   */\n      dup4\n        /* \"#utility.yul\":1919:1948   */\n      tag_397\n      jump\t// in\n    tag_414:\n        /* \"#utility.yul\":1909:1948   */\n      swap2\n      pop\n        /* \"#utility.yul\":1998:2000   */\n      0x20\n        /* \"#utility.yul\":1987:1996   */\n      dup4\n        /* \"#utility.yul\":1983:2001   */\n      add\n        /* \"#utility.yul\":1970:2002   */\n      calldataload\n        /* \"#utility.yul\":2045:2050   */\n      dup1\n        /* \"#utility.yul\":2038:2051   */\n      iszero\n        /* \"#utility.yul\":2031:2052   */\n      iszero\n        /* \"#utility.yul\":2024:2029   */\n      dup2\n        /* \"#utility.yul\":2021:2053   */\n      eq\n        /* \"#utility.yul\":2011:2071   */\n      tag_415\n      jumpi\n        /* \"#utility.yul\":2067:2068   */\n      0x00\n        /* \"#utility.yul\":2064:2065   */\n      0x00\n        /* \"#utility.yul\":2057:2069   */\n      revert\n        /* \"#utility.yul\":2011:2071   */\n    tag_415:\n        /* \"#utility.yul\":2090:2095   */\n      dup1\n        /* \"#utility.yul\":2080:2095   */\n      swap2\n      pop\n      pop\n        /* \"#utility.yul\":1754:2101   */\n      swap3\n      pop\n      swap3\n      swap1\n      pop\n      jump\t// out\n        /* \"#utility.yul\":2288:2662   */\n    tag_73:\n        /* \"#utility.yul\":2365:2371   */\n      0x00\n        /* \"#utility.yul\":2373:2379   */\n      0x00\n        /* \"#utility.yul\":2381:2387   */\n      0x00\n        /* \"#utility.yul\":2434:2436   */\n      0x60\n        /* \"#utility.yul\":2422:2431   */\n      dup5\n        /* \"#utility.yul\":2413:2420   */\n      dup7\n        /* \"#utility.yul\":2409:2432   */\n      sub\n        /* \"#utility.yul\":2405:2437   */\n      slt\n        /* \"#utility.yul\":2402:2454   */\n      iszero\n      tag_418\n      jumpi\n        /* \"#utility.yul\":2450:2451   */\n      0x00\n        /* \"#utility.yul\":2447:2448   */\n      0x00\n        /* \"#utility.yul\":2440:2452   */\n      revert\n        /* \"#utility.yul\":2402:2454   */\n    tag_418:\n        /* \"#utility.yul\":2473:2502   */\n      tag_419\n        /* \"#utility.yul\":2492:2501   */\n      dup5\n        /* \"#utility.yul\":2473:2502   */\n      tag_397\n      jump\t// in\n    tag_419:\n        /* \"#utility.yul\":2463:2502   */\n      swap3\n      pop\n        /* \"#utility.yul\":2521:2559   */\n      tag_420\n        /* \"#utility.yul\":2555:2557   */\n      0x20\n        /* \"#utility.yul\":2544:2553   */\n      dup6\n        /* \"#utility.yul\":2540:2558   */\n      add\n        /* \"#utility.yul\":2521:2559   */\n      tag_397\n      jump\t// in\n    tag_420:\n        /* \"#utility.yul\":2288:2662   */\n      swap3\n      swap6\n        /* \"#utility.yul\":2511:2559   */\n      swap3\n      swap5\n      pop\n      pop\n      pop\n        /* \"#utility.yul\":2628:2630   */\n      0x40\n        /* \"#utility.yul\":2613:2631   */\n      swap2\n      swap1\n      swap2\n      add\n        /* \"#utility.yul\":2600:2632   */\n      calldataload\n      swap1\n        /* \"#utility.yul\":2288:2662   */\n      jump\t// out\n        /* \"#utility.yul\":2667:2893   */\n    tag_78:\n        /* \"#utility.yul\":2726:2732   */\n      0x00\n        /* \"#utility.yul\":2779:2781   */\n      0x20\n        /* \"#utility.yul\":2767:2776   */\n      dup3\n        /* \"#utility.yul\":2758:2765   */\n      dup5\n        /* \"#utility.yul\":2754:2777   */\n      sub\n        /* \"#utility.yul\":2750:2782   */\n      slt\n        /* \"#utility.yul\":2747:2799   */\n      iszero\n      tag_422\n      jumpi\n        /* \"#utility.yul\":2795:2796   */\n      0x00\n        /* \"#utility.yul\":2792:2793   */\n      0x00\n        /* \"#utility.yul\":2785:2797   */\n      revert\n        /* \"#utility.yul\":2747:2799   */\n    tag_422:\n      pop\n        /* \"#utility.yul\":2840:2863   */\n      calldataload\n      swap2\n        /* \"#utility.yul\":2667:2893   */\n      swap1\n      pop\n      jump\t// out\n        /* \"#utility.yul\":3080:3380   */\n    tag_84:\n        /* \"#utility.yul\":3148:3154   */\n      0x00\n        /* \"#utility.yul\":3156:3162   */\n      0x00\n        /* \"#utility.yul\":3209:3211   */\n      0x40\n        /* \"#utility.yul\":3197:3206   */\n      dup4\n        /* \"#utility.yul\":3188:3195   */\n      dup6\n        /* \"#utility.yul\":3184:3207   */\n      sub\n        /* \"#utility.yul\":3180:3212   */\n      slt\n        /* \"#utility.yul\":3177:3229   */\n      iszero\n      tag_425\n      jumpi\n        /* \"#utility.yul\":3225:3226   */\n      0x00\n        /* \"#utility.yul\":3222:3223   */\n      0x00\n        /* \"#utility.yul\":3215:3227   */\n      revert\n        /* \"#utility.yul\":3177:3229   */\n    tag_425:\n        /* \"#utility.yul\":3270:3293   */\n      dup3\n      calldataload\n      swap2\n      pop\n        /* \"#utility.yul\":3336:3374   */\n      tag_426\n        /* \"#utility.yul\":3370:3372   */\n      0x20\n        /* \"#utility.yul\":3355:3373   */\n      dup5\n      add\n        /* \"#utility.yul\":3336:3374   */\n      tag_397\n      jump\t// in\n    tag_426:\n        /* \"#utility.yul\":3326:3374   */\n      swap1\n      pop\n        /* \"#utility.yul\":3080:3380   */\n      swap3\n      pop\n      swap3\n      swap1\n      pop\n      jump\t// out\n        /* \"#utility.yul\":3805:3991   */\n    tag_104:\n        /* \"#utility.yul\":3864:3870   */\n      0x00\n        /* \"#utility.yul\":3917:3919   */\n      0x20\n        /* \"#utility.yul\":3905:3914   */\n      dup3\n        /* \"#utility.yul\":3896:3903   */\n      dup5\n        /* \"#utility.yul\":3892:3915   */\n      sub\n        /* \"#utility.yul\":3888:3920   */\n      slt\n        /* \"#utility.yul\":3885:3937   */\n      iszero\n      tag_431\n      jumpi\n        /* \"#utility.yul\":3933:3934   */\n      0x00\n        /* \"#utility.yul\":3930:3931   */\n      0x00\n        /* \"#utility.yul\":3923:3935   */\n      revert\n        /* \"#utility.yul\":3885:3937   */\n    tag_431:\n        /* \"#utility.yul\":3956:3985   */\n      tag_402\n        /* \"#utility.yul\":3975:3984   */\n      dup3\n        /* \"#utility.yul\":3956:3985   */\n      tag_397\n      jump\t// in\n        /* \"#utility.yul\":4204:4464   */\n    tag_163:\n        /* \"#utility.yul\":4272:4278   */\n      0x00\n        /* \"#utility.yul\":4280:4286   */\n      0x00\n        /* \"#utility.yul\":4333:4335   */\n      0x40\n        /* \"#utility.yul\":4321:4330   */\n      dup4\n        /* \"#utility.yul\":4312:4319   */\n      dup6\n        /* \"#utility.yul\":4308:4331   */\n      sub\n        /* \"#utility.yul\":4304:4336   */\n      slt\n        /* \"#utility.yul\":4301:4353   */\n      iszero\n      tag_435\n      jumpi\n        /* \"#utility.yul\":4349:4350   */\n      0x00\n        /* \"#utility.yul\":4346:4347   */\n      0x00\n        /* \"#utility.yul\":4339:4351   */\n      revert\n        /* \"#utility.yul\":4301:4353   */\n    tag_435:\n        /* \"#utility.yul\":4372:4401   */\n      tag_436\n        /* \"#utility.yul\":4391:4400   */\n      dup4\n        /* \"#utility.yul\":4372:4401   */\n      tag_397\n      jump\t// in\n    tag_436:\n        /* \"#utility.yul\":4362:4401   */\n      swap2\n      pop\n        /* \"#utility.yul\":4420:4458   */\n      tag_426\n        /* \"#utility.yul\":4454:4456   */\n      0x20\n        /* \"#utility.yul\":4443:4452   */\n      dup5\n        /* \"#utility.yul\":4439:4457   */\n      add\n        /* \"#utility.yul\":4420:4458   */\n      tag_397\n      jump\t// in\n        /* \"#utility.yul\":4469:4849   */\n    tag_175:\n        /* \"#utility.yul\":4548:4549   */\n      0x01\n        /* \"#utility.yul\":4544:4556   */\n      dup2\n      dup2\n      shr\n      swap1\n        /* \"#utility.yul\":4591:4603   */\n      dup3\n      and\n      dup1\n        /* \"#utility.yul\":4612:4673   */\n      tag_439\n      jumpi\n        /* \"#utility.yul\":4666:4670   */\n      0x7f\n        /* \"#utility.yul\":4658:4664   */\n      dup3\n        /* \"#utility.yul\":4654:4671   */\n      and\n        /* \"#utility.yul\":4644:4671   */\n      swap2\n      pop\n        /* \"#utility.yul\":4612:4673   */\n    tag_439:\n        /* \"#utility.yul\":4719:4721   */\n      0x20\n        /* \"#utility.yul\":4711:4717   */\n      dup3\n        /* \"#utility.yul\":4708:4722   */\n      lt\n        /* \"#utility.yul\":4688:4706   */\n      dup2\n        /* \"#utility.yul\":4685:4723   */\n      sub\n        /* \"#utility.yul\":4682:4843   */\n      tag_440\n      jumpi\n        /* \"#utility.yul\":4765:4775   */\n      0x4e487b71\n        /* \"#utility.yul\":4760:4763   */\n      0xe0\n        /* \"#utility.yul\":4756:4776   */\n      shl\n        /* \"#utility.yul\":4753:4754   */\n      0x00\n        /* \"#utility.yul\":4746:4777   */\n      mstore\n        /* \"#utility.yul\":4800:4804   */\n      0x22\n        /* \"#utility.yul\":4797:4798   */\n      0x04\n        /* \"#utility.yul\":4790:4805   */\n      mstore\n        /* \"#utility.yul\":4828:4832   */\n      0x24\n        /* \"#utility.yul\":4825:4826   */\n      0x00\n        /* \"#utility.yul\":4818:4833   */\n      revert\n        /* \"#utility.yul\":4682:4843   */\n    tag_440:\n      pop\n        /* \"#utility.yul\":4469:4849   */\n      swap2\n      swap1\n      pop\n      jump\t// out\n        /* \"#utility.yul\":4854:4981   */\n    tag_398:\n        /* \"#utility.yul\":4915:4925   */\n      0x4e487b71\n        /* \"#utility.yul\":4910:4913   */\n      0xe0\n        /* \"#utility.yul\":4906:4926   */\n      shl\n        /* \"#utility.yul\":4903:4904   */\n      0x00\n        /* \"#utility.yul\":4896:4927   */\n      mstore\n        /* \"#utility.yul\":4946:4950   */\n      0x11\n        /* \"#utility.yul\":4943:4944   */\n      0x04\n        /* \"#utility.yul\":4936:4951   */\n      mstore\n        /* \"#utility.yul\":4970:4974   */\n      0x24\n        /* \"#utility.yul\":4967:4968   */\n      0x00\n        /* \"#utility.yul\":4960:4975   */\n      revert\n        /* \"#utility.yul\":4986:5111   */\n    tag_190:\n        /* \"#utility.yul\":5051:5060   */\n      dup1\n      dup3\n      add\n        /* \"#utility.yul\":5072:5082   */\n      dup1\n      dup3\n      gt\n        /* \"#utility.yul\":5069:5105   */\n      iszero\n      tag_171\n      jumpi\n        /* \"#utility.yul\":5085:5103   */\n      tag_171\n      tag_398\n      jump\t// in\n        /* \"#utility.yul\":6086:6303   */\n    tag_261:\n        /* \"#utility.yul\":6126:6127   */\n      0x00\n        /* \"#utility.yul\":6152:6153   */\n      dup3\n        /* \"#utility.yul\":6142:6274   */\n      tag_449\n      jumpi\n        /* \"#utility.yul\":6196:6206   */\n      0x4e487b71\n        /* \"#utility.yul\":6191:6194   */\n      0xe0\n        /* \"#utility.yul\":6187:6207   */\n      shl\n        /* \"#utility.yul\":6184:6185   */\n      0x00\n        /* \"#utility.yul\":6177:6208   */\n      mstore\n        /* \"#utility.yul\":6231:6235   */\n      0x12\n        /* \"#utility.yul\":6228:6229   */\n      0x04\n        /* \"#utility.yul\":6221:6236   */\n      mstore\n        /* \"#utility.yul\":6259:6263   */\n      0x24\n        /* \"#utility.yul\":6256:6257   */\n      0x00\n        /* \"#utility.yul\":6249:6264   */\n      revert\n        /* \"#utility.yul\":6142:6274   */\n    tag_449:\n      pop\n        /* \"#utility.yul\":6288:6297   */\n      div\n      swap1\n        /* \"#utility.yul\":6086:6303   */\n      jump\t// out\n        /* \"#utility.yul\":8689:8857   */\n    tag_366:\n        /* \"#utility.yul\":8762:8771   */\n      dup1\n      dup3\n      mul\n        /* \"#utility.yul\":8793:8802   */\n      dup2\n      iszero\n        /* \"#utility.yul\":8810:8825   */\n      dup3\n      dup3\n      div\n        /* \"#utility.yul\":8804:8826   */\n      dup5\n      eq\n        /* \"#utility.yul\":8790:8827   */\n      or\n        /* \"#utility.yul\":8780:8851   */\n      tag_171\n      jumpi\n        /* \"#utility.yul\":8831:8849   */\n      tag_171\n      tag_398\n      jump\t// in\n        /* \"#utility.yul\":8862:8990   */\n    tag_376:\n        /* \"#utility.yul\":8929:8938   */\n      dup2\n      dup2\n      sub\n        /* \"#utility.yul\":8950:8961   */\n      dup2\n      dup2\n      gt\n        /* \"#utility.yul\":8947:8984   */\n      iszero\n      tag_171\n      jumpi\n        /* \"#utility.yul\":8964:8982   */\n      tag_171\n      tag_398\n      jump\t// in\n    stop\n    data_cb864c43dd5d441bb6271f424f11befa622c032dfd374d226e26fbbdb782b8f8 a49807205ce4d355092ef5a8a18f56e8913cf4a201fbe287825b095693c21775\n\n    auxdata: 0xa2646970667358221220b1e0272f98e6d173bcb9e6c74035d9ac1fbf042f9fb1d585f10d703661b07e9e64736f6c634300081c0033\n}\n",
				"bytecode": {
					"linkReferences": {},
					"object": "608060405260026008556003600955348015610019575f5ffd5b50604051611d6e380380611d6e833981016040819052610038916106aa565b604051806040016040528060088152602001674c756749742e636f60c01b815250604051806040016040528060038152602001624c474760e81b8152508160039081610084919061076e565b506004610091828261076e565b50506006805460ff191690555060016007556001600160a01b0381166100fe5760405162461bcd60e51b815260206004820152601f60248201527f4d61726b6574696e672077616c6c65742063616e6e6f74206265207a65726f0060448201526064015b60405180910390fd5b6101085f336101e5565b506101337fa49807205ce4d355092ef5a8a18f56e8913cf4a201fbe287825b095693c21775336101e5565b50600a80546001600160a01b0319166001600160a01b03831617905561016660646b033b2e3c9fd0803ce800000061083c565b600b5561018060326b033b2e3c9fd0803ce800000061083c565b600c55335f818152600d60205260408082208054600160ff19918216811790925530845282842080548216831790556001600160a01b038616845291909220805490911690911790556101df906b033b2e3c9fd0803ce8000000610292565b50610898565b5f8281526005602090815260408083206001600160a01b038516845290915281205460ff16610289575f8381526005602090815260408083206001600160a01b03861684529091529020805460ff191660011790556102413390565b6001600160a01b0316826001600160a01b0316847f2f8788117e7eff1d82e926ec794901d17c78024a50270940304540a733656f0d60405160405180910390a450600161028c565b505f5b92915050565b6001600160a01b0382166102bb5760405163ec442f0560e01b81525f60048201526024016100f5565b6102c65f83836102ca565b5050565b6102d261053c565b6001600160a01b03831615806102ef57506001600160a01b038216155b15610304576102ff838383610584565b505050565b6001600160a01b0383165f908152600e602052604090205460ff1615801561034457506001600160a01b0382165f908152600e602052604090205460ff16155b6103905760405162461bcd60e51b815260206004820152601660248201527f4164647265737320697320626c61636b6c69737465640000000000000000000060448201526064016100f5565b6001600160a01b0383165f908152600d602052604090205460ff161580156103d057506001600160a01b0382165f908152600d602052604090205460ff16155b1561053157600b548111156104275760405162461bcd60e51b815260206004820152601e60248201527f45786365656473206d6178207472616e73616374696f6e20616d6f756e74000060448201526064016100f5565b600c5481610449846001600160a01b03165f9081526020819052604090205490565b610453919061085b565b11156104a15760405162461bcd60e51b815260206004820152601760248201527f45786365656473206d61782077616c6c65742073697a6500000000000000000060448201526064016100f5565b5f6064600854836104b2919061086e565b6104bc919061083c565b90505f6064600954846104cf919061086e565b6104d9919061083c565b90505f6104e6828461085b565b9050801561052d57600a546105069087906001600160a01b031685610584565b610511863084610584565b61052586866105208488610885565b610584565b505050505050565b5050505b6102ff838383610584565b60065460ff16156105825760405162461bcd60e51b815260206004820152601060248201526f14185d5cd8589b194e881c185d5cd95960821b60448201526064016100f5565b565b6001600160a01b0383166105ae578060025f8282546105a3919061085b565b9091555061061e9050565b6001600160a01b0383165f90815260208190526040902054818110156106005760405163391434e360e21b81526001600160a01b038516600482015260248101829052604481018390526064016100f5565b6001600160a01b0384165f9081526020819052604090209082900390555b6001600160a01b03821661063a57600280548290039055610658565b6001600160a01b0382165f9081526020819052604090208054820190555b816001600160a01b0316836001600160a01b03167fddf252ad1be2c89b69c2b068fc378daa952ba7f163c4a11628f55a4df523b3ef8360405161069d91815260200190565b60405180910390a3505050565b5f602082840312156106ba575f5ffd5b81516001600160a01b03811681146106d0575f5ffd5b9392505050565b634e487b7160e01b5f52604160045260245ffd5b600181811c908216806106ff57607f821691505b60208210810361071d57634e487b7160e01b5f52602260045260245ffd5b50919050565b601f8211156102ff57805f5260205f20601f840160051c810160208510156107485750805b601f840160051c820191505b81811015610767575f8155600101610754565b5050505050565b81516001600160401b03811115610787576107876106d7565b61079b8161079584546106eb565b84610723565b6020601f8211600181146107cd575f83156107b65750848201515b5f19600385901b1c1916600184901b178455610767565b5f84815260208120601f198516915b828110156107fc57878501518255602094850194600190920191016107dc565b508482101561081957868401515f19600387901b60f8161c191681555b50505050600190811b01905550565b634e487b7160e01b5f52601160045260245ffd5b5f8261085657634e487b7160e01b5f52601260045260245ffd5b500490565b8082018082111561028c5761028c610828565b808202811582820484141761028c5761028c610828565b8181038181111561028c5761028c610828565b6114c9806108a55f395ff3fe608060405234801561000f575f5ffd5b50600436106101fd575f3560e01c80636b67c4df1161011457806395d89b41116100a9578063a9059cbb11610079578063a9059cbb14610435578063c8c8ebe414610448578063d547741f14610451578063dd62ed3e14610464578063fe575a871461049c575f5ffd5b806395d89b411461040a57806398118cb4146104125780639d913ef51461041b578063a217fddf1461042e575f5ffd5b806379cc6790116100e457806379cc6790146103d35780638456cb59146103e65780638f3fa860146103ee57806391d14854146103f7575f5ffd5b80636b67c4df1461036357806370a082311461036c57806375b238fc1461039457806375f0a874146103a8575f5ffd5b80632f2ff15d116101955780633f4ba83a116101655780633f4ba83a1461030857806342966c68146103105780635342acb4146103235780635c975abb146103455780635d098b3814610350575f5ffd5b80632f2ff15d146102c057806330b94cd5146102d3578063313ce567146102e657806336568abe146102f5575f5ffd5b8063153b0d1e116101d0578063153b0d1e1461026657806318160ddd1461027957806323b872dd1461028b578063248a9ca31461029e575f5ffd5b806301ffc9a71461020157806306fdde0314610229578063095ea7b31461023e5780630b78f9c014610251575b5f5ffd5b61021461020f366004611210565b6104be565b60405190151581526020015b60405180910390f35b6102316104ce565b604051610220919061123e565b61021461024c36600461128e565b61055e565b61026461025f3660046112b6565b610575565b005b6102646102743660046112d6565b610634565b6002545b604051908152602001610220565b61021461029936600461130f565b6106aa565b61027d6102ac366004611349565b5f9081526005602052604090206001015490565b6102646102ce366004611360565b6106cd565b6102646102e13660046112d6565b6106f7565b60405160128152602001610220565b610264610303366004611360565b610739565b610264610771565b61026461031e366004611349565b610793565b61021461033136600461138a565b600d6020525f908152604090205460ff1681565b60065460ff16610214565b61026461035e36600461138a565b61079d565b61027d60085481565b61027d61037a36600461138a565b6001600160a01b03165f9081526020819052604090205490565b61027d5f5160206114745f395f51905f5281565b600a546103bb906001600160a01b031681565b6040516001600160a01b039091168152602001610220565b6102646103e136600461128e565b61085f565b610264610878565b61027d600c5481565b610214610405366004611360565b610897565b6102316108c1565b61027d60095481565b6102646104293660046112b6565b6108d0565b61027d5f81565b61021461044336600461128e565b6109db565b61027d600b5481565b61026461045f366004611360565b6109e8565b61027d6104723660046113a3565b6001600160a01b039182165f90815260016020908152604080832093909416825291909152205490565b6102146104aa36600461138a565b600e6020525f908152604090205460ff1681565b5f6104c882610a0c565b92915050565b6060600380546104dd906113cb565b80601f0160208091040260200160405190810160405280929190818152602001828054610509906113cb565b80156105545780601f1061052b57610100808354040283529160200191610554565b820191905f5260205f20905b81548152906001019060200180831161053757829003601f168201915b5050505050905090565b5f3361056b818585610a40565b5060019392505050565b5f5160206114745f395f51905f5261058c81610a4d565b600a6105988385611417565b11156105eb5760405162461bcd60e51b815260206004820152601c60248201527f546f74616c20666565732063616e6e6f7420657863656564203130250000000060448201526064015b60405180910390fd5b6008839055600982905560408051848152602081018490527f5c6323bf1c2d7aaea2c091a4751c1c87af7f2864650c336507a77d0557af37a191015b60405180910390a1505050565b5f5160206114745f395f51905f5261064b81610a4d565b6001600160a01b0383165f818152600e6020908152604091829020805460ff191686151590811790915591519182527f6a12b3df6cba4203bd7fd06b816789f87de8c594299aed5717ae070fac781bac910160405180910390a2505050565b5f336106b7858285610a57565b6106c2858585610acc565b506001949350505050565b5f828152600560205260409020600101546106e781610a4d565b6106f18383610b29565b50505050565b5f5160206114745f395f51905f5261070e81610a4d565b506001600160a01b03919091165f908152600d60205260409020805460ff1916911515919091179055565b6001600160a01b03811633146107625760405163334bd91960e11b815260040160405180910390fd5b61076c8282610bba565b505050565b5f5160206114745f395f51905f5261078881610a4d565b610790610c25565b50565b6107903382610c77565b5f5160206114745f395f51905f526107b481610a4d565b6001600160a01b03821661080a5760405162461bcd60e51b815260206004820152601f60248201527f4d61726b6574696e672077616c6c65742063616e6e6f74206265207a65726f0060448201526064016105e2565b600a80546001600160a01b0319166001600160a01b0384169081179091556040519081527fbf86feedee5b30c30a8243bd21deebb704d141478d39b1be04fe5ee739f214e79060200160405180910390a15050565b61086a823383610a57565b6108748282610c77565b5050565b5f5160206114745f395f51905f5261088f81610a4d565b610790610cab565b5f9182526005602090815260408084206001600160a01b0393909316845291905290205460ff1690565b6060600480546104dd906113cb565b5f5160206114745f395f51905f526108e781610a4d565b6108ff6103e86b033b2e3c9fd0803ce800000061142a565b83101561093f5760405162461bcd60e51b815260206004820152600e60248201526d4d617820545820746f6f206c6f7760901b60448201526064016105e2565b6109576103e86b033b2e3c9fd0803ce800000061142a565b82101561099b5760405162461bcd60e51b81526020600482015260126024820152714d61782077616c6c657420746f6f206c6f7760701b60448201526064016105e2565b600b839055600c82905560408051848152602081018490527fb6cf947475d47632612a3265c7bc83f5cfed7429546220bfb088c3634f91c2299101610627565b5f3361056b818585610acc565b5f82815260056020526040902060010154610a0281610a4d565b6106f18383610bba565b5f6001600160e01b03198216637965db0b60e01b14806104c857506301ffc9a760e01b6001600160e01b03198316146104c8565b61076c8383836001610ce8565b6107908133610dba565b6001600160a01b038381165f908152600160209081526040808320938616835292905220545f1981146106f15781811015610abe57604051637dc7a0d960e11b81526001600160a01b038416600482015260248101829052604481018390526064016105e2565b6106f184848484035f610ce8565b6001600160a01b038316610af557604051634b637e8f60e11b81525f60048201526024016105e2565b6001600160a01b038216610b1e5760405163ec442f0560e01b81525f60048201526024016105e2565b61076c838383610df3565b5f610b348383610897565b610bb3575f8381526005602090815260408083206001600160a01b03861684529091529020805460ff19166001179055610b6b3390565b6001600160a01b0316826001600160a01b0316847f2f8788117e7eff1d82e926ec794901d17c78024a50270940304540a733656f0d60405160405180910390a45060016104c8565b505f6104c8565b5f610bc58383610897565b15610bb3575f8381526005602090815260408083206001600160a01b0386168085529252808320805460ff1916905551339286917ff6391f5c32d9c69d2a47ea670b442974b53935d1edc7fd64eb21e047a839171b9190a45060016104c8565b610c2d611059565b6006805460ff191690557f5db9ee0a495bf2e6ff9c91a7834c1ba4fdd244a5e8aa4e537bd38aeae4b073aa335b6040516001600160a01b03909116815260200160405180910390a1565b6001600160a01b038216610ca057604051634b637e8f60e11b81525f60048201526024016105e2565b610874825f83610df3565b610cb36110a4565b6006805460ff191660011790557f62e78cea01bee320cd4e420270b5ea74000d11b0c9f74754ebdbfc544b05a258610c5a3390565b6001600160a01b038416610d115760405163e602df0560e01b81525f60048201526024016105e2565b6001600160a01b038316610d3a57604051634a1406b160e11b81525f60048201526024016105e2565b6001600160a01b038085165f90815260016020908152604080832093871683529290522082905580156106f157826001600160a01b0316846001600160a01b03167f8c5be1e5ebec7d5bd14f71427d1e84f3dd0314c0f7b2291e5b200ac8c7c3b92584604051610dac91815260200190565b60405180910390a350505050565b610dc48282610897565b6108745760405163e2517d3f60e01b81526001600160a01b0382166004820152602481018390526044016105e2565b610dfb6110a4565b6001600160a01b0383161580610e1857506001600160a01b038216155b15610e285761076c8383836110ea565b6001600160a01b0383165f908152600e602052604090205460ff16158015610e6857506001600160a01b0382165f908152600e602052604090205460ff16155b610ead5760405162461bcd60e51b81526020600482015260166024820152751059191c995cdcc81a5cc8189b1858dadb1a5cdd195960521b60448201526064016105e2565b6001600160a01b0383165f908152600d602052604090205460ff16158015610eed57506001600160a01b0382165f908152600d602052604090205460ff16155b1561104e57600b54811115610f445760405162461bcd60e51b815260206004820152601e60248201527f45786365656473206d6178207472616e73616374696f6e20616d6f756e74000060448201526064016105e2565b600c5481610f66846001600160a01b03165f9081526020819052604090205490565b610f709190611417565b1115610fbe5760405162461bcd60e51b815260206004820152601760248201527f45786365656473206d61782077616c6c65742073697a6500000000000000000060448201526064016105e2565b5f606460085483610fcf9190611449565b610fd9919061142a565b90505f606460095484610fec9190611449565b610ff6919061142a565b90505f6110038284611417565b9050801561104a57600a546110239087906001600160a01b0316856110ea565b61102e8630846110ea565b611042868661103d8488611460565b6110ea565b505050505050565b5050505b61076c8383836110ea565b60065460ff166110a25760405162461bcd60e51b815260206004820152601460248201527314185d5cd8589b194e881b9bdd081c185d5cd95960621b60448201526064016105e2565b565b60065460ff16156110a25760405162461bcd60e51b815260206004820152601060248201526f14185d5cd8589b194e881c185d5cd95960821b60448201526064016105e2565b6001600160a01b038316611114578060025f8282546111099190611417565b909155506111849050565b6001600160a01b0383165f90815260208190526040902054818110156111665760405163391434e360e21b81526001600160a01b038516600482015260248101829052604481018390526064016105e2565b6001600160a01b0384165f9081526020819052604090209082900390555b6001600160a01b0382166111a0576002805482900390556111be565b6001600160a01b0382165f9081526020819052604090208054820190555b816001600160a01b0316836001600160a01b03167fddf252ad1be2c89b69c2b068fc378daa952ba7f163c4a11628f55a4df523b3ef8360405161120391815260200190565b60405180910390a3505050565b5f60208284031215611220575f5ffd5b81356001600160e01b031981168114611237575f5ffd5b9392505050565b602081525f82518060208401528060208501604085015e5f604082850101526040601f19601f83011684010191505092915050565b80356001600160a01b0381168114611289575f5ffd5b919050565b5f5f6040838503121561129f575f5ffd5b6112a883611273565b946020939093013593505050565b5f5f604083850312156112c7575f5ffd5b50508035926020909101359150565b5f5f604083850312156112e7575f5ffd5b6112f083611273565b915060208301358015158114611304575f5ffd5b809150509250929050565b5f5f5f60608486031215611321575f5ffd5b61132a84611273565b925061133860208501611273565b929592945050506040919091013590565b5f60208284031215611359575f5ffd5b5035919050565b5f5f60408385031215611371575f5ffd5b8235915061138160208401611273565b90509250929050565b5f6020828403121561139a575f5ffd5b61123782611273565b5f5f604083850312156113b4575f5ffd5b6113bd83611273565b915061138160208401611273565b600181811c908216806113df57607f821691505b6020821081036113fd57634e487b7160e01b5f52602260045260245ffd5b50919050565b634e487b7160e01b5f52601160045260245ffd5b808201808211156104c8576104c8611403565b5f8261144457634e487b7160e01b5f52601260045260245ffd5b500490565b80820281158282048414176104c8576104c8611403565b818103818111156104c8576104c861140356fea49807205ce4d355092ef5a8a18f56e8913cf4a201fbe287825b095693c21775a2646970667358221220b1e0272f98e6d173bcb9e6c74035d9ac1fbf042f9fb1d585f10d703661b07e9e64736f6c634300081c0033",
					"opcodes": "PUSH1 0x80 PUSH1 0x40 MSTORE PUSH1 0x2 PUSH1 0x8 SSTORE PUSH1 0x3 PUSH1 0x9 SSTORE CALLVALUE DUP1 ISZERO PUSH2 0x19 JUMPI PUSH0 PUSH0 REVERT JUMPDEST POP PUSH1 0x40 MLOAD PUSH2 0x1D6E CODESIZE SUB DUP1 PUSH2 0x1D6E DUP4 CODECOPY DUP2 ADD PUSH1 0x40 DUP2 SWAP1 MSTORE PUSH2 0x38 SWAP2 PUSH2 0x6AA JUMP JUMPDEST PUSH1 0x40 MLOAD DUP1 PUSH1 0x40 ADD PUSH1 0x40 MSTORE DUP1 PUSH1 0x8 DUP2 MSTORE PUSH1 0x20 ADD PUSH8 0x4C756749742E636F PUSH1 0xC0 SHL DUP2 MSTORE POP PUSH1 0x40 MLOAD DUP1 PUSH1 0x40 ADD PUSH1 0x40 MSTORE DUP1 PUSH1 0x3 DUP2 MSTORE PUSH1 0x20 ADD PUSH3 0x4C4747 PUSH1 0xE8 SHL DUP2 MSTORE POP DUP2 PUSH1 0x3 SWAP1 DUP2 PUSH2 0x84 SWAP2 SWAP1 PUSH2 0x76E JUMP JUMPDEST POP PUSH1 0x4 PUSH2 0x91 DUP3 DUP3 PUSH2 0x76E JUMP JUMPDEST POP POP PUSH1 0x6 DUP1 SLOAD PUSH1 0xFF NOT AND SWAP1 SSTORE POP PUSH1 0x1 PUSH1 0x7 SSTORE PUSH1 0x1 PUSH1 0x1 PUSH1 0xA0 SHL SUB DUP2 AND PUSH2 0xFE JUMPI PUSH1 0x40 MLOAD PUSH3 0x461BCD PUSH1 0xE5 SHL DUP2 MSTORE PUSH1 0x20 PUSH1 0x4 DUP3 ADD MSTORE PUSH1 0x1F PUSH1 0x24 DUP3 ADD MSTORE PUSH32 0x4D61726B6574696E672077616C6C65742063616E6E6F74206265207A65726F00 PUSH1 0x44 DUP3 ADD MSTORE PUSH1 0x64 ADD JUMPDEST PUSH1 0x40 MLOAD DUP1 SWAP2 SUB SWAP1 REVERT JUMPDEST PUSH2 0x108 PUSH0 CALLER PUSH2 0x1E5 JUMP JUMPDEST POP PUSH2 0x133 PUSH32 0xA49807205CE4D355092EF5A8A18F56E8913CF4A201FBE287825B095693C21775 CALLER PUSH2 0x1E5 JUMP JUMPDEST POP PUSH1 0xA DUP1 SLOAD PUSH1 0x1 PUSH1 0x1 PUSH1 0xA0 SHL SUB NOT AND PUSH1 0x1 PUSH1 0x1 PUSH1 0xA0 SHL SUB DUP4 AND OR SWAP1 SSTORE PUSH2 0x166 PUSH1 0x64 PUSH12 0x33B2E3C9FD0803CE8000000 PUSH2 0x83C JUMP JUMPDEST PUSH1 0xB SSTORE PUSH2 0x180 PUSH1 0x32 PUSH12 0x33B2E3C9FD0803CE8000000 PUSH2 0x83C JUMP JUMPDEST PUSH1 0xC SSTORE CALLER PUSH0 DUP2 DUP2 MSTORE PUSH1 0xD PUSH1 0x20 MSTORE PUSH1 0x40 DUP1 DUP3 KECCAK256 DUP1 SLOAD PUSH1 0x1 PUSH1 0xFF NOT SWAP2 DUP3 AND DUP2 OR SWAP1 SWAP3 SSTORE ADDRESS DUP5 MSTORE DUP3 DUP5 KECCAK256 DUP1 SLOAD DUP3 AND DUP4 OR SWAP1 SSTORE PUSH1 0x1 PUSH1 0x1 PUSH1 0xA0 SHL SUB DUP7 AND DUP5 MSTORE SWAP2 SWAP1 SWAP3 KECCAK256 DUP1 SLOAD SWAP1 SWAP2 AND SWAP1 SWAP2 OR SWAP1 SSTORE PUSH2 0x1DF SWAP1 PUSH12 0x33B2E3C9FD0803CE8000000 PUSH2 0x292 JUMP JUMPDEST POP PUSH2 0x898 JUMP JUMPDEST PUSH0 DUP3 DUP2 MSTORE PUSH1 0x5 PUSH1 0x20 SWAP1 DUP2 MSTORE PUSH1 0x40 DUP1 DUP4 KECCAK256 PUSH1 0x1 PUSH1 0x1 PUSH1 0xA0 SHL SUB DUP6 AND DUP5 MSTORE SWAP1 SWAP2 MSTORE DUP2 KECCAK256 SLOAD PUSH1 0xFF AND PUSH2 0x289 JUMPI PUSH0 DUP4 DUP2 MSTORE PUSH1 0x5 PUSH1 0x20 SWAP1 DUP2 MSTORE PUSH1 0x40 DUP1 DUP4 KECCAK256 PUSH1 0x1 PUSH1 0x1 PUSH1 0xA0 SHL SUB DUP7 AND DUP5 MSTORE SWAP1 SWAP2 MSTORE SWAP1 KECCAK256 DUP1 SLOAD PUSH1 0xFF NOT AND PUSH1 0x1 OR SWAP1 SSTORE PUSH2 0x241 CALLER SWAP1 JUMP JUMPDEST PUSH1 0x1 PUSH1 0x1 PUSH1 0xA0 SHL SUB AND DUP3 PUSH1 0x1 PUSH1 0x1 PUSH1 0xA0 SHL SUB AND DUP5 PUSH32 0x2F8788117E7EFF1D82E926EC794901D17C78024A50270940304540A733656F0D PUSH1 0x40 MLOAD PUSH1 0x40 MLOAD DUP1 SWAP2 SUB SWAP1 LOG4 POP PUSH1 0x1 PUSH2 0x28C JUMP JUMPDEST POP PUSH0 JUMPDEST SWAP3 SWAP2 POP POP JUMP JUMPDEST PUSH1 0x1 PUSH1 0x1 PUSH1 0xA0 SHL SUB DUP3 AND PUSH2 0x2BB JUMPI PUSH1 0x40 MLOAD PUSH4 0xEC442F05 PUSH1 0xE0 SHL DUP2 MSTORE PUSH0 PUSH1 0x4 DUP3 ADD MSTORE PUSH1 0x24 ADD PUSH2 0xF5 JUMP JUMPDEST PUSH2 0x2C6 PUSH0 DUP4 DUP4 PUSH2 0x2CA JUMP JUMPDEST POP POP JUMP JUMPDEST PUSH2 0x2D2 PUSH2 0x53C JUMP JUMPDEST PUSH1 0x1 PUSH1 0x1 PUSH1 0xA0 SHL SUB DUP4 AND ISZERO DUP1 PUSH2 0x2EF JUMPI POP PUSH1 0x1 PUSH1 0x1 PUSH1 0xA0 SHL SUB DUP3 AND ISZERO JUMPDEST ISZERO PUSH2 0x304 JUMPI PUSH2 0x2FF DUP4 DUP4 DUP4 PUSH2 0x584 JUMP JUMPDEST POP POP POP JUMP JUMPDEST PUSH1 0x1 PUSH1 0x1 PUSH1 0xA0 SHL SUB DUP4 AND PUSH0 SWAP1 DUP2 MSTORE PUSH1 0xE PUSH1 0x20 MSTORE PUSH1 0x40 SWAP1 KECCAK256 SLOAD PUSH1 0xFF AND ISZERO DUP1 ISZERO PUSH2 0x344 JUMPI POP PUSH1 0x1 PUSH1 0x1 PUSH1 0xA0 SHL SUB DUP3 AND PUSH0 SWAP1 DUP2 MSTORE PUSH1 0xE PUSH1 0x20 MSTORE PUSH1 0x40 SWAP1 KECCAK256 SLOAD PUSH1 0xFF AND ISZERO JUMPDEST PUSH2 0x390 JUMPI PUSH1 0x40 MLOAD PUSH3 0x461BCD PUSH1 0xE5 SHL DUP2 MSTORE PUSH1 0x20 PUSH1 0x4 DUP3 ADD MSTORE PUSH1 0x16 PUSH1 0x24 DUP3 ADD MSTORE PUSH32 0x4164647265737320697320626C61636B6C697374656400000000000000000000 PUSH1 0x44 DUP3 ADD MSTORE PUSH1 0x64 ADD PUSH2 0xF5 JUMP JUMPDEST PUSH1 0x1 PUSH1 0x1 PUSH1 0xA0 SHL SUB DUP4 AND PUSH0 SWAP1 DUP2 MSTORE PUSH1 0xD PUSH1 0x20 MSTORE PUSH1 0x40 SWAP1 KECCAK256 SLOAD PUSH1 0xFF AND ISZERO DUP1 ISZERO PUSH2 0x3D0 JUMPI POP PUSH1 0x1 PUSH1 0x1 PUSH1 0xA0 SHL SUB DUP3 AND PUSH0 SWAP1 DUP2 MSTORE PUSH1 0xD PUSH1 0x20 MSTORE PUSH1 0x40 SWAP1 KECCAK256 SLOAD PUSH1 0xFF AND ISZERO JUMPDEST ISZERO PUSH2 0x531 JUMPI PUSH1 0xB SLOAD DUP2 GT ISZERO PUSH2 0x427 JUMPI PUSH1 0x40 MLOAD PUSH3 0x461BCD PUSH1 0xE5 SHL DUP2 MSTORE PUSH1 0x20 PUSH1 0x4 DUP3 ADD MSTORE PUSH1 0x1E PUSH1 0x24 DUP3 ADD MSTORE PUSH32 0x45786365656473206D6178207472616E73616374696F6E20616D6F756E740000 PUSH1 0x44 DUP3 ADD MSTORE PUSH1 0x64 ADD PUSH2 0xF5 JUMP JUMPDEST PUSH1 0xC SLOAD DUP2 PUSH2 0x449 DUP5 PUSH1 0x1 PUSH1 0x1 PUSH1 0xA0 SHL SUB AND PUSH0 SWAP1 DUP2 MSTORE PUSH1 0x20 DUP2 SWAP1 MSTORE PUSH1 0x40 SWAP1 KECCAK256 SLOAD SWAP1 JUMP JUMPDEST PUSH2 0x453 SWAP2 SWAP1 PUSH2 0x85B JUMP JUMPDEST GT ISZERO PUSH2 0x4A1 JUMPI PUSH1 0x40 MLOAD PUSH3 0x461BCD PUSH1 0xE5 SHL DUP2 MSTORE PUSH1 0x20 PUSH1 0x4 DUP3 ADD MSTORE PUSH1 0x17 PUSH1 0x24 DUP3 ADD MSTORE PUSH32 0x45786365656473206D61782077616C6C65742073697A65000000000000000000 PUSH1 0x44 DUP3 ADD MSTORE PUSH1 0x64 ADD PUSH2 0xF5 JUMP JUMPDEST PUSH0 PUSH1 0x64 PUSH1 0x8 SLOAD DUP4 PUSH2 0x4B2 SWAP2 SWAP1 PUSH2 0x86E JUMP JUMPDEST PUSH2 0x4BC SWAP2 SWAP1 PUSH2 0x83C JUMP JUMPDEST SWAP1 POP PUSH0 PUSH1 0x64 PUSH1 0x9 SLOAD DUP5 PUSH2 0x4CF SWAP2 SWAP1 PUSH2 0x86E JUMP JUMPDEST PUSH2 0x4D9 SWAP2 SWAP1 PUSH2 0x83C JUMP JUMPDEST SWAP1 POP PUSH0 PUSH2 0x4E6 DUP3 DUP5 PUSH2 0x85B JUMP JUMPDEST SWAP1 POP DUP1 ISZERO PUSH2 0x52D JUMPI PUSH1 0xA SLOAD PUSH2 0x506 SWAP1 DUP8 SWAP1 PUSH1 0x1 PUSH1 0x1 PUSH1 0xA0 SHL SUB AND DUP6 PUSH2 0x584 JUMP JUMPDEST PUSH2 0x511 DUP7 ADDRESS DUP5 PUSH2 0x584 JUMP JUMPDEST PUSH2 0x525 DUP7 DUP7 PUSH2 0x520 DUP5 DUP9 PUSH2 0x885 JUMP JUMPDEST PUSH2 0x584 JUMP JUMPDEST POP POP POP POP POP POP JUMP JUMPDEST POP POP POP JUMPDEST PUSH2 0x2FF DUP4 DUP4 DUP4 PUSH2 0x584 JUMP JUMPDEST PUSH1 0x6 SLOAD PUSH1 0xFF AND ISZERO PUSH2 0x582 JUMPI PUSH1 0x40 MLOAD PUSH3 0x461BCD PUSH1 0xE5 SHL DUP2 MSTORE PUSH1 0x20 PUSH1 0x4 DUP3 ADD MSTORE PUSH1 0x10 PUSH1 0x24 DUP3 ADD MSTORE PUSH16 0x14185D5CD8589B194E881C185D5CD959 PUSH1 0x82 SHL PUSH1 0x44 DUP3 ADD MSTORE PUSH1 0x64 ADD PUSH2 0xF5 JUMP JUMPDEST JUMP JUMPDEST PUSH1 0x1 PUSH1 0x1 PUSH1 0xA0 SHL SUB DUP4 AND PUSH2 0x5AE JUMPI DUP1 PUSH1 0x2 PUSH0 DUP3 DUP3 SLOAD PUSH2 0x5A3 SWAP2 SWAP1 PUSH2 0x85B JUMP JUMPDEST SWAP1 SWAP2 SSTORE POP PUSH2 0x61E SWAP1 POP JUMP JUMPDEST PUSH1 0x1 PUSH1 0x1 PUSH1 0xA0 SHL SUB DUP4 AND PUSH0 SWAP1 DUP2 MSTORE PUSH1 0x20 DUP2 SWAP1 MSTORE PUSH1 0x40 SWAP1 KECCAK256 SLOAD DUP2 DUP2 LT ISZERO PUSH2 0x600 JUMPI PUSH1 0x40 MLOAD PUSH4 0x391434E3 PUSH1 0xE2 SHL DUP2 MSTORE PUSH1 0x1 PUSH1 0x1 PUSH1 0xA0 SHL SUB DUP6 AND PUSH1 0x4 DUP3 ADD MSTORE PUSH1 0x24 DUP2 ADD DUP3 SWAP1 MSTORE PUSH1 0x44 DUP2 ADD DUP4 SWAP1 MSTORE PUSH1 0x64 ADD PUSH2 0xF5 JUMP JUMPDEST PUSH1 0x1 PUSH1 0x1 PUSH1 0xA0 SHL SUB DUP5 AND PUSH0 SWAP1 DUP2 MSTORE PUSH1 0x20 DUP2 SWAP1 MSTORE PUSH1 0x40 SWAP1 KECCAK256 SWAP1 DUP3 SWAP1 SUB SWAP1 SSTORE JUMPDEST PUSH1 0x1 PUSH1 0x1 PUSH1 0xA0 SHL SUB DUP3 AND PUSH2 0x63A JUMPI PUSH1 0x2 DUP1 SLOAD DUP3 SWAP1 SUB SWAP1 SSTORE PUSH2 0x658 JUMP JUMPDEST PUSH1 0x1 PUSH1 0x1 PUSH1 0xA0 SHL SUB DUP3 AND PUSH0 SWAP1 DUP2 MSTORE PUSH1 0x20 DUP2 SWAP1 MSTORE PUSH1 0x40 SWAP1 KECCAK256 DUP1 SLOAD DUP3 ADD SWAP1 SSTORE JUMPDEST DUP2 PUSH1 0x1 PUSH1 0x1 PUSH1 0xA0 SHL SUB AND DUP4 PUSH1 0x1 PUSH1 0x1 PUSH1 0xA0 SHL SUB AND PUSH32 0xDDF252AD1BE2C89B69C2B068FC378DAA952BA7F163C4A11628F55A4DF523B3EF DUP4 PUSH1 0x40 MLOAD PUSH2 0x69D SWAP2 DUP2 MSTORE PUSH1 0x20 ADD SWAP1 JUMP JUMPDEST PUSH1 0x40 MLOAD DUP1 SWAP2 SUB SWAP1 LOG3 POP POP POP JUMP JUMPDEST PUSH0 PUSH1 0x20 DUP3 DUP5 SUB SLT ISZERO PUSH2 0x6BA JUMPI PUSH0 PUSH0 REVERT JUMPDEST DUP2 MLOAD PUSH1 0x1 PUSH1 0x1 PUSH1 0xA0 SHL SUB DUP2 AND DUP2 EQ PUSH2 0x6D0 JUMPI PUSH0 PUSH0 REVERT JUMPDEST SWAP4 SWAP3 POP POP POP JUMP JUMPDEST PUSH4 0x4E487B71 PUSH1 0xE0 SHL PUSH0 MSTORE PUSH1 0x41 PUSH1 0x4 MSTORE PUSH1 0x24 PUSH0 REVERT JUMPDEST PUSH1 0x1 DUP2 DUP2 SHR SWAP1 DUP3 AND DUP1 PUSH2 0x6FF JUMPI PUSH1 0x7F DUP3 AND SWAP2 POP JUMPDEST PUSH1 0x20 DUP3 LT DUP2 SUB PUSH2 0x71D JUMPI PUSH4 0x4E487B71 PUSH1 0xE0 SHL PUSH0 MSTORE PUSH1 0x22 PUSH1 0x4 MSTORE PUSH1 0x24 PUSH0 REVERT JUMPDEST POP SWAP2 SWAP1 POP JUMP JUMPDEST PUSH1 0x1F DUP3 GT ISZERO PUSH2 0x2FF JUMPI DUP1 PUSH0 MSTORE PUSH1 0x20 PUSH0 KECCAK256 PUSH1 0x1F DUP5 ADD PUSH1 0x5 SHR DUP2 ADD PUSH1 0x20 DUP6 LT ISZERO PUSH2 0x748 JUMPI POP DUP1 JUMPDEST PUSH1 0x1F DUP5 ADD PUSH1 0x5 SHR DUP3 ADD SWAP2 POP JUMPDEST DUP2 DUP2 LT ISZERO PUSH2 0x767 JUMPI PUSH0 DUP2 SSTORE PUSH1 0x1 ADD PUSH2 0x754 JUMP JUMPDEST POP POP POP POP POP JUMP JUMPDEST DUP2 MLOAD PUSH1 0x1 PUSH1 0x1 PUSH1 0x40 SHL SUB DUP2 GT ISZERO PUSH2 0x787 JUMPI PUSH2 0x787 PUSH2 0x6D7 JUMP JUMPDEST PUSH2 0x79B DUP2 PUSH2 0x795 DUP5 SLOAD PUSH2 0x6EB JUMP JUMPDEST DUP5 PUSH2 0x723 JUMP JUMPDEST PUSH1 0x20 PUSH1 0x1F DUP3 GT PUSH1 0x1 DUP2 EQ PUSH2 0x7CD JUMPI PUSH0 DUP4 ISZERO PUSH2 0x7B6 JUMPI POP DUP5 DUP3 ADD MLOAD JUMPDEST PUSH0 NOT PUSH1 0x3 DUP6 SWAP1 SHL SHR NOT AND PUSH1 0x1 DUP5 SWAP1 SHL OR DUP5 SSTORE PUSH2 0x767 JUMP JUMPDEST PUSH0 DUP5 DUP2 MSTORE PUSH1 0x20 DUP2 KECCAK256 PUSH1 0x1F NOT DUP6 AND SWAP2 JUMPDEST DUP3 DUP2 LT ISZERO PUSH2 0x7FC JUMPI DUP8 DUP6 ADD MLOAD DUP3 SSTORE PUSH1 0x20 SWAP5 DUP6 ADD SWAP5 PUSH1 0x1 SWAP1 SWAP3 ADD SWAP2 ADD PUSH2 0x7DC JUMP JUMPDEST POP DUP5 DUP3 LT ISZERO PUSH2 0x819 JUMPI DUP7 DUP5 ADD MLOAD PUSH0 NOT PUSH1 0x3 DUP8 SWAP1 SHL PUSH1 0xF8 AND SHR NOT AND DUP2 SSTORE JUMPDEST POP POP POP POP PUSH1 0x1 SWAP1 DUP2 SHL ADD SWAP1 SSTORE POP JUMP JUMPDEST PUSH4 0x4E487B71 PUSH1 0xE0 SHL PUSH0 MSTORE PUSH1 0x11 PUSH1 0x4 MSTORE PUSH1 0x24 PUSH0 REVERT JUMPDEST PUSH0 DUP3 PUSH2 0x856 JUMPI PUSH4 0x4E487B71 PUSH1 0xE0 SHL PUSH0 MSTORE PUSH1 0x12 PUSH1 0x4 MSTORE PUSH1 0x24 PUSH0 REVERT JUMPDEST POP DIV SWAP1 JUMP JUMPDEST DUP1 DUP3 ADD DUP1 DUP3 GT ISZERO PUSH2 0x28C JUMPI PUSH2 0x28C PUSH2 0x828 JUMP JUMPDEST DUP1 DUP3 MUL DUP2 ISZERO DUP3 DUP3 DIV DUP5 EQ OR PUSH2 0x28C JUMPI PUSH2 0x28C PUSH2 0x828 JUMP JUMPDEST DUP2 DUP2 SUB DUP2 DUP2 GT ISZERO PUSH2 0x28C JUMPI PUSH2 0x28C PUSH2 0x828 JUMP JUMPDEST PUSH2 0x14C9 DUP1 PUSH2 0x8A5 PUSH0 CODECOPY PUSH0 RETURN INVALID PUSH1 0x80 PUSH1 0x40 MSTORE CALLVALUE DUP1 ISZERO PUSH2 0xF JUMPI PUSH0 PUSH0 REVERT JUMPDEST POP PUSH1 0x4 CALLDATASIZE LT PUSH2 0x1FD JUMPI PUSH0 CALLDATALOAD PUSH1 0xE0 SHR DUP1 PUSH4 0x6B67C4DF GT PUSH2 0x114 JUMPI DUP1 PUSH4 0x95D89B41 GT PUSH2 0xA9 JUMPI DUP1 PUSH4 0xA9059CBB GT PUSH2 0x79 JUMPI DUP1 PUSH4 0xA9059CBB EQ PUSH2 0x435 JUMPI DUP1 PUSH4 0xC8C8EBE4 EQ PUSH2 0x448 JUMPI DUP1 PUSH4 0xD547741F EQ PUSH2 0x451 JUMPI DUP1 PUSH4 0xDD62ED3E EQ PUSH2 0x464 JUMPI DUP1 PUSH4 0xFE575A87 EQ PUSH2 0x49C JUMPI PUSH0 PUSH0 REVERT JUMPDEST DUP1 PUSH4 0x95D89B41 EQ PUSH2 0x40A JUMPI DUP1 PUSH4 0x98118CB4 EQ PUSH2 0x412 JUMPI DUP1 PUSH4 0x9D913EF5 EQ PUSH2 0x41B JUMPI DUP1 PUSH4 0xA217FDDF EQ PUSH2 0x42E JUMPI PUSH0 PUSH0 REVERT JUMPDEST DUP1 PUSH4 0x79CC6790 GT PUSH2 0xE4 JUMPI DUP1 PUSH4 0x79CC6790 EQ PUSH2 0x3D3 JUMPI DUP1 PUSH4 0x8456CB59 EQ PUSH2 0x3E6 JUMPI DUP1 PUSH4 0x8F3FA860 EQ PUSH2 0x3EE JUMPI DUP1 PUSH4 0x91D14854 EQ PUSH2 0x3F7 JUMPI PUSH0 PUSH0 REVERT JUMPDEST DUP1 PUSH4 0x6B67C4DF EQ PUSH2 0x363 JUMPI DUP1 PUSH4 0x70A08231 EQ PUSH2 0x36C JUMPI DUP1 PUSH4 0x75B238FC EQ PUSH2 0x394 JUMPI DUP1 PUSH4 0x75F0A874 EQ PUSH2 0x3A8 JUMPI PUSH0 PUSH0 REVERT JUMPDEST DUP1 PUSH4 0x2F2FF15D GT PUSH2 0x195 JUMPI DUP1 PUSH4 0x3F4BA83A GT PUSH2 0x165 JUMPI DUP1 PUSH4 0x3F4BA83A EQ PUSH2 0x308 JUMPI DUP1 PUSH4 0x42966C68 EQ PUSH2 0x310 JUMPI DUP1 PUSH4 0x5342ACB4 EQ PUSH2 0x323 JUMPI DUP1 PUSH4 0x5C975ABB EQ PUSH2 0x345 JUMPI DUP1 PUSH4 0x5D098B38 EQ PUSH2 0x350 JUMPI PUSH0 PUSH0 REVERT JUMPDEST DUP1 PUSH4 0x2F2FF15D EQ PUSH2 0x2C0 JUMPI DUP1 PUSH4 0x30B94CD5 EQ PUSH2 0x2D3 JUMPI DUP1 PUSH4 0x313CE567 EQ PUSH2 0x2E6 JUMPI DUP1 PUSH4 0x36568ABE EQ PUSH2 0x2F5 JUMPI PUSH0 PUSH0 REVERT JUMPDEST DUP1 PUSH4 0x153B0D1E GT PUSH2 0x1D0 JUMPI DUP1 PUSH4 0x153B0D1E EQ PUSH2 0x266 JUMPI DUP1 PUSH4 0x18160DDD EQ PUSH2 0x279 JUMPI DUP1 PUSH4 0x23B872DD EQ PUSH2 0x28B JUMPI DUP1 PUSH4 0x248A9CA3 EQ PUSH2 0x29E JUMPI PUSH0 PUSH0 REVERT JUMPDEST DUP1 PUSH4 0x1FFC9A7 EQ PUSH2 0x201 JUMPI DUP1 PUSH4 0x6FDDE03 EQ PUSH2 0x229 JUMPI DUP1 PUSH4 0x95EA7B3 EQ PUSH2 0x23E JUMPI DUP1 PUSH4 0xB78F9C0 EQ PUSH2 0x251 JUMPI JUMPDEST PUSH0 PUSH0 REVERT JUMPDEST PUSH2 0x214 PUSH2 0x20F CALLDATASIZE PUSH1 0x4 PUSH2 0x1210 JUMP JUMPDEST PUSH2 0x4BE JUMP JUMPDEST PUSH1 0x40 MLOAD SWAP1 ISZERO ISZERO DUP2 MSTORE PUSH1 0x20 ADD JUMPDEST PUSH1 0x40 MLOAD DUP1 SWAP2 SUB SWAP1 RETURN JUMPDEST PUSH2 0x231 PUSH2 0x4CE JUMP JUMPDEST PUSH1 0x40 MLOAD PUSH2 0x220 SWAP2 SWAP1 PUSH2 0x123E JUMP JUMPDEST PUSH2 0x214 PUSH2 0x24C CALLDATASIZE PUSH1 0x4 PUSH2 0x128E JUMP JUMPDEST PUSH2 0x55E JUMP JUMPDEST PUSH2 0x264 PUSH2 0x25F CALLDATASIZE PUSH1 0x4 PUSH2 0x12B6 JUMP JUMPDEST PUSH2 0x575 JUMP JUMPDEST STOP JUMPDEST PUSH2 0x264 PUSH2 0x274 CALLDATASIZE PUSH1 0x4 PUSH2 0x12D6 JUMP JUMPDEST PUSH2 0x634 JUMP JUMPDEST PUSH1 0x2 SLOAD JUMPDEST PUSH1 0x40 MLOAD SWAP1 DUP2 MSTORE PUSH1 0x20 ADD PUSH2 0x220 JUMP JUMPDEST PUSH2 0x214 PUSH2 0x299 CALLDATASIZE PUSH1 0x4 PUSH2 0x130F JUMP JUMPDEST PUSH2 0x6AA JUMP JUMPDEST PUSH2 0x27D PUSH2 0x2AC CALLDATASIZE PUSH1 0x4 PUSH2 0x1349 JUMP JUMPDEST PUSH0 SWAP1 DUP2 MSTORE PUSH1 0x5 PUSH1 0x20 MSTORE PUSH1 0x40 SWAP1 KECCAK256 PUSH1 0x1 ADD SLOAD SWAP1 JUMP JUMPDEST PUSH2 0x264 PUSH2 0x2CE CALLDATASIZE PUSH1 0x4 PUSH2 0x1360 JUMP JUMPDEST PUSH2 0x6CD JUMP JUMPDEST PUSH2 0x264 PUSH2 0x2E1 CALLDATASIZE PUSH1 0x4 PUSH2 0x12D6 JUMP JUMPDEST PUSH2 0x6F7 JUMP JUMPDEST PUSH1 0x40 MLOAD PUSH1 0x12 DUP2 MSTORE PUSH1 0x20 ADD PUSH2 0x220 JUMP JUMPDEST PUSH2 0x264 PUSH2 0x303 CALLDATASIZE PUSH1 0x4 PUSH2 0x1360 JUMP JUMPDEST PUSH2 0x739 JUMP JUMPDEST PUSH2 0x264 PUSH2 0x771 JUMP JUMPDEST PUSH2 0x264 PUSH2 0x31E CALLDATASIZE PUSH1 0x4 PUSH2 0x1349 JUMP JUMPDEST PUSH2 0x793 JUMP JUMPDEST PUSH2 0x214 PUSH2 0x331 CALLDATASIZE PUSH1 0x4 PUSH2 0x138A JUMP JUMPDEST PUSH1 0xD PUSH1 0x20 MSTORE PUSH0 SWAP1 DUP2 MSTORE PUSH1 0x40 SWAP1 KECCAK256 SLOAD PUSH1 0xFF AND DUP2 JUMP JUMPDEST PUSH1 0x6 SLOAD PUSH1 0xFF AND PUSH2 0x214 JUMP JUMPDEST PUSH2 0x264 PUSH2 0x35E CALLDATASIZE PUSH1 0x4 PUSH2 0x138A JUMP JUMPDEST PUSH2 0x79D JUMP JUMPDEST PUSH2 0x27D PUSH1 0x8 SLOAD DUP2 JUMP JUMPDEST PUSH2 0x27D PUSH2 0x37A CALLDATASIZE PUSH1 0x4 PUSH2 0x138A JUMP JUMPDEST PUSH1 0x1 PUSH1 0x1 PUSH1 0xA0 SHL SUB AND PUSH0 SWAP1 DUP2 MSTORE PUSH1 0x20 DUP2 SWAP1 MSTORE PUSH1 0x40 SWAP1 KECCAK256 SLOAD SWAP1 JUMP JUMPDEST PUSH2 0x27D PUSH0 MLOAD PUSH1 0x20 PUSH2 0x1474 PUSH0 CODECOPY PUSH0 MLOAD SWAP1 PUSH0 MSTORE DUP2 JUMP JUMPDEST PUSH1 0xA SLOAD PUSH2 0x3BB SWAP1 PUSH1 0x1 PUSH1 0x1 PUSH1 0xA0 SHL SUB AND DUP2 JUMP JUMPDEST PUSH1 0x40 MLOAD PUSH1 0x1 PUSH1 0x1 PUSH1 0xA0 SHL SUB SWAP1 SWAP2 AND DUP2 MSTORE PUSH1 0x20 ADD PUSH2 0x220 JUMP JUMPDEST PUSH2 0x264 PUSH2 0x3E1 CALLDATASIZE PUSH1 0x4 PUSH2 0x128E JUMP JUMPDEST PUSH2 0x85F JUMP JUMPDEST PUSH2 0x264 PUSH2 0x878 JUMP JUMPDEST PUSH2 0x27D PUSH1 0xC SLOAD DUP2 JUMP JUMPDEST PUSH2 0x214 PUSH2 0x405 CALLDATASIZE PUSH1 0x4 PUSH2 0x1360 JUMP JUMPDEST PUSH2 0x897 JUMP JUMPDEST PUSH2 0x231 PUSH2 0x8C1 JUMP JUMPDEST PUSH2 0x27D PUSH1 0x9 SLOAD DUP2 JUMP JUMPDEST PUSH2 0x264 PUSH2 0x429 CALLDATASIZE PUSH1 0x4 PUSH2 0x12B6 JUMP JUMPDEST PUSH2 0x8D0 JUMP JUMPDEST PUSH2 0x27D PUSH0 DUP2 JUMP JUMPDEST PUSH2 0x214 PUSH2 0x443 CALLDATASIZE PUSH1 0x4 PUSH2 0x128E JUMP JUMPDEST PUSH2 0x9DB JUMP JUMPDEST PUSH2 0x27D PUSH1 0xB SLOAD DUP2 JUMP JUMPDEST PUSH2 0x264 PUSH2 0x45F CALLDATASIZE PUSH1 0x4 PUSH2 0x1360 JUMP JUMPDEST PUSH2 0x9E8 JUMP JUMPDEST PUSH2 0x27D PUSH2 0x472 CALLDATASIZE PUSH1 0x4 PUSH2 0x13A3 JUMP JUMPDEST PUSH1 0x1 PUSH1 0x1 PUSH1 0xA0 SHL SUB SWAP2 DUP3 AND PUSH0 SWAP1 DUP2 MSTORE PUSH1 0x1 PUSH1 0x20 SWAP1 DUP2 MSTORE PUSH1 0x40 DUP1 DUP4 KECCAK256 SWAP4 SWAP1 SWAP5 AND DUP3 MSTORE SWAP2 SWAP1 SWAP2 MSTORE KECCAK256 SLOAD SWAP1 JUMP JUMPDEST PUSH2 0x214 PUSH2 0x4AA CALLDATASIZE PUSH1 0x4 PUSH2 0x138A JUMP JUMPDEST PUSH1 0xE PUSH1 0x20 MSTORE PUSH0 SWAP1 DUP2 MSTORE PUSH1 0x40 SWAP1 KECCAK256 SLOAD PUSH1 0xFF AND DUP2 JUMP JUMPDEST PUSH0 PUSH2 0x4C8 DUP3 PUSH2 0xA0C JUMP JUMPDEST SWAP3 SWAP2 POP POP JUMP JUMPDEST PUSH1 0x60 PUSH1 0x3 DUP1 SLOAD PUSH2 0x4DD SWAP1 PUSH2 0x13CB JUMP JUMPDEST DUP1 PUSH1 0x1F ADD PUSH1 0x20 DUP1 SWAP2 DIV MUL PUSH1 0x20 ADD PUSH1 0x40 MLOAD SWAP1 DUP2 ADD PUSH1 0x40 MSTORE DUP1 SWAP3 SWAP2 SWAP1 DUP2 DUP2 MSTORE PUSH1 0x20 ADD DUP3 DUP1 SLOAD PUSH2 0x509 SWAP1 PUSH2 0x13CB JUMP JUMPDEST DUP1 ISZERO PUSH2 0x554 JUMPI DUP1 PUSH1 0x1F LT PUSH2 0x52B JUMPI PUSH2 0x100 DUP1 DUP4 SLOAD DIV MUL DUP4 MSTORE SWAP2 PUSH1 0x20 ADD SWAP2 PUSH2 0x554 JUMP JUMPDEST DUP3 ADD SWAP2 SWAP1 PUSH0 MSTORE PUSH1 0x20 PUSH0 KECCAK256 SWAP1 JUMPDEST DUP2 SLOAD DUP2 MSTORE SWAP1 PUSH1 0x1 ADD SWAP1 PUSH1 0x20 ADD DUP1 DUP4 GT PUSH2 0x537 JUMPI DUP3 SWAP1 SUB PUSH1 0x1F AND DUP3 ADD SWAP2 JUMPDEST POP POP POP POP POP SWAP1 POP SWAP1 JUMP JUMPDEST PUSH0 CALLER PUSH2 0x56B DUP2 DUP6 DUP6 PUSH2 0xA40 JUMP JUMPDEST POP PUSH1 0x1 SWAP4 SWAP3 POP POP POP JUMP JUMPDEST PUSH0 MLOAD PUSH1 0x20 PUSH2 0x1474 PUSH0 CODECOPY PUSH0 MLOAD SWAP1 PUSH0 MSTORE PUSH2 0x58C DUP2 PUSH2 0xA4D JUMP JUMPDEST PUSH1 0xA PUSH2 0x598 DUP4 DUP6 PUSH2 0x1417 JUMP JUMPDEST GT ISZERO PUSH2 0x5EB JUMPI PUSH1 0x40 MLOAD PUSH3 0x461BCD PUSH1 0xE5 SHL DUP2 MSTORE PUSH1 0x20 PUSH1 0x4 DUP3 ADD MSTORE PUSH1 0x1C PUSH1 0x24 DUP3 ADD MSTORE PUSH32 0x546F74616C20666565732063616E6E6F74206578636565642031302500000000 PUSH1 0x44 DUP3 ADD MSTORE PUSH1 0x64 ADD JUMPDEST PUSH1 0x40 MLOAD DUP1 SWAP2 SUB SWAP1 REVERT JUMPDEST PUSH1 0x8 DUP4 SWAP1 SSTORE PUSH1 0x9 DUP3 SWAP1 SSTORE PUSH1 0x40 DUP1 MLOAD DUP5 DUP2 MSTORE PUSH1 0x20 DUP2 ADD DUP5 SWAP1 MSTORE PUSH32 0x5C6323BF1C2D7AAEA2C091A4751C1C87AF7F2864650C336507A77D0557AF37A1 SWAP2 ADD JUMPDEST PUSH1 0x40 MLOAD DUP1 SWAP2 SUB SWAP1 LOG1 POP POP POP JUMP JUMPDEST PUSH0 MLOAD PUSH1 0x20 PUSH2 0x1474 PUSH0 CODECOPY PUSH0 MLOAD SWAP1 PUSH0 MSTORE PUSH2 0x64B DUP2 PUSH2 0xA4D JUMP JUMPDEST PUSH1 0x1 PUSH1 0x1 PUSH1 0xA0 SHL SUB DUP4 AND PUSH0 DUP2 DUP2 MSTORE PUSH1 0xE PUSH1 0x20 SWAP1 DUP2 MSTORE PUSH1 0x40 SWAP2 DUP3 SWAP1 KECCAK256 DUP1 SLOAD PUSH1 0xFF NOT AND DUP7 ISZERO ISZERO SWAP1 DUP2 OR SWAP1 SWAP2 SSTORE SWAP2 MLOAD SWAP2 DUP3 MSTORE PUSH32 0x6A12B3DF6CBA4203BD7FD06B816789F87DE8C594299AED5717AE070FAC781BAC SWAP2 ADD PUSH1 0x40 MLOAD DUP1 SWAP2 SUB SWAP1 LOG2 POP POP POP JUMP JUMPDEST PUSH0 CALLER PUSH2 0x6B7 DUP6 DUP3 DUP6 PUSH2 0xA57 JUMP JUMPDEST PUSH2 0x6C2 DUP6 DUP6 DUP6 PUSH2 0xACC JUMP JUMPDEST POP PUSH1 0x1 SWAP5 SWAP4 POP POP POP POP JUMP JUMPDEST PUSH0 DUP3 DUP2 MSTORE PUSH1 0x5 PUSH1 0x20 MSTORE PUSH1 0x40 SWAP1 KECCAK256 PUSH1 0x1 ADD SLOAD PUSH2 0x6E7 DUP2 PUSH2 0xA4D JUMP JUMPDEST PUSH2 0x6F1 DUP4 DUP4 PUSH2 0xB29 JUMP JUMPDEST POP POP POP POP JUMP JUMPDEST PUSH0 MLOAD PUSH1 0x20 PUSH2 0x1474 PUSH0 CODECOPY PUSH0 MLOAD SWAP1 PUSH0 MSTORE PUSH2 0x70E DUP2 PUSH2 0xA4D JUMP JUMPDEST POP PUSH1 0x1 PUSH1 0x1 PUSH1 0xA0 SHL SUB SWAP2 SWAP1 SWAP2 AND PUSH0 SWAP1 DUP2 MSTORE PUSH1 0xD PUSH1 0x20 MSTORE PUSH1 0x40 SWAP1 KECCAK256 DUP1 SLOAD PUSH1 0xFF NOT AND SWAP2 ISZERO ISZERO SWAP2 SWAP1 SWAP2 OR SWAP1 SSTORE JUMP JUMPDEST PUSH1 0x1 PUSH1 0x1 PUSH1 0xA0 SHL SUB DUP2 AND CALLER EQ PUSH2 0x762 JUMPI PUSH1 0x40 MLOAD PUSH4 0x334BD919 PUSH1 0xE1 SHL DUP2 MSTORE PUSH1 0x4 ADD PUSH1 0x40 MLOAD DUP1 SWAP2 SUB SWAP1 REVERT JUMPDEST PUSH2 0x76C DUP3 DUP3 PUSH2 0xBBA JUMP JUMPDEST POP POP POP JUMP JUMPDEST PUSH0 MLOAD PUSH1 0x20 PUSH2 0x1474 PUSH0 CODECOPY PUSH0 MLOAD SWAP1 PUSH0 MSTORE PUSH2 0x788 DUP2 PUSH2 0xA4D JUMP JUMPDEST PUSH2 0x790 PUSH2 0xC25 JUMP JUMPDEST POP JUMP JUMPDEST PUSH2 0x790 CALLER DUP3 PUSH2 0xC77 JUMP JUMPDEST PUSH0 MLOAD PUSH1 0x20 PUSH2 0x1474 PUSH0 CODECOPY PUSH0 MLOAD SWAP1 PUSH0 MSTORE PUSH2 0x7B4 DUP2 PUSH2 0xA4D JUMP JUMPDEST PUSH1 0x1 PUSH1 0x1 PUSH1 0xA0 SHL SUB DUP3 AND PUSH2 0x80A JUMPI PUSH1 0x40 MLOAD PUSH3 0x461BCD PUSH1 0xE5 SHL DUP2 MSTORE PUSH1 0x20 PUSH1 0x4 DUP3 ADD MSTORE PUSH1 0x1F PUSH1 0x24 DUP3 ADD MSTORE PUSH32 0x4D61726B6574696E672077616C6C65742063616E6E6F74206265207A65726F00 PUSH1 0x44 DUP3 ADD MSTORE PUSH1 0x64 ADD PUSH2 0x5E2 JUMP JUMPDEST PUSH1 0xA DUP1 SLOAD PUSH1 0x1 PUSH1 0x1 PUSH1 0xA0 SHL SUB NOT AND PUSH1 0x1 PUSH1 0x1 PUSH1 0xA0 SHL SUB DUP5 AND SWAP1 DUP2 OR SWAP1 SWAP2 SSTORE PUSH1 0x40 MLOAD SWAP1 DUP2 MSTORE PUSH32 0xBF86FEEDEE5B30C30A8243BD21DEEBB704D141478D39B1BE04FE5EE739F214E7 SWAP1 PUSH1 0x20 ADD PUSH1 0x40 MLOAD DUP1 SWAP2 SUB SWAP1 LOG1 POP POP JUMP JUMPDEST PUSH2 0x86A DUP3 CALLER DUP4 PUSH2 0xA57 JUMP JUMPDEST PUSH2 0x874 DUP3 DUP3 PUSH2 0xC77 JUMP JUMPDEST POP POP JUMP JUMPDEST PUSH0 MLOAD PUSH1 0x20 PUSH2 0x1474 PUSH0 CODECOPY PUSH0 MLOAD SWAP1 PUSH0 MSTORE PUSH2 0x88F DUP2 PUSH2 0xA4D JUMP JUMPDEST PUSH2 0x790 PUSH2 0xCAB JUMP JUMPDEST PUSH0 SWAP2 DUP3 MSTORE PUSH1 0x5 PUSH1 0x20 SWAP1 DUP2 MSTORE PUSH1 0x40 DUP1 DUP5 KECCAK256 PUSH1 0x1 PUSH1 0x1 PUSH1 0xA0 SHL SUB SWAP4 SWAP1 SWAP4 AND DUP5 MSTORE SWAP2 SWAP1 MSTORE SWAP1 KECCAK256 SLOAD PUSH1 0xFF AND SWAP1 JUMP JUMPDEST PUSH1 0x60 PUSH1 0x4 DUP1 SLOAD PUSH2 0x4DD SWAP1 PUSH2 0x13CB JUMP JUMPDEST PUSH0 MLOAD PUSH1 0x20 PUSH2 0x1474 PUSH0 CODECOPY PUSH0 MLOAD SWAP1 PUSH0 MSTORE PUSH2 0x8E7 DUP2 PUSH2 0xA4D JUMP JUMPDEST PUSH2 0x8FF PUSH2 0x3E8 PUSH12 0x33B2E3C9FD0803CE8000000 PUSH2 0x142A JUMP JUMPDEST DUP4 LT ISZERO PUSH2 0x93F JUMPI PUSH1 0x40 MLOAD PUSH3 0x461BCD PUSH1 0xE5 SHL DUP2 MSTORE PUSH1 0x20 PUSH1 0x4 DUP3 ADD MSTORE PUSH1 0xE PUSH1 0x24 DUP3 ADD MSTORE PUSH14 0x4D617820545820746F6F206C6F77 PUSH1 0x90 SHL PUSH1 0x44 DUP3 ADD MSTORE PUSH1 0x64 ADD PUSH2 0x5E2 JUMP JUMPDEST PUSH2 0x957 PUSH2 0x3E8 PUSH12 0x33B2E3C9FD0803CE8000000 PUSH2 0x142A JUMP JUMPDEST DUP3 LT ISZERO PUSH2 0x99B JUMPI PUSH1 0x40 MLOAD PUSH3 0x461BCD PUSH1 0xE5 SHL DUP2 MSTORE PUSH1 0x20 PUSH1 0x4 DUP3 ADD MSTORE PUSH1 0x12 PUSH1 0x24 DUP3 ADD MSTORE PUSH18 0x4D61782077616C6C657420746F6F206C6F77 PUSH1 0x70 SHL PUSH1 0x44 DUP3 ADD MSTORE PUSH1 0x64 ADD PUSH2 0x5E2 JUMP JUMPDEST PUSH1 0xB DUP4 SWAP1 SSTORE PUSH1 0xC DUP3 SWAP1 SSTORE PUSH1 0x40 DUP1 MLOAD DUP5 DUP2 MSTORE PUSH1 0x20 DUP2 ADD DUP5 SWAP1 MSTORE PUSH32 0xB6CF947475D47632612A3265C7BC83F5CFED7429546220BFB088C3634F91C229 SWAP2 ADD PUSH2 0x627 JUMP JUMPDEST PUSH0 CALLER PUSH2 0x56B DUP2 DUP6 DUP6 PUSH2 0xACC JUMP JUMPDEST PUSH0 DUP3 DUP2 MSTORE PUSH1 0x5 PUSH1 0x20 MSTORE PUSH1 0x40 SWAP1 KECCAK256 PUSH1 0x1 ADD SLOAD PUSH2 0xA02 DUP2 PUSH2 0xA4D JUMP JUMPDEST PUSH2 0x6F1 DUP4 DUP4 PUSH2 0xBBA JUMP JUMPDEST PUSH0 PUSH1 0x1 PUSH1 0x1 PUSH1 0xE0 SHL SUB NOT DUP3 AND PUSH4 0x7965DB0B PUSH1 0xE0 SHL EQ DUP1 PUSH2 0x4C8 JUMPI POP PUSH4 0x1FFC9A7 PUSH1 0xE0 SHL PUSH1 0x1 PUSH1 0x1 PUSH1 0xE0 SHL SUB NOT DUP4 AND EQ PUSH2 0x4C8 JUMP JUMPDEST PUSH2 0x76C DUP4 DUP4 DUP4 PUSH1 0x1 PUSH2 0xCE8 JUMP JUMPDEST PUSH2 0x790 DUP2 CALLER PUSH2 0xDBA JUMP JUMPDEST PUSH1 0x1 PUSH1 0x1 PUSH1 0xA0 SHL SUB DUP4 DUP2 AND PUSH0 SWAP1 DUP2 MSTORE PUSH1 0x1 PUSH1 0x20 SWAP1 DUP2 MSTORE PUSH1 0x40 DUP1 DUP4 KECCAK256 SWAP4 DUP7 AND DUP4 MSTORE SWAP3 SWAP1 MSTORE KECCAK256 SLOAD PUSH0 NOT DUP2 EQ PUSH2 0x6F1 JUMPI DUP2 DUP2 LT ISZERO PUSH2 0xABE JUMPI PUSH1 0x40 MLOAD PUSH4 0x7DC7A0D9 PUSH1 0xE1 SHL DUP2 MSTORE PUSH1 0x1 PUSH1 0x1 PUSH1 0xA0 SHL SUB DUP5 AND PUSH1 0x4 DUP3 ADD MSTORE PUSH1 0x24 DUP2 ADD DUP3 SWAP1 MSTORE PUSH1 0x44 DUP2 ADD DUP4 SWAP1 MSTORE PUSH1 0x64 ADD PUSH2 0x5E2 JUMP JUMPDEST PUSH2 0x6F1 DUP5 DUP5 DUP5 DUP5 SUB PUSH0 PUSH2 0xCE8 JUMP JUMPDEST PUSH1 0x1 PUSH1 0x1 PUSH1 0xA0 SHL SUB DUP4 AND PUSH2 0xAF5 JUMPI PUSH1 0x40 MLOAD PUSH4 0x4B637E8F PUSH1 0xE1 SHL DUP2 MSTORE PUSH0 PUSH1 0x4 DUP3 ADD MSTORE PUSH1 0x24 ADD PUSH2 0x5E2 JUMP JUMPDEST PUSH1 0x1 PUSH1 0x1 PUSH1 0xA0 SHL SUB DUP3 AND PUSH2 0xB1E JUMPI PUSH1 0x40 MLOAD PUSH4 0xEC442F05 PUSH1 0xE0 SHL DUP2 MSTORE PUSH0 PUSH1 0x4 DUP3 ADD MSTORE PUSH1 0x24 ADD PUSH2 0x5E2 JUMP JUMPDEST PUSH2 0x76C DUP4 DUP4 DUP4 PUSH2 0xDF3 JUMP JUMPDEST PUSH0 PUSH2 0xB34 DUP4 DUP4 PUSH2 0x897 JUMP JUMPDEST PUSH2 0xBB3 JUMPI PUSH0 DUP4 DUP2 MSTORE PUSH1 0x5 PUSH1 0x20 SWAP1 DUP2 MSTORE PUSH1 0x40 DUP1 DUP4 KECCAK256 PUSH1 0x1 PUSH1 0x1 PUSH1 0xA0 SHL SUB DUP7 AND DUP5 MSTORE SWAP1 SWAP2 MSTORE SWAP1 KECCAK256 DUP1 SLOAD PUSH1 0xFF NOT AND PUSH1 0x1 OR SWAP1 SSTORE PUSH2 0xB6B CALLER SWAP1 JUMP JUMPDEST PUSH1 0x1 PUSH1 0x1 PUSH1 0xA0 SHL SUB AND DUP3 PUSH1 0x1 PUSH1 0x1 PUSH1 0xA0 SHL SUB AND DUP5 PUSH32 0x2F8788117E7EFF1D82E926EC794901D17C78024A50270940304540A733656F0D PUSH1 0x40 MLOAD PUSH1 0x40 MLOAD DUP1 SWAP2 SUB SWAP1 LOG4 POP PUSH1 0x1 PUSH2 0x4C8 JUMP JUMPDEST POP PUSH0 PUSH2 0x4C8 JUMP JUMPDEST PUSH0 PUSH2 0xBC5 DUP4 DUP4 PUSH2 0x897 JUMP JUMPDEST ISZERO PUSH2 0xBB3 JUMPI PUSH0 DUP4 DUP2 MSTORE PUSH1 0x5 PUSH1 0x20 SWAP1 DUP2 MSTORE PUSH1 0x40 DUP1 DUP4 KECCAK256 PUSH1 0x1 PUSH1 0x1 PUSH1 0xA0 SHL SUB DUP7 AND DUP1 DUP6 MSTORE SWAP3 MSTORE DUP1 DUP4 KECCAK256 DUP1 SLOAD PUSH1 0xFF NOT AND SWAP1 SSTORE MLOAD CALLER SWAP3 DUP7 SWAP2 PUSH32 0xF6391F5C32D9C69D2A47EA670B442974B53935D1EDC7FD64EB21E047A839171B SWAP2 SWAP1 LOG4 POP PUSH1 0x1 PUSH2 0x4C8 JUMP JUMPDEST PUSH2 0xC2D PUSH2 0x1059 JUMP JUMPDEST PUSH1 0x6 DUP1 SLOAD PUSH1 0xFF NOT AND SWAP1 SSTORE PUSH32 0x5DB9EE0A495BF2E6FF9C91A7834C1BA4FDD244A5E8AA4E537BD38AEAE4B073AA CALLER JUMPDEST PUSH1 0x40 MLOAD PUSH1 0x1 PUSH1 0x1 PUSH1 0xA0 SHL SUB SWAP1 SWAP2 AND DUP2 MSTORE PUSH1 0x20 ADD PUSH1 0x40 MLOAD DUP1 SWAP2 SUB SWAP1 LOG1 JUMP JUMPDEST PUSH1 0x1 PUSH1 0x1 PUSH1 0xA0 SHL SUB DUP3 AND PUSH2 0xCA0 JUMPI PUSH1 0x40 MLOAD PUSH4 0x4B637E8F PUSH1 0xE1 SHL DUP2 MSTORE PUSH0 PUSH1 0x4 DUP3 ADD MSTORE PUSH1 0x24 ADD PUSH2 0x5E2 JUMP JUMPDEST PUSH2 0x874 DUP3 PUSH0 DUP4 PUSH2 0xDF3 JUMP JUMPDEST PUSH2 0xCB3 PUSH2 0x10A4 JUMP JUMPDEST PUSH1 0x6 DUP1 SLOAD PUSH1 0xFF NOT AND PUSH1 0x1 OR SWAP1 SSTORE PUSH32 0x62E78CEA01BEE320CD4E420270B5EA74000D11B0C9F74754EBDBFC544B05A258 PUSH2 0xC5A CALLER SWAP1 JUMP JUMPDEST PUSH1 0x1 PUSH1 0x1 PUSH1 0xA0 SHL SUB DUP5 AND PUSH2 0xD11 JUMPI PUSH1 0x40 MLOAD PUSH4 0xE602DF05 PUSH1 0xE0 SHL DUP2 MSTORE PUSH0 PUSH1 0x4 DUP3 ADD MSTORE PUSH1 0x24 ADD PUSH2 0x5E2 JUMP JUMPDEST PUSH1 0x1 PUSH1 0x1 PUSH1 0xA0 SHL SUB DUP4 AND PUSH2 0xD3A JUMPI PUSH1 0x40 MLOAD PUSH4 0x4A1406B1 PUSH1 0xE1 SHL DUP2 MSTORE PUSH0 PUSH1 0x4 DUP3 ADD MSTORE PUSH1 0x24 ADD PUSH2 0x5E2 JUMP JUMPDEST PUSH1 0x1 PUSH1 0x1 PUSH1 0xA0 SHL SUB DUP1 DUP6 AND PUSH0 SWAP1 DUP2 MSTORE PUSH1 0x1 PUSH1 0x20 SWAP1 DUP2 MSTORE PUSH1 0x40 DUP1 DUP4 KECCAK256 SWAP4 DUP8 AND DUP4 MSTORE SWAP3 SWAP1 MSTORE KECCAK256 DUP3 SWAP1 SSTORE DUP1 ISZERO PUSH2 0x6F1 JUMPI DUP3 PUSH1 0x1 PUSH1 0x1 PUSH1 0xA0 SHL SUB AND DUP5 PUSH1 0x1 PUSH1 0x1 PUSH1 0xA0 SHL SUB AND PUSH32 0x8C5BE1E5EBEC7D5BD14F71427D1E84F3DD0314C0F7B2291E5B200AC8C7C3B925 DUP5 PUSH1 0x40 MLOAD PUSH2 0xDAC SWAP2 DUP2 MSTORE PUSH1 0x20 ADD SWAP1 JUMP JUMPDEST PUSH1 0x40 MLOAD DUP1 SWAP2 SUB SWAP1 LOG3 POP POP POP POP JUMP JUMPDEST PUSH2 0xDC4 DUP3 DUP3 PUSH2 0x897 JUMP JUMPDEST PUSH2 0x874 JUMPI PUSH1 0x40 MLOAD PUSH4 0xE2517D3F PUSH1 0xE0 SHL DUP2 MSTORE PUSH1 0x1 PUSH1 0x1 PUSH1 0xA0 SHL SUB DUP3 AND PUSH1 0x4 DUP3 ADD MSTORE PUSH1 0x24 DUP2 ADD DUP4 SWAP1 MSTORE PUSH1 0x44 ADD PUSH2 0x5E2 JUMP JUMPDEST PUSH2 0xDFB PUSH2 0x10A4 JUMP JUMPDEST PUSH1 0x1 PUSH1 0x1 PUSH1 0xA0 SHL SUB DUP4 AND ISZERO DUP1 PUSH2 0xE18 JUMPI POP PUSH1 0x1 PUSH1 0x1 PUSH1 0xA0 SHL SUB DUP3 AND ISZERO JUMPDEST ISZERO PUSH2 0xE28 JUMPI PUSH2 0x76C DUP4 DUP4 DUP4 PUSH2 0x10EA JUMP JUMPDEST PUSH1 0x1 PUSH1 0x1 PUSH1 0xA0 SHL SUB DUP4 AND PUSH0 SWAP1 DUP2 MSTORE PUSH1 0xE PUSH1 0x20 MSTORE PUSH1 0x40 SWAP1 KECCAK256 SLOAD PUSH1 0xFF AND ISZERO DUP1 ISZERO PUSH2 0xE68 JUMPI POP PUSH1 0x1 PUSH1 0x1 PUSH1 0xA0 SHL SUB DUP3 AND PUSH0 SWAP1 DUP2 MSTORE PUSH1 0xE PUSH1 0x20 MSTORE PUSH1 0x40 SWAP1 KECCAK256 SLOAD PUSH1 0xFF AND ISZERO JUMPDEST PUSH2 0xEAD JUMPI PUSH1 0x40 MLOAD PUSH3 0x461BCD PUSH1 0xE5 SHL DUP2 MSTORE PUSH1 0x20 PUSH1 0x4 DUP3 ADD MSTORE PUSH1 0x16 PUSH1 0x24 DUP3 ADD MSTORE PUSH22 0x1059191C995CDCC81A5CC8189B1858DADB1A5CDD1959 PUSH1 0x52 SHL PUSH1 0x44 DUP3 ADD MSTORE PUSH1 0x64 ADD PUSH2 0x5E2 JUMP JUMPDEST PUSH1 0x1 PUSH1 0x1 PUSH1 0xA0 SHL SUB DUP4 AND PUSH0 SWAP1 DUP2 MSTORE PUSH1 0xD PUSH1 0x20 MSTORE PUSH1 0x40 SWAP1 KECCAK256 SLOAD PUSH1 0xFF AND ISZERO DUP1 ISZERO PUSH2 0xEED JUMPI POP PUSH1 0x1 PUSH1 0x1 PUSH1 0xA0 SHL SUB DUP3 AND PUSH0 SWAP1 DUP2 MSTORE PUSH1 0xD PUSH1 0x20 MSTORE PUSH1 0x40 SWAP1 KECCAK256 SLOAD PUSH1 0xFF AND ISZERO JUMPDEST ISZERO PUSH2 0x104E JUMPI PUSH1 0xB SLOAD DUP2 GT ISZERO PUSH2 0xF44 JUMPI PUSH1 0x40 MLOAD PUSH3 0x461BCD PUSH1 0xE5 SHL DUP2 MSTORE PUSH1 0x20 PUSH1 0x4 DUP3 ADD MSTORE PUSH1 0x1E PUSH1 0x24 DUP3 ADD MSTORE PUSH32 0x45786365656473206D6178207472616E73616374696F6E20616D6F756E740000 PUSH1 0x44 DUP3 ADD MSTORE PUSH1 0x64 ADD PUSH2 0x5E2 JUMP JUMPDEST PUSH1 0xC SLOAD DUP2 PUSH2 0xF66 DUP5 PUSH1 0x1 PUSH1 0x1 PUSH1 0xA0 SHL SUB AND PUSH0 SWAP1 DUP2 MSTORE PUSH1 0x20 DUP2 SWAP1 MSTORE PUSH1 0x40 SWAP1 KECCAK256 SLOAD SWAP1 JUMP JUMPDEST PUSH2 0xF70 SWAP2 SWAP1 PUSH2 0x1417 JUMP JUMPDEST GT ISZERO PUSH2 0xFBE JUMPI PUSH1 0x40 MLOAD PUSH3 0x461BCD PUSH1 0xE5 SHL DUP2 MSTORE PUSH1 0x20 PUSH1 0x4 DUP3 ADD MSTORE PUSH1 0x17 PUSH1 0x24 DUP3 ADD MSTORE PUSH32 0x45786365656473206D61782077616C6C65742073697A65000000000000000000 PUSH1 0x44 DUP3 ADD MSTORE PUSH1 0x64 ADD PUSH2 0x5E2 JUMP JUMPDEST PUSH0 PUSH1 0x64 PUSH1 0x8 SLOAD DUP4 PUSH2 0xFCF SWAP2 SWAP1 PUSH2 0x1449 JUMP JUMPDEST PUSH2 0xFD9 SWAP2 SWAP1 PUSH2 0x142A JUMP JUMPDEST SWAP1 POP PUSH0 PUSH1 0x64 PUSH1 0x9 SLOAD DUP5 PUSH2 0xFEC SWAP2 SWAP1 PUSH2 0x1449 JUMP JUMPDEST PUSH2 0xFF6 SWAP2 SWAP1 PUSH2 0x142A JUMP JUMPDEST SWAP1 POP PUSH0 PUSH2 0x1003 DUP3 DUP5 PUSH2 0x1417 JUMP JUMPDEST SWAP1 POP DUP1 ISZERO PUSH2 0x104A JUMPI PUSH1 0xA SLOAD PUSH2 0x1023 SWAP1 DUP8 SWAP1 PUSH1 0x1 PUSH1 0x1 PUSH1 0xA0 SHL SUB AND DUP6 PUSH2 0x10EA JUMP JUMPDEST PUSH2 0x102E DUP7 ADDRESS DUP5 PUSH2 0x10EA JUMP JUMPDEST PUSH2 0x1042 DUP7 DUP7 PUSH2 0x103D DUP5 DUP9 PUSH2 0x1460 JUMP JUMPDEST PUSH2 0x10EA JUMP JUMPDEST POP POP POP POP POP POP JUMP JUMPDEST POP POP POP JUMPDEST PUSH2 0x76C DUP4 DUP4 DUP4 PUSH2 0x10EA JUMP JUMPDEST PUSH1 0x6 SLOAD PUSH1 0xFF AND PUSH2 0x10A2 JUMPI PUSH1 0x40 MLOAD PUSH3 0x461BCD PUSH1 0xE5 SHL DUP2 MSTORE PUSH1 0x20 PUSH1 0x4 DUP3 ADD MSTORE PUSH1 0x14 PUSH1 0x24 DUP3 ADD MSTORE PUSH20 0x14185D5CD8589B194E881B9BDD081C185D5CD959 PUSH1 0x62 SHL PUSH1 0x44 DUP3 ADD MSTORE PUSH1 0x64 ADD PUSH2 0x5E2 JUMP JUMPDEST JUMP JUMPDEST PUSH1 0x6 SLOAD PUSH1 0xFF AND ISZERO PUSH2 0x10A2 JUMPI PUSH1 0x40 MLOAD PUSH3 0x461BCD PUSH1 0xE5 SHL DUP2 MSTORE PUSH1 0x20 PUSH1 0x4 DUP3 ADD MSTORE PUSH1 0x10 PUSH1 0x24 DUP3 ADD MSTORE PUSH16 0x14185D5CD8589B194E881C185D5CD959 PUSH1 0x82 SHL PUSH1 0x44 DUP3 ADD MSTORE PUSH1 0x64 ADD PUSH2 0x5E2 JUMP JUMPDEST PUSH1 0x1 PUSH1 0x1 PUSH1 0xA0 SHL SUB DUP4 AND PUSH2 0x1114 JUMPI DUP1 PUSH1 0x2 PUSH0 DUP3 DUP3 SLOAD PUSH2 0x1109 SWAP2 SWAP1 PUSH2 0x1417 JUMP JUMPDEST SWAP1 SWAP2 SSTORE POP PUSH2 0x1184 SWAP1 POP JUMP JUMPDEST PUSH1 0x1 PUSH1 0x1 PUSH1 0xA0 SHL SUB DUP4 AND PUSH0 SWAP1 DUP2 MSTORE PUSH1 0x20 DUP2 SWAP1 MSTORE PUSH1 0x40 SWAP1 KECCAK256 SLOAD DUP2 DUP2 LT ISZERO PUSH2 0x1166 JUMPI PUSH1 0x40 MLOAD PUSH4 0x391434E3 PUSH1 0xE2 SHL DUP2 MSTORE PUSH1 0x1 PUSH1 0x1 PUSH1 0xA0 SHL SUB DUP6 AND PUSH1 0x4 DUP3 ADD MSTORE PUSH1 0x24 DUP2 ADD DUP3 SWAP1 MSTORE PUSH1 0x44 DUP2 ADD DUP4 SWAP1 MSTORE PUSH1 0x64 ADD PUSH2 0x5E2 JUMP JUMPDEST PUSH1 0x1 PUSH1 0x1 PUSH1 0xA0 SHL SUB DUP5 AND PUSH0 SWAP1 DUP2 MSTORE PUSH1 0x20 DUP2 SWAP1 MSTORE PUSH1 0x40 SWAP1 KECCAK256 SWAP1 DUP3 SWAP1 SUB SWAP1 SSTORE JUMPDEST PUSH1 0x1 PUSH1 0x1 PUSH1 0xA0 SHL SUB DUP3 AND PUSH2 0x11A0 JUMPI PUSH1 0x2 DUP1 SLOAD DUP3 SWAP1 SUB SWAP1 SSTORE PUSH2 0x11BE JUMP JUMPDEST PUSH1 0x1 PUSH1 0x1 PUSH1 0xA0 SHL SUB DUP3 AND PUSH0 SWAP1 DUP2 MSTORE PUSH1 0x20 DUP2 SWAP1 MSTORE PUSH1 0x40 SWAP1 KECCAK256 DUP1 SLOAD DUP3 ADD SWAP1 SSTORE JUMPDEST DUP2 PUSH1 0x1 PUSH1 0x1 PUSH1 0xA0 SHL SUB AND DUP4 PUSH1 0x1 PUSH1 0x1 PUSH1 0xA0 SHL SUB AND PUSH32 0xDDF252AD1BE2C89B69C2B068FC378DAA952BA7F163C4A11628F55A4DF523B3EF DUP4 PUSH1 0x40 MLOAD PUSH2 0x1203 SWAP2 DUP2 MSTORE PUSH1 0x20 ADD SWAP1 JUMP JUMPDEST PUSH1 0x40 MLOAD DUP1 SWAP2 SUB SWAP1 LOG3 POP POP POP JUMP JUMPDEST PUSH0 PUSH1 0x20 DUP3 DUP5 SUB SLT ISZERO PUSH2 0x1220 JUMPI PUSH0 PUSH0 REVERT JUMPDEST DUP2 CALLDATALOAD PUSH1 0x1 PUSH1 0x1 PUSH1 0xE0 SHL SUB NOT DUP2 AND DUP2 EQ PUSH2 0x1237 JUMPI PUSH0 PUSH0 REVERT JUMPDEST SWAP4 SWAP3 POP POP POP JUMP JUMPDEST PUSH1 0x20 DUP2 MSTORE PUSH0 DUP3 MLOAD DUP1 PUSH1 0x20 DUP5 ADD MSTORE DUP1 PUSH1 0x20 DUP6 ADD PUSH1 0x40 DUP6 ADD MCOPY PUSH0 PUSH1 0x40 DUP3 DUP6 ADD ADD MSTORE PUSH1 0x40 PUSH1 0x1F NOT PUSH1 0x1F DUP4 ADD AND DUP5 ADD ADD SWAP2 POP POP SWAP3 SWAP2 POP POP JUMP JUMPDEST DUP1 CALLDATALOAD PUSH1 0x1 PUSH1 0x1 PUSH1 0xA0 SHL SUB DUP2 AND DUP2 EQ PUSH2 0x1289 JUMPI PUSH0 PUSH0 REVERT JUMPDEST SWAP2 SWAP1 POP JUMP JUMPDEST PUSH0 PUSH0 PUSH1 0x40 DUP4 DUP6 SUB SLT ISZERO PUSH2 0x129F JUMPI PUSH0 PUSH0 REVERT JUMPDEST PUSH2 0x12A8 DUP4 PUSH2 0x1273 JUMP JUMPDEST SWAP5 PUSH1 0x20 SWAP4 SWAP1 SWAP4 ADD CALLDATALOAD SWAP4 POP POP POP JUMP JUMPDEST PUSH0 PUSH0 PUSH1 0x40 DUP4 DUP6 SUB SLT ISZERO PUSH2 0x12C7 JUMPI PUSH0 PUSH0 REVERT JUMPDEST POP POP DUP1 CALLDATALOAD SWAP3 PUSH1 0x20 SWAP1 SWAP2 ADD CALLDATALOAD SWAP2 POP JUMP JUMPDEST PUSH0 PUSH0 PUSH1 0x40 DUP4 DUP6 SUB SLT ISZERO PUSH2 0x12E7 JUMPI PUSH0 PUSH0 REVERT JUMPDEST PUSH2 0x12F0 DUP4 PUSH2 0x1273 JUMP JUMPDEST SWAP2 POP PUSH1 0x20 DUP4 ADD CALLDATALOAD DUP1 ISZERO ISZERO DUP2 EQ PUSH2 0x1304 JUMPI PUSH0 PUSH0 REVERT JUMPDEST DUP1 SWAP2 POP POP SWAP3 POP SWAP3 SWAP1 POP JUMP JUMPDEST PUSH0 PUSH0 PUSH0 PUSH1 0x60 DUP5 DUP7 SUB SLT ISZERO PUSH2 0x1321 JUMPI PUSH0 PUSH0 REVERT JUMPDEST PUSH2 0x132A DUP5 PUSH2 0x1273 JUMP JUMPDEST SWAP3 POP PUSH2 0x1338 PUSH1 0x20 DUP6 ADD PUSH2 0x1273 JUMP JUMPDEST SWAP3 SWAP6 SWAP3 SWAP5 POP POP POP PUSH1 0x40 SWAP2 SWAP1 SWAP2 ADD CALLDATALOAD SWAP1 JUMP JUMPDEST PUSH0 PUSH1 0x20 DUP3 DUP5 SUB SLT ISZERO PUSH2 0x1359 JUMPI PUSH0 PUSH0 REVERT JUMPDEST POP CALLDATALOAD SWAP2 SWAP1 POP JUMP JUMPDEST PUSH0 PUSH0 PUSH1 0x40 DUP4 DUP6 SUB SLT ISZERO PUSH2 0x1371 JUMPI PUSH0 PUSH0 REVERT JUMPDEST DUP3 CALLDATALOAD SWAP2 POP PUSH2 0x1381 PUSH1 0x20 DUP5 ADD PUSH2 0x1273 JUMP JUMPDEST SWAP1 POP SWAP3 POP SWAP3 SWAP1 POP JUMP JUMPDEST PUSH0 PUSH1 0x20 DUP3 DUP5 SUB SLT ISZERO PUSH2 0x139A JUMPI PUSH0 PUSH0 REVERT JUMPDEST PUSH2 0x1237 DUP3 PUSH2 0x1273 JUMP JUMPDEST PUSH0 PUSH0 PUSH1 0x40 DUP4 DUP6 SUB SLT ISZERO PUSH2 0x13B4 JUMPI PUSH0 PUSH0 REVERT JUMPDEST PUSH2 0x13BD DUP4 PUSH2 0x1273 JUMP JUMPDEST SWAP2 POP PUSH2 0x1381 PUSH1 0x20 DUP5 ADD PUSH2 0x1273 JUMP JUMPDEST PUSH1 0x1 DUP2 DUP2 SHR SWAP1 DUP3 AND DUP1 PUSH2 0x13DF JUMPI PUSH1 0x7F DUP3 AND SWAP2 POP JUMPDEST PUSH1 0x20 DUP3 LT DUP2 SUB PUSH2 0x13FD JUMPI PUSH4 0x4E487B71 PUSH1 0xE0 SHL PUSH0 MSTORE PUSH1 0x22 PUSH1 0x4 MSTORE PUSH1 0x24 PUSH0 REVERT JUMPDEST POP SWAP2 SWAP1 POP JUMP JUMPDEST PUSH4 0x4E487B71 PUSH1 0xE0 SHL PUSH0 MSTORE PUSH1 0x11 PUSH1 0x4 MSTORE PUSH1 0x24 PUSH0 REVERT JUMPDEST DUP1 DUP3 ADD DUP1 DUP3 GT ISZERO PUSH2 0x4C8 JUMPI PUSH2 0x4C8 PUSH2 0x1403 JUMP JUMPDEST PUSH0 DUP3 PUSH2 0x1444 JUMPI PUSH4 0x4E487B71 PUSH1 0xE0 SHL PUSH0 MSTORE PUSH1 0x12 PUSH1 0x4 MSTORE PUSH1 0x24 PUSH0 REVERT JUMPDEST POP DIV SWAP1 JUMP JUMPDEST DUP1 DUP3 MUL DUP2 ISZERO DUP3 DUP3 DIV DUP5 EQ OR PUSH2 0x4C8 JUMPI PUSH2 0x4C8 PUSH2 0x1403 JUMP JUMPDEST DUP2 DUP2 SUB DUP2 DUP2 GT ISZERO PUSH2 0x4C8 JUMPI PUSH2 0x4C8 PUSH2 0x1403 JUMP INVALID LOG4 SWAP9 SMOD KECCAK256 TLOAD 0xE4 0xD3 SSTORE MULMOD 0x2E CREATE2 0xA8 LOG1 DUP16 JUMP 0xE8 SWAP2 EXTCODECOPY DELEGATECALL LOG2 ADD 0xFB 0xE2 DUP8 DUP3 JUMPDEST MULMOD JUMP SWAP4 0xC2 OR PUSH22 0xA2646970667358221220B1E0272F98E6D173BCB9E6C7 BLOCKHASH CALLDATALOAD 0xD9 0xAC 0x1F 0xBF DIV 0x2F SWAP16 0xB1 0xD5 DUP6 CALL 0xD PUSH17 0x3661B07E9E64736F6C634300081C003300 "
				},
				"gasEstimates": {
					"creation": {
						"codeDepositCost": "1064200",
						"executionCost": "infinite",
						"totalCost": "infinite"
					},
					"external": {
						"ADMIN_ROLE()": "infinite",
						"DEFAULT_ADMIN_ROLE()": "304",
						"allowance(address,address)": "infinite",
						"approve(address,uint256)": "24787",
						"balanceOf(address)": "2605",
						"burn(uint256)": "infinite",
						"burnFrom(address,uint256)": "infinite",
						"decimals()": "266",
						"getRoleAdmin(bytes32)": "2553",
						"grantRole(bytes32,address)": "infinite",
						"hasRole(bytes32,address)": "2761",
						"isBlacklisted(address)": "2649",
						"isExcludedFromFee(address)": "2606",
						"liquidityFee()": "2361",
						"marketingFee()": "2340",
						"marketingWallet()": "2448",
						"maxTransactionAmount()": "2360",
						"maxWalletSize()": "2383",
						"name()": "infinite",
						"pause()": "infinite",
						"paused()": "2403",
						"renounceRole(bytes32,address)": "29135",
						"revokeRole(bytes32,address)": "infinite",
						"setBlacklist(address,bool)": "infinite",
						"setFeeExclusion(address,bool)": "infinite",
						"setFees(uint256,uint256)": "infinite",
						"setMarketingWallet(address)": "infinite",
						"setMaxLimits(uint256,uint256)": "infinite",
						"supportsInterface(bytes4)": "infinite",
						"symbol()": "infinite",
						"totalSupply()": "2348",
						"transfer(address,uint256)": "infinite",
						"transferFrom(address,address,uint256)": "infinite",
						"unpause()": "infinite"
					},
					"internal": {
						"_update(address,address,uint256)": "infinite"
					}
				},
				"methodIdentifiers": {
					"ADMIN_ROLE()": "75b238fc",
					"DEFAULT_ADMIN_ROLE()": "a217fddf",
					"allowance(address,address)": "dd62ed3e",
					"approve(address,uint256)": "095ea7b3",
					"balanceOf(address)": "70a08231",
					"burn(uint256)": "42966c68",
					"burnFrom(address,uint256)": "79cc6790",
					"decimals()": "313ce567",
					"getRoleAdmin(bytes32)": "248a9ca3",
					"grantRole(bytes32,address)": "2f2ff15d",
					"hasRole(bytes32,address)": "91d14854",
					"isBlacklisted(address)": "fe575a87",
					"isExcludedFromFee(address)": "5342acb4",
					"liquidityFee()": "98118cb4",
					"marketingFee()": "6b67c4df",
					"marketingWallet()": "75f0a874",
					"maxTransactionAmount()": "c8c8ebe4",
					"maxWalletSize()": "8f3fa860",
					"name()": "06fdde03",
					"pause()": "8456cb59",
					"paused()": "5c975abb",
					"renounceRole(bytes32,address)": "36568abe",
					"revokeRole(bytes32,address)": "d547741f",
					"setBlacklist(address,bool)": "153b0d1e",
					"setFeeExclusion(address,bool)": "30b94cd5",
					"setFees(uint256,uint256)": "0b78f9c0",
					"setMarketingWallet(address)": "5d098b38",
					"setMaxLimits(uint256,uint256)": "9d913ef5",
					"supportsInterface(bytes4)": "01ffc9a7",
					"symbol()": "95d89b41",
					"totalSupply()": "18160ddd",
					"transfer(address,uint256)": "a9059cbb",
					"transferFrom(address,address,uint256)": "23b872dd",
					"unpause()": "3f4ba83a"
				}
			},
			"storageLayout": {
				"storage": [
					{
						"astId": 711,
						"contract": "contracts/LGG.sol:LGGToken",
						"label": "_balances",
						"offset": 0,
						"slot": "0",
						"type": "t_mapping(t_address,t_uint256)"
					},
					{
						"astId": 717,
						"contract": "contracts/LGG.sol:LGGToken",
						"label": "_allowances",
						"offset": 0,
						"slot": "1",
						"type": "t_mapping(t_address,t_mapping(t_address,t_uint256))"
					},
					{
						"astId": 719,
						"contract": "contracts/LGG.sol:LGGToken",
						"label": "_totalSupply",
						"offset": 0,
						"slot": "2",
						"type": "t_uint256"
					},
					{
						"astId": 721,
						"contract": "contracts/LGG.sol:LGGToken",
						"label": "_name",
						"offset": 0,
						"slot": "3",
						"type": "t_string_storage"
					},
					{
						"astId": 723,
						"contract": "contracts/LGG.sol:LGGToken",
						"label": "_symbol",
						"offset": 0,
						"slot": "4",
						"type": "t_string_storage"
					},
					{
						"astId": 26,
						"contract": "contracts/LGG.sol:LGGToken",
						"label": "_roles",
						"offset": 0,
						"slot": "5",
						"type": "t_mapping(t_bytes32,t_struct(RoleData)21_storage)"
					},
					{
						"astId": 533,
						"contract": "contracts/LGG.sol:LGGToken",
						"label": "_paused",
						"offset": 0,
						"slot": "6",
						"type": "t_bool"
					},
					{
						"astId": 634,
						"contract": "contracts/LGG.sol:LGGToken",
						"label": "_status",
						"offset": 0,
						"slot": "7",
						"type": "t_uint256"
					},
					{
						"astId": 1451,
						"contract": "contracts/LGG.sol:LGGToken",
						"label": "marketingFee",
						"offset": 0,
						"slot": "8",
						"type": "t_uint256"
					},
					{
						"astId": 1454,
						"contract": "contracts/LGG.sol:LGGToken",
						"label": "liquidityFee",
						"offset": 0,
						"slot": "9",
						"type": "t_uint256"
					},
					{
						"astId": 1456,
						"contract": "contracts/LGG.sol:LGGToken",
						"label": "marketingWallet",
						"offset": 0,
						"slot": "10",
						"type": "t_address"
					},
					{
						"astId": 1458,
						"contract": "contracts/LGG.sol:LGGToken",
						"label": "maxTransactionAmount",
						"offset": 0,
						"slot": "11",
						"type": "t_uint256"
					},
					{
						"astId": 1460,
						"contract": "contracts/LGG.sol:LGGToken",
						"label": "maxWalletSize",
						"offset": 0,
						"slot": "12",
						"type": "t_uint256"
					},
					{
						"astId": 1464,
						"contract": "contracts/LGG.sol:LGGToken",
						"label": "isExcludedFromFee",
						"offset": 0,
						"slot": "13",
						"type": "t_mapping(t_address,t_bool)"
					},
					{
						"astId": 1468,
						"contract": "contracts/LGG.sol:LGGToken",
						"label": "isBlacklisted",
						"offset": 0,
						"slot": "14",
						"type": "t_mapping(t_address,t_bool)"
					}
				],
				"types": {
					"t_address": {
						"encoding": "inplace",
						"label": "address",
						"numberOfBytes": "20"
					},
					"t_bool": {
						"encoding": "inplace",
						"label": "bool",
						"numberOfBytes": "1"
					},
					"t_bytes32": {
						"encoding": "inplace",
						"label": "bytes32",
						"numberOfBytes": "32"
					},
					"t_mapping(t_address,t_bool)": {
						"encoding": "mapping",
						"key": "t_address",
						"label": "mapping(address => bool)",
						"numberOfBytes": "32",
						"value": "t_bool"
					},
					"t_mapping(t_address,t_mapping(t_address,t_uint256))": {
						"encoding": "mapping",
						"key": "t_address",
						"label": "mapping(address => mapping(address => uint256))",
						"numberOfBytes": "32",
						"value": "t_mapping(t_address,t_uint256)"
					},
					"t_mapping(t_address,t_uint256)": {
						"encoding": "mapping",
						"key": "t_address",
						"label": "mapping(address => uint256)",
						"numberOfBytes": "32",
						"value": "t_uint256"
					},
					"t_mapping(t_bytes32,t_struct(RoleData)21_storage)": {
						"encoding": "mapping",
						"key": "t_bytes32",
						"label": "mapping(bytes32 => struct AccessControl.RoleData)",
						"numberOfBytes": "32",
						"value": "t_struct(RoleData)21_storage"
					},
					"t_string_storage": {
						"encoding": "bytes",
						"label": "string",
						"numberOfBytes": "32"
					},
					"t_struct(RoleData)21_storage": {
						"encoding": "inplace",
						"label": "struct AccessControl.RoleData",
						"members": [
							{
								"astId": 18,
								"contract": "contracts/LGG.sol:LGGToken",
								"label": "hasRole",
								"offset": 0,
								"slot": "0",
								"type": "t_mapping(t_address,t_bool)"
							},
							{
								"astId": 20,
								"contract": "contracts/LGG.sol:LGGToken",
								"label": "adminRole",
								"offset": 0,
								"slot": "1",
								"type": "t_bytes32"
							}
						],
						"numberOfBytes": "64"
					},
					"t_uint256": {
						"encoding": "inplace",
						"label": "uint256",
						"numberOfBytes": "32"
					}
				}
			},
			"userdoc": {
				"kind": "user",
				"methods": {},
				"version": 1
			}
		}
	}
}